:020000040000FA
:1000000028EF36F0C96E1200EFEF2CF08CEC11F0F7
:100010001FEC1BF0FDD71200DEEF30F0D9CFE5FF6B
:10002000E1CFD9FF00C0E5FF01C0E5FF02C0E5FF59
:1000300003C0E5FF04C0E5FF05C0E5FF06C0E5FF1E
:1000400007C0E5FF08C0E5FF09C0E5FF0AC0E5FFFE
:100050000BC0E5FF0CC0E5FF0DC0E5FF0EC0E5FFDE
:100060000FC0E5FF10C0E5FF11C0E5FF12C0E5FFBE
:1000700013C0E5FF14C0E5FF15C0E5FF16C0E5FF9E
:1000800017C0E5FF18C0E5FF19C0E5FF1AC0E5FF7E
:100090001BC0E5FF1CC0E5FF1DC0E5FF1EC0E5FF5E
:1000A0001FC0E5FF20C0E5FF21C0E5FF22C0E5FF3E
:1000B00023C0E5FF24C0E5FF25C0E5FF26C0E5FF1E
:1000C00027C0E5FF020EDBCF00F0030EDBCF01F00F
:1000D000040EDBCF02F00250086E0150076E005094
:1000E000066EE56A100EE56E0850E56E0750E56E87
:1000F0000650E56E800EE56E050EE56E100EE56E9F
:1001000031EC28F0080EE12618C503F019C504F0FB
:100110001AC505F01BC506F003C007F004C008F0BF
:1001200005C009F006C00AF0D8800AAED8900AE3EC
:100130000A1E091E081E076C05E1082A03E1092AA8
:10014000D8B40A2A10C50BF011C50CF0E86A0501F5
:1001500011BFFF0E0D6E0E6ED8901431106E13315C
:100160000F6ED89010320F321551E840E840C00BA6
:1001700010121541E8403F0BE8BAC009116E126A2F
:1001800011BE12680F500B5C0F6E10500C58106EA1
:1001900011500D58116E12500E58126E800F810FB3
:1001A00008E1FF0E115C05E1FF0E105C02E1FE0E9E
:1001B0000F5CD8A04ED01250800F800F08E1000EC7
:1001C000115C05E1000E105C02E1030E0F5CD8B07B
:1001D00040D00A340A30166E0930156E0830146E9D
:1001E0000730136E1EC517F01FC518F0E86A050129
:1001F0001FBFFF0E196E800FF36E1650800FF35C59
:1002000008E11550195C05E11450185C02E1135027
:10021000175C1FE30C50156E15260D34166ED89022
:10022000153616360B44E844FC0B146E0B50E844AC
:10023000E844030B15120501126B1450136F15508F
:10024000146F1650156F186B196B1A6B1B6BF3EF4D
:1002500004F0D89009300C6E08300B6ED8900C3238
:100260000B32D8900C320B320A50E838E844E00BDD
:100270000C120A38E8441F0BE8B8E0090E6A08506F
:10028000076E0950086ED89008320732D8900832AD
:1002900007320A50E840E840C00B08120A40E84024
:1002A0003F0B0BC009F00CC00AF0E86A0CBEFF0E51
:1002B0000D6E0E6E07C013F008C014F0E86A08BE99
:1002C000FF0E156EE56E1550E56E1450E56E135079
:1002D000E56E0E50E56E0D50E56E0A50E56E095064
:1002E000E56E9CEC1DF0096EF3CF0AF0F4CF0DF033
:1002F000E9CF0EF0080EE1261EC513F01FC514F05D
:10030000E86A05011FBFFF0E156E166EE56E1550EB
:10031000E56E1450E56E1350E56E0E50E56E0D500F
:10032000E56E0A50E56E0950E56E86EC20F0096E28
:10033000F3CF0AF0080EE12616C50DF017C50EF032
:10034000E86A050117BFFF0E176E0E501B6E1B26C5
:1003500017341C6ED8901B361C360D44E844FC0B39
:100360001A6E0D50E844E844030B1B12196AD8803A
:1003700006AED890D8B07AD109C00DF00AC00EF000
:10038000E86A0ABEFF0E176E800FF36E1250800FE0
:10039000F35C08E11150175C05E110500E5C02E1BE
:1003A0000F500D5CD8B03AD10650800FF36E1C5040
:1003B000800FF35C08E11B50055C05E11A50045CFA
:1003C00002E11950035CD8B002D11CC50DF01DC567
:1003D0000EF0E86A05011DBFFF0E176E186E035080
:1003E0000D2604500E2205501722065018220D50DB
:1003F0000501186F0E50196F17501A6F18501B6FA8
:100400001EC50DF01FC50EF01CC517F01DC518F058
:100410000E50800FF36E1850800FF35C02E11750FE
:100420000D5CD8B0B8D018C51DF019C51EF01AC59E
:100430001FF01BC520F0D8901F30226E1E30216E99
:10044000D89022322132D890223221322050E838FE
:10045000E844E00B22122038E8441F0BE8B8E0091A
:10046000246A21500B6E22500C6ED8901F30226EE1
:100470001E30216ED890223221322050E840E840D0
:10048000C00B22122040E8403F0B2150076E225043
:10049000086E0BC021F00CC022F0E86A0CBEFF0E03
:1004A000236E246E07C025F008C026F0E86A08BE57
:1004B000FF0E276EE56E2750E56E2650E56E25503F
:1004C000E56E2450E56E2350E56E2250E56E215016
:1004D000E56E9CEC1DF0216EF3CF22F0F4CF23F0FB
:1004E000E9CF24F0080EE1260DC025F00EC026F05D
:1004F000E86A0EBEFF0E276EE56E2750E56E2650A9
:10050000E56E2550E56E2450E56E2350E56E2250D1
:10051000E56E2150E56E86EC20F0216EF3CF22F0DF
:10052000080EE1262150096E22500A6E09C021F002
:100530000AC022F0E86A0ABEFF0E236E246E125033
:10054000800FF36E2450800FF35C08E12350115CA0
:1005500005E12250105C02E121500F5C1CE20D50BD
:10056000175C0D6E0E5018580E6EE86A0EBEFF0E28
:10057000176E186E0D501D5E0E501E5A17501F5AE2
:100580001850205A1D500501186F1E50196F1F502A
:100590001A6F20501B6F1C50800FF36E05011B510A
:1005A000800FF35C08E11A511B5C05E119511A5CDC
:1005B00002E11851195CD8B0EFD119500501186F3C
:1005C0001A50196F1B501A6F1C501B6FE5D11C502D
:1005D000800FF36E0650800FF35C08E105501B5C42
:1005E00005E104501A5C02E10350195CD8B0D4D183
:1005F0001350035C0D6E145004580E6E15500558C0
:10060000176E16500658186E0D500501186F0E50D3
:10061000196F17501A6F18501B6FBED11CC50DF003
:100620001DC50EF0E86A05011DBFFF0E176E186E9E
:1006300013500D2614500E22155017221650182252
:100640000D50035C0D6E0E5004580E6E1750055879
:10065000176E18500658186E0D500501186F0E5081
:10066000196F17501A6F18501B6F96D10A1E096C1C
:10067000D8B40A2A09C00DF00AC00EF0E86A0ABE12
:10068000FF0E176E186E1250800FF36E1850800F09
:10069000F35C08E11750115C05E10E50105C02E1BB
:1006A0000D500F5CD8B055D11C1C186E1B1C176E5A
:1006B0001A1C0E6E191C0D6E0D2A04E10E2A02E1A1
:1006C000174A182A1850800FF36E0650800FF35CFB
:1006D00008E10550175C05E104500E5C02E103508F
:1006E0000D5CD8B00FD11CC519F01DC51AF0E86A11
:1006F00005011DBFFF0E1B6E1C6E1950035C196EA9
:100700001A5004581A6E1B5005581B6E1C50065880
:100710001C6E19500501186F1A50196F1B501A6F73
:100720001C501B6F1EC519F01FC51AF01CC51BF00D
:100730001DC51CF01A50800FF36E1C50800FF35C27
:1007400002E11B50195CD8B0C1D018C51DF019C505
:100750001EF01AC51FF01BC520F0D8901F30226E66
:100760001E30216ED89022322132D890223221328E
:100770002050E838E844E00B22122038E8441F0BF0
:10078000E8B8E009236E246A23BE2468241E231ED1
:10079000221E216C05E1222A03E1232AD8B4242A4F
:1007A00021500B6E22500C6ED8901F30226E1E30DE
:1007B000216ED890223221322050E840E840C00B10
:1007C00022122040E8403F0B221E216C02E1222A27
:1007D00000E12150076E2250086EE86A0CBEFF0E41
:1007E000216E226EE86A08BEFF0E236EE56E23506E
:1007F000E56E0850E56E0750E56E2250E56E21501B
:10080000E56E0C50E56E0B50E56E9CEC1DF0076E2E
:10081000F3CF08F0F4CF0BF0E9CF0CF0080EE1268F
:1008200019C021F01AC022F0E86A1ABEFF0E236E2A
:10083000E56E2350E56E2250E56E2150E56E0C50BA
:10084000E56E0B50E56E0850E56E0750E56E86ECE0
:1008500020F0076EF3CF08F0080EE126081E076CA3
:1008600002E1082A00E10750096E08500A6EE86AA2
:100870000ABEFF0E076E800FF36E1250800FF35CFE
:1008800008E11150075C05E110500A5C02E10F50CD
:10089000095C1CE219501B5C196E1A501C581A6E28
:1008A000E86A1ABEFF0E076E086E19501D261A5010
:1008B0001E2207501F22085020221D500501186FCC
:1008C0001E50196F1F501A6F20501B6F05011B51CE
:1008D000800FF36E1850800FF35C08E117501A5D1B
:1008E00005E10E50195D02E10D50185DD8B054D0ED
:1008F0000D500501186F0E50196F17501A6F1850D0
:100900001B6F4AD00650800FF36E1850800FF35CB7
:1009100008E11750055C05E10E50045C02E10D5042
:10092000035CD8B039D013500324076E1450042050
:10093000086E15500520096E165006200A6E0750E5
:100940000501186F0850196F09501A6F0A501B6F74
:1009500023D01CC507F01DC508F0E86A05011DBFBE
:10096000FF0E096E0A6E0750132608501422095014
:1009700015220A5016221350032614500422155033
:1009800005221650062203500501186F0450196FF6
:1009900005501A6F06501B6FD89005011A31046E6E
:1009A0001931036ED890043203321B51E840E840FD
:1009B000C00B04121B41E8403F0BE8BAC009056EAA
:1009C000066A05BE0668125103261351042214510B
:1009D0000522155106220350126F0450136F055063
:1009E000146F0650156FE56A100EE56E800EE56E09
:1009F000050EE56E100EE56E0250E56E0150E56ED7
:100A00000050E56E31EC28F0080EE126E4CF27F027
:100A1000E4CF26F0E4CF25F0E4CF24F0E4CF23F0B8
:100A2000E4CF22F0E4CF21F0E4CF20F0E4CF1FF0B8
:100A3000E4CF1EF0E4CF1DF0E4CF1CF0E4CF1BF0B8
:100A4000E4CF1AF0E4CF19F0E4CF18F0E4CF17F0B8
:100A5000E4CF16F0E4CF15F0E4CF14F0E4CF13F0B8
:100A6000E4CF12F0E4CF11F0E4CF10F0E4CF0FF0B8
:100A7000E4CF0EF0E4CF0DF0E4CF0CF0E4CF0BF0B8
:100A8000E4CF0AF0E4CF09F0E4CF08F0E4CF07F0B8
:100A9000E4CF06F0E4CF05F0E4CF04F0E4CF03F0B8
:100AA000E4CF02F0E4CF01F0E4CF00F0E4CFD9FFCF
:100AB0001200D9CFE5FFE1CFD9FF00C0E5FF01C0AB
:100AC000E5FF02C0E5FF03C0E5FF04C0E5FF05C088
:100AD000E5FF06C0E5FF07C0E5FF08C0E5FF09C068
:100AE000E5FF0AC0E5FF0BC0E5FF0CC0E5FF0DC048
:100AF000E5FF0EC0E5FF0FC0E5FF10C0E5FF11C028
:100B0000E5FF12C0E5FF13C0E5FF14C0E5FF15C007
:100B1000E5FF16C0E5FF17C0E5FF18C0E5FF19C0E7
:100B2000E5FF1AC0E5FF1BC0E5FF1CC0E5FF1DC0C7
:100B3000E5FF1EC0E5FF020EDBCF00F0030EDBCFAA
:100B400001F0040EDBCF02F0050EDBCF03F0060E42
:100B5000DBCF04F0070EDBCF05F0080EDBCF06F08D
:100B6000090EDBCF07F00A0EDBCF08F0096A0A6A2C
:100B700002C00DF00D50800A0DE102500501656FB5
:100B80000150646F0050636F050E016E630E006EBE
:100B9000800E026E03C0E9FF04C0F3FF055072EC43
:100BA00036F00B6E0B50D8B40FEF09F00B50250A3E
:100BB00002E0F6EF08F00C6A0D6A0E6A0F6A106A1E
:100BC0000A0E116E126A136A146A200E156E1668E8
:100BD000176A2B0E186E032A02E3044A052A03C083
:100BE000E9FF04C0F3FF055072EC36F0196E250AD8
:100BF00013E11950E56E0250E56E0150E56E0050AC
:100C0000E56E8BEC25F0040EE126094A0A2A032A38
:100C100002E3044A052ABED71950300A06E1300E15
:100C2000156E032A02E3044A052A03C0E9FF04C043
:100C3000F3FF055072EC36F02D0A06E1010E146E3A
:100C4000032A02E3044A052A03C0E9FF04C0F3FFB4
:100C5000055072EC36F0200A08E1010E176E200EE6
:100C6000186E032A02E3044A052A03C0E9FF04C000
:100C7000F3FF055072EC36F02B0A06E1010E176EF9
:100C8000032A02E3044A052A03C0E9FF04C0F3FF74
:100C9000055072EC36F0196E310E195C2BE33A0EEA
:100CA000195C28E203C019F004C01AF005C01BF05B
:100CB00019C0E9FF1AC0F3FF1B5072EC36F01C6E2E
:100CC000300E1C5C11E33A0E1C5C0EE213500A0D50
:100CD000F3CF1DF01C501D26D00E1D24136E192AB3
:100CE00002E31A4A1B2AE4D719C003F01AC004F021
:100CF0001BC005F003C0E9FF04C0F3FF055072EC10
:100D000036F02E0A2DE1032A02E3044A052A166A68
:100D100003C019F004C01AF005C01BF019C0E9FFA8
:100D20001AC0F3FF1B5072EC36F01C6E300E1C5CC8
:100D300011E33A0E1C5C0EE216500A0DF3CF1DF0C3
:100D40001C501D26D00E1D24166E192A02E31A4AC5
:100D50001B2AE4D719C003F01AC004F01BC005F029
:100D600003C0E9FF04C0F3FF055072EC36F0196EC2
:100D70006C0A07E1010E0C6E032A02E3044A052AFD
:100D800009D01950680A06E1010E0E6E032A02E32B
:100D9000044A052A03C0E9FF04C0F3FF055072ECC2
:100DA00036F0750A06E1010E106E032A02E3044ACA
:100DB000052A03C0E9FF04C0F3FF055072EC36F0CA
:100DC000196E730A05E1010E0D6E200E156E3FD0EF
:100DD0001950780A03E1100E116E39D01950580AD3
:100DE00005E1100E116E010E126E31D01950630A1A
:100DF00002E1116A2CD019506F0A03E1080E116E3E
:100E000026D01950660A03E1010E0F6E20D019504A
:100E1000640A1DE01950690A1AE0105005E0FF0E3F
:100E200003260422052213D01950E56E0250E56E08
:100E30000150E56E0050E56E8BEC25F0040EE126C6
:100E4000094A0A2A032A02E3044A052AA3D60D50B6
:100E500021E00650030F0D6E000E0720196E000EE4
:100E600008201A6E0DC006F019C007F01AC008F06D
:100E7000FD0E0D26FF0E19221A220DC0E9FF19C022
:100E8000F3FF1A5024EC35F00D6EF3CF19F0F4CFC8
:100E90001AF0FDD00F500DE0000E1A6E120E196EF2
:100EA000A60E0D6E040E0626000E072208221668F6
:100EB000EED016680C5023E00650040F0C6E000EA6
:100EC00007200F6E000E08201B6E0CC006F00FC02E
:100ED00007F01BC008F0FC0E0C26FF0E0F221B2291
:100EE0000CC0E9FF0FC0F3FF1B50AAEC34F00C6EEE
:100EF000F3CF0FF0F4CF1BF0E9CF1CF067D00E500A
:100F00002FE00650020F0E6E000E07201D6E000E21
:100F100008201E6E0EC006F01DC007F01EC008F0AF
:100F2000FE0E0E26FF0E1D221E220EC0E9FF1DC062
:100F3000F3FF1E50FCEC35F00E6E0EC00CF00F6A85
:100F40001B6A1C6A11500A0A03E11050D8B43ED043
:100F50000C500E6E0EC00CF00F6A1B6A1C6A36D065
:100F60000650020F0E6E000E07201D6E000E0820A8
:100F70001E6E0EC006F01DC007F01EC008F0FE0E6B
:100F80000E26FF0E1D221E220EC0E9FF1DC0F3FF1C
:100F90001E50FCEC35F00E6EF3CF1DF00EC00CF0C1
:100FA0001DC00FF0E86A1DBEFF0E1B6E1C6E1150B7
:100FB0000A0A02E110500AE00C500E6E0F501D6E2E
:100FC0000EC00CF01DC00FF01B6A1C6A050E196ED6
:100FD0003B0E0D6E800E1A6E1150D8B440D01050DA
:100FE00013E01150E56E050EE56E3B0EE56E1C50EC
:100FF000E56E1B50E56E0F50E56E0C50E56EAAECE9
:101000001FF0070EE12612D01150E56E050EE56EB9
:101010003B0EE56E1C50E56E1B50E56E0F50E56E05
:101020000C50E56E8CEC2CF0070EE12617502FE0EB
:101030000DC0E9FF19C0F3FF1A5072EC36F02D0A0B
:1010400026E0FF0E0D2619221A2218C0E5FF0DC05A
:10105000E9FF19C0F3FF1A5004EC37F018D00CC0A8
:10106000E5FF0DC0E9FF19C0F3FF1A5004EC37F09B
:101070000D50010F0C6E000E19200E6E000E1A207E
:10108000E56A0CC0E9FF0EC0F3FF04EC37F00DC0B9
:101090000CF019C00EF01AC00FF013C010F0105071
:1010A00010E00CC0E9FF0EC0F3FF0F5072EC36F0F9
:1010B000176E175006E00C2A02E30E4A0F2A10069C
:1010C000EED710C013F014501EE109C00CF00AC096
:1010D0000EF010C00FF00F5010E01550E56E0250EA
:1010E000E56E0150E56E0050E56E8BEC25F0040EC8
:1010F000E1260C4A0E2A0F06EED70CC009F00EC0EE
:101100000AF00FC013F016C00CF00DC00DF019C09E
:101110000EF01AC00FF009C010F00AC015F00DC093
:10112000E9FF0EC0F3FF0F5072EC36F0166E16504A
:10113000D8B43ED00CC016F0176A161E171E1650F3
:10114000171005E00CC016F00C06165031E00DC06B
:10115000E9FF0EC0F3FF0F5072EC36F0116E125023
:1011600010E01150E56EB9EC35F0166EE6521650EF
:1011700004E0DF0E1114166E02D011C016F016C076
:1011800011F01150E56E0250E56E0150E56E005011
:10119000E56E8BEC25F0040EE1260D2A02E30E4AE3
:1011A0000F2A104A152A1350D8B4B9D71306B7D747
:1011B00010C009F015C00AF014502BE010C00CF05C
:1011C00015C00DF013C00EF00E501FE0200EE56E9E
:1011D0000250E56E0150E56E0050E56E8BEC25F097
:1011E000040EE1260C4A0D2A0E06EED70B50E56ED2
:1011F0000250E56E0150E56E0050E56E8BEC25F077
:10120000040EE126094A0A2A04D00CC009F00DC0D8
:101210000AF0032A02E3044A052ACAEF05F00AC0CD
:10122000F3FF0950E4CF1EF0E4CF1DF0E4CF1CF033
:10123000E4CF1BF0E4CF1AF0E4CF19F0E4CF18F0BC
:10124000E4CF17F0E4CF16F0E4CF15F0E4CF14F0BC
:10125000E4CF13F0E4CF12F0E4CF11F0E4CF10F0BC
:10126000E4CF0FF0E4CF0EF0E4CF0DF0E4CF0CF0BC
:10127000E4CF0BF0E4CF0AF0E4CF09F0E4CF08F0BC
:10128000E4CF07F0E4CF06F0E4CF05F0E4CF04F0BC
:10129000E4CF03F0E4CF02F0E4CF01F0E4CF00F0BC
:1012A000E4CFD9FF12003C4E4F20464C4F41543EF4
:1012B0000000D9CFE5FFE1CFD9FF00C0E5FF01C0B5
:1012C000E5FF02C0E5FF03C0E5FF04C0E5FF05C080
:1012D000E5FF06C0E5FF07C0E5FF08C0E5FF09C060
:1012E000E5FF0AC0E5FF0BC0E5FF0CC0E5FF0DC040
:1012F000E5FF020EDBCF00F0030EDBCF01F0040EA2
:10130000DBCF02F00050090F066E000E0120076EC1
:10131000000E0220086E0B6E07500A6E0650096E12
:10132000E56A0D0EE56E0B50E56E0A50E56E09504C
:10133000E56E800EE56E050EE56E200EE56E31EC75
:1013400028F0080EE12600C009F001C00AF002C032
:101350000BF0E56AE56E0B50E56E0A50E56E09503C
:10136000E56E800EE56E040EE56E810EE56E31ECE5
:1013700028F0080EE12681C403F00350010A04E0BE
:101380000350030A01E019D105013551036E3651AE
:10139000046E05012851056E2951096E0550035C44
:1013A0000501726F09500458736F0501355105012D
:1013B000286F050136510501296F050137510501D7
:1013C0002A6F0501385105012B6F05017251731108
:1013D000D8A47FD097EC33F0036EF3CF04F0F4CFB2
:1013E00005F0E9CF09F005012D510A6E2E510B6E63
:1013F0002F510C6E30510D6E0A50035E0B50045A83
:101400000C50055A0D50095A03500401F86F04504E
:10141000F96F0550FA6F7F0E0914FB6F05012CB1AF
:1014200025D00401F935FB31046EFA31036E043422
:1014300004320332000E04BEFF0E096E056E86C430
:101440000AF00B6A0C6A0D6A0D50800FF36E09509A
:10145000800FF35C08E105500C5C05E104500B5C67
:1014600002E103500A5C02E205012C8105012CB166
:101470004AD024C503F025C504F026C505F027C5CC
:1014800009F00401FB51800FF36E0950800FF35CEB
:1014900008E10550FA5D05E10450F95D02E10350F1
:1014A000F85D08E203C0F8F404C0F9F405C0FAF4EA
:1014B00009C0FBF4050139A303D0010E036E01D06E
:1014C000036803C072F50501736B03AE01D0736945
:1014D0001AD005012C9131C5F8F432C5F9F433C5A1
:1014E000FAF434C5FBF40401F8510501246F04013A
:1014F000F9510501256F0401FA510501266F040118
:10150000FB510501276F0401FB51800F800F08E19B
:10151000000EFA5D05E1000EF95D02E1010EF85DD5
:1015200006E20401FC6BFD6BFE6BFF6B46D0040111
:10153000F851036EF951046EFA51056EFB51E56ED8
:101540000550E56E0450E56E0350E56E010EE56E44
:10155000000EE56AE56AE56A54EC23F0036EF3CF0A
:1015600004F0F4CF05F0E9CF09F0080EE12672C5CA
:101570000AF073C50BF0E86A050173BFFF0E0C6E2D
:101580000D6E0950E56E0550E56E0450E56E035092
:10159000E56E0D50E56E0C50E56E0B50E56E0A5091
:1015A000E56E9CEC1DF00401FC6FF3CFFDF4F4CF6D
:1015B000FEF4E9CFFFF4080EE126020E0401815D7E
:1015C000D8A049D1050139A146D139A511D0005083
:1015D000230F036E000E0120046E000E0220E56E44
:1015E0000450E56E0350E56E12EC2FF0030EE12679
:1015F0000050230F036E000E0120046E000E022027
:10160000E56E0450E56E0350E56E0EEC00F0030E3F
:10161000E1260050230F036E000E0120046E000E21
:101620000220056E020E0326000E0422052203C0CE
:10163000E9FF04C0F3FF0550AAEC34F0F3CF04F047
:10164000F4CF05F0E9CF09F00450036E0550046EA5
:101650000950056E096A05BE096805013551035C2C
:101660000301F56F0501365104580301F66F0501BA
:10167000375105580301F76F050138510958030127
:10168000F86FD880F8AFD89022E30401831D046E70
:10169000821D036E034A042AE86A04BEFF0E056E2B
:1016A000096E0301F851800FF36E0950800FF35C4F
:1016B00008E10550F75D05E10450F65D02E10350D5
:1016C000F55D05E30301F56BF66BF76BF86B030152
:1016D000F851800F800F08E1000EF75D05E1000E64
:1016E000F65D02E1010EF55D1EE382C403F083C4E2
:1016F00004F0E86A040183BFFF0E056E800FF36EED
:101700000301F851800FF35C08E1F751055C05E136
:10171000F651045C02E1F551035C05E30301F56B4E
:10172000F66BF76BF86B0401875109E0E86CD89011
:101730000301F537F637F737F837010FF9E30301FF
:10174000F851800F800F08E1000EF75D05E1800E73
:10175000F65D02E1000EF55D07E30301F5697F0E1A
:10176000F66FF76BF86B14D00301F851800F810FFF
:1017700008E1FF0EF75D05E1800EF65D02E1000E67
:10178000F55D06E20301F56B800EF66FF769F86907
:101790000050330F036E000E0120046E000E022075
:1017A000056E0301F551096EF651E56E0950E56EBF
:1017B0000550E56E0450E56E0350E56ED0EC13F075
:1017C000050EE12604018151030A23E10050330F85
:1017D000036E000E0120046E000E0220056E0B0E3B
:1017E0000326000E0422052203C0E9FF04C0F3FF14
:1017F0000550AAEC34F0F3CF04F0F4CF05F0045018
:10180000036E0550046E03500501206F0450216FD4
:1018100022D00050330F036E000E0120046E000E24
:101820000220056E0B0E0326000E0422052203C0C3
:10183000E9FF04C0F3FF0550AAEC34F0F3CF04F045
:10184000F4CF05F00450036E0550046E03500501FB
:10185000226F0450236F81C403F00350010A04E097
:101860000350030A01E07DD020C503F021C504F038
:10187000E86A050121BFFF0E056E096E0401FC51E7
:10188000035C0301F56F0401FD5104580301F66F79
:101890000401FE5105580301F76F0401FF51095877
:1018A0000301F86F800F800F08E1000EF75D05E17E
:1018B000800EF65D02E1000EF55D07E30301F569B8
:1018C0007F0EF66FF76BF86B14D00301F851800FA1
:1018D000810F08E1FF0EF75D05E1800EF65D02E184
:1018E000000EF55D06E20301F56B800EF66FF769F9
:1018F000F8690050440F036E000E0120046E000EC4
:101900000220056E0301F551096EF651E56E09508E
:10191000E56E0550E56E0450E56E0350E56ED0ECC3
:1019200013F0050EE126440E0026000E01220222CD
:101930000B0E0026000E0122022200C0E9FF01C0AA
:10194000F3FF0250AAEC34F0F3CF01F0F4CF02F031
:101950000150006E0250016E00500501226F0150CF
:10196000236F0850086EE56A0D0EE56E800EE56E79
:10197000050EE56E200EE56E0850E56E0750E56E2B
:101980000650E56E31EC28F0080EE126E4CF0DF0AC
:10199000E4CF0CF0E4CF0BF0E4CF0AF0E4CF09F091
:1019A000E4CF08F0E4CF07F0E4CF06F0E4CF05F091
:1019B000E4CF04F0E4CF03F0E4CF02F0E4CF01F091
:1019C000E4CF00F0E4CFD9FF120025642025640A9B
:1019D0000000D9CFE5FFE1CFD9FF00C0E5FF01C08E
:1019E000E5FF02C0E5FF03C0E5FF04C0E5FF05C059
:1019F000E5FF06C0E5FF07C0E5FF08C0E5FF09C039
:101A0000E5FF0AC0E5FF0BC0E5FF0CC0E5FF020ED5
:101A1000DBCF00F0030EDBCF01F0040EDBCF02F0D2
:101A2000036A046AC1EC33F0056EFE0A01E077D068
:101A300065EC2FF0C1EC33F0066E030E065CD8A007
:101A40005AD0060E065CD8B056D0FD0E0624076E9E
:101A5000FA6AFB6A0734FA36E834FA36FC0B6E0F82
:101A6000E56E1A0EFA22000EFB22E450F96E3DEFED
:101A70000DF04FEF0DF068EF0DF00050090F076EFD
:101A8000000E0120086E000E022007C0E9FF08C00A
:101A9000F3FFFCEC35F0036EF3CF04F02CD00050D4
:101AA000090F076E000E0120086E000E0220096E5D
:101AB000020E0726000E0822092207C0E9FF08C00F
:101AC000F3FF0950FCEC35F0036EF3CF04F013D0B4
:101AD0000050070F076E000E0120086E000E022056
:101AE00007C0E9FF08C0F3FF72EC36F0010B076E88
:101AF00007C003F0046A06C007F00450E56E035007
:101B0000E56EE56A0750E56E000EE56E190EE56EAE
:101B1000CA0EE56E5FEC31F0070EE1269AD1080E91
:101B2000055CD8B096D1FA6AFB6A0534FA36E83417
:101B3000FA36FC0B440FE56E1B0EFA22000EFB2258
:101B4000E450F96EB2EF0DF0CDEF0DF0DFEF0DF0D8
:101B5000F1EF0DF023EF0EF059EF0EF078EF0EF0ED
:101B6000D5EF0EF00050230F056E000E0120076E1A
:101B7000000E0220E56E0750E56E0550E56E27EC7D
:101B800018F0030EE126020EE56E00C0E9FF01C069
:101B9000F3FF025004EC37F05CD10050330F056EB8
:101BA000000E0120076E000E0220E56E0750E56E64
:101BB0000550E56E5EEC1CF0030EE1264AD10050A4
:101BC000440F056E000E0120076E000E0220E56E28
:101BD0000750E56E0550E56E5EEC1CF0030EE12645
:101BE00038D10050090F056E000E0120076E000E5F
:101BF0000220086EC1EC33F00C6E0B6AE56A0CC073
:101C0000F4FF05C0E9FF07C0F3FF0850CBEC36F046
:101C1000C1EC33F00A6A0B260A500C220BC0E5FF18
:101C20000CC0F4FF05C0E9FF07C0F3FF0850CBEC80
:101C300036F0010EE56E00C0E9FF01C0F3FF02506F
:101C400004EC37F006D10050090F056E000E01209C
:101C5000076E000E0220086E020E0526000E0722F7
:101C60000822C1EC33F00C6E0B6AE56A0CC0F4FF7D
:101C700005C0E9FF07C0F3FF0850CBEC36F0C1EC1C
:101C800033F00A6A0B260A500C220BC0E5FF0CC089
:101C9000F4FF05C0E9FF07C0F3FF0850CBEC36F0B6
:101CA000E56A00C0E9FF01C0F3FF025004EC37F021
:101CB000D0D00050070F056E000E0120076E000EF9
:101CC0000220086EC1EC33F0010BF46E05C0E9FF91
:101CD00007C0F3FF085072EC36F0FE0BF410E56E0F
:101CE00005C0E9FF07C0F3FF085004EC37F0B1D09E
:101CF000C1EC33F0066E0050160F056E000E012089
:101D0000076E000E0220086E05500C0F096E000EC3
:101D100007200A6E000E08200B6E0650D880E86679
:101D2000D8900C6A0C360C50D880E866D8900C6AB3
:101D30000C360C50010BF46E09C0E9FF0AC0F3FF2A
:101D40000B5072EC36F0FE0BF410E56E09C0E9FFA3
:101D50000AC0F3FF0B5004EC37F00650010A01E013
:101D600078D0080E0526000E07220822E56AF46ADC
:101D7000F66AF76A05C0E9FF07C0F3FF085061EC97
:101D800036F00050230F056E000E0120066E000E87
:101D90000220E56AE56AE56E0650E56E0550E56EDF
:101DA000FEEC24F0050EE12654D0C1EC33F0046EB5
:101DB000036AC1EC33F0066A032606500422005081
:101DC000160F056E000E0120066E000E0220076E33
:101DD00005500C0F086E000E0620096E000E07203D
:101DE0000A6E08C0E9FF09C0F3FF72EC36F0E88024
:101DF000E56E08C0E9FF09C0F3FF0A5004EC37F0B4
:101E0000080E0526000E0622072203C008F004C0B3
:101E100009F008C0E5FF09C0F4FFF66AF76A05C0DB
:101E2000E9FF06C0F3FF075061EC36F0230E0026F1
:101E3000000E012202220450E56E0350E56E0250AE
:101E4000E56E0150E56E0050E56EF1EC2AF0050EEE
:101E5000E126E4CF0CF0E4CF0BF0E4CF0AF0E4CFBE
:101E600009F0E4CF08F0E4CF07F0E4CF06F0E4CFC8
:101E700005F0E4CF04F0E4CF03F0E4CF02F0E4CFC8
:101E800001F0E4CF00F0E4CFD9FF120000C0E5FF7D
:101E900001C0E5FF02C0E5FF03C0E5FF04C0E5FFA8
:101EA00005C0E5FF06C0E5FF07C0E5FF08C0E5FF88
:101EB00009C0E5FF0AC0E5FF0BC0E5FF0CC0E5FF68
:101EC000006A016A026A040E025CD8B0E8D101C05F
:101ED00003F0012A100E035CD8B0E1D10401222BDB
:101EE000100E225D01E3226B04012239E8441F0B2E
:101EF000036E046A6E0E0326050E042203C0E9FF7A
:101F000004C0EAFFEFCF03F0070E2215046E010EA6
:101F1000056E000E066E045006E0E86CD89005369B
:101F20000636010FFCE3076A035005160750061634
:101F300005500610D880E866D890056A0536055029
:101F4000D8A4C1D704012251020DF450046EF3CF7E
:101F500003F0E00E0324056E000E0420066E05C09B
:101F6000E9FF06C0EAFFEECF05F0EFCF06F004016F
:101F70001FA19DD0750E0324076E030E0420086E6A
:101F800007C0E9FF08C0EAFFEECF07F0EFCF08F087
:101F90000650800FF36E0850800FF35C02E107508B
:101FA000055C03E2056A066A60D0950E0326030EFF
:101FB000042203C0E9FF04C0EAFFEECF03F0EFCF35
:101FC00004F00450800FF36E0650800FF35C02E1C2
:101FD0000550035C04E205683F0E066E46D00750CC
:101FE000055C096E085006580A6EE86A0ABEFF0EC4
:101FF0000B6EE56E0B50E56E0A50E56E0950E56E0E
:10200000E56AE56A400EE56E000EE56A9CEC1DF09F
:10201000096EF3CF0AF0F4CF0BF0E9CF0CF0080E05
:10202000E1260750035C076E08500458086EE86A02
:1020300008BEFF0E036EE56E0350E56E0850E56EB8
:102040000750E56E0C50E56E0B50E56E0A50E56EDC
:102050000950E56E54EC23F0036EF3CF04F0080E44
:10206000E1260350056E0450066E04011E51800FD8
:10207000F36E0650800FF35C02E105501D5D03E333
:10208000056A066A14D004011D51FF08036E3F0E55
:102090001E55046E0650800FF36E0450800FF35CE3
:1020A00002E10350055C03E305683F0E066E040180
:1020B0002251020DF450046EF3CF03F0550E0326A7
:1020C000030E042203C0E9FF04C0EAFFEECF03F0D1
:1020D000EFCF04F00350055C036E04500658046E05
:1020E000D88004AED89004E3041E036CD8B4042A4C
:1020F000022A04011E51800FF36E0450800FF35C1E
:1021000002E103501D5DD8B0DED604012251020D5C
:10211000F450086EF3CF07F0550E0726030E082281
:1021200007C0E9FF08C0EAFF05C0EEFF06C0EFFFE9
:1021300004011FA55AD004012251020DF450086E6B
:10214000F3CF07F0B50E0724096E030E08200A6EC0
:1021500009C0E9FF0AC0EAFFEECF0BF0EFCF0CF0A9
:102160000B500C10D8B441D05C0E0726040E082288
:1021700007C0E9FF08C0EAFFEECF07F0EFCF08F095
:102180000750055C036E08500658046E03101CE0EF
:102190000450800F800F02E1010E035C076A0736CE
:1021A0000C50800F800F02E1010E0B5C0B6A0B36A6
:1021B00007500B1809E109C0E9FF0AC0EAFF03C094
:1021C000EEFF04C0EFFF7FD604012251020DF45050
:1021D000046EF3CF03F0B50E0326030E042203C0F2
:1021E000E9FF04C0EAFFEE6AEF6A04011FA343D0CF
:1021F00000500EE100C003F0002A046A230E0326FB
:10220000040E042203C0E9FF04C0EAFF420EEF6E91
:1022100000C003F0002A046A230E0326040E0422E1
:10222000640E04012225076E03C0E9FF04C0EAFF23
:1022300007C0EFFF00C003F0002A046A230E032644
:10224000040E04220650076E03C0E9FF04C0EAFF33
:1022500007C0EFFF00C003F0002A046A230E032624
:10226000040E04220550076E03C0E9FF04C0EAFF14
:1022700007C0EFFF28D622C403F00650E56E0550D4
:10228000E56EE56A0350E56E000EE56E500EE56EF4
:10229000560EE56E5FEC31F0070EE12614D602C053
:1022A00001F000501DE004011FA31AD000C002F08D
:1022B000002A036A230E0226040E032202C0E9FF4D
:1022C00003C0EAFF0A0EEF6E0050E56E800EE56E69
:1022D000040EE56E230EE56EB3EC28F0040EE12645
:1022E0000150E4CF0CF0E4CF0BF0E4CF0AF0E4CFE0
:1022F00009F0E4CF08F0E4CF07F0E4CF06F0E4CF34
:1023000005F0E4CF04F0E4CF03F0E4CF02F0E4CF33
:1023100001F0E4CF00F0120000C0E5FF01C0E5FFCE
:1023200002C0E5FF03C0E5FF05C0E5FF3CEC37F068
:1023300097EC33F0F3CF01F0F4CF02F0E9CF03F0E4
:10234000880F04017C6F130E01207D6F000E0220A8
:102350007E6F000E03207F6FAEEC27F08A98899C79
:102360008B84040189859398929C9494040192959E
:102370009382810E006E0F0E016E0F0E036E380EEB
:102380000026035001220F0E036E800E005E0350E4
:10239000015A810E026E0F0E036E0F0E056E380E7F
:1023A0000226055003220F0E056E800E025E0550B8
:1023B000035A02C0E9FF03C0EAFFEFCF02F0029226
:1023C00000C0E9FF01C0EAFF02C0EFFF948E820E59
:1023D000006E0F0E016E0F0E036E380E00260350B6
:1023E00001220F0E036E800E005E0350015A820E12
:1023F000026E0F0E036E0F0E056E380E022605508C
:1024000003220F0E056E800E025E0550035A02C0B5
:10241000E9FF03C0EAFFEFCF02F0029E00C0E9FF30
:1024200001C0EAFF02C0EFFF9380810E006E0F0E25
:10243000016E0F0E036E380E0026035001220F0EA0
:10244000036E800E005E0350015A810E026E0F0E65
:10245000036E0F0E056E380E0226055003220F0E76
:10246000056E800E025E0550035A02C0E9FF03C0EC
:10247000EAFFEFCF02F0029000C0E9FF01C0EAFFDF
:1024800002C0EFFF0C0EBD6EBD9ABD98BE6AB96A60
:10249000B9860401936B020E946F956B0A0E966FCA
:1024A000976B100E986F070E996F9A919A83800E12
:1024B000E56E040EE56EB60EE56E12EC2FF0030E1F
:1024C000E126800EE56E040EE56ED70EE56EC0ECDB
:1024D00022F0030EE126800EE56E040EE56EC60EB8
:1024E000E56EC0EC22F0030EE1260401B16BB26B85
:1024F000B36BB46BB591B5959C6B9D6B9E6B9F6BED
:10250000A46BA56BA66BA76B8A96899E8B80040132
:1025100089859396929E9490040192959283800E61
:10252000006E040E016E0F0E036E380E002603506F
:1025300001220F0E036E800E005E0350015A800EC2
:10254000026E040E036E0F0E056E380E0226055045
:1025500003220F0E056E800E025E0550035A02C064
:10256000E9FF03C0EAFFEFCF02F0029200C0E9FFEB
:1025700001C0EAFF02C0EFFF9283800E006E040EDE
:10258000016E0F0E036E380E0026035001220F0E4F
:10259000036E800E005E0350015A800E026E040E20
:1025A000036E0F0E056E380E0226055003220F0E25
:1025B000056E800E025E0550035A02C0E9FF03C09B
:1025C000EAFFEFCF02F0029200C0E9FF01C0EAFF8C
:1025D00002C0EFFF9283800E006E040E016E0F0E9C
:1025E000036E380E0026035001220F0E036E800E7C
:1025F000005E0350015A800E026E040E036E0F0E31
:10260000056E380E0226055003220F0E056E800E51
:10261000025E0550035A02C0E9FF03C0EAFFEFCF94
:1026200002F0029200C0E9FF01C0EAFF02C0EFFF22
:102630000C0E666E669A6698676A0301006B020E5E
:10264000016F026B0A0E036F046B100E056F070E0D
:10265000066F07910783800EE56E030EE56E230E6D
:10266000E56E12EC2FF0030EE126800EE56E030EF0
:10267000E56E440EE56EC0EC22F0030EE126800EFE
:10268000E56E030EE56E330EE56EC0EC22F0030E30
:10269000E12603011E6B1F6B206B216B229122959B
:1026A000096B0A6B0B6B0C6B116B126B136B146B5E
:1026B00004019281800E006E040E016E0F0E036EF7
:1026C000380E0026035001220F0E036E800E005EAE
:1026D0000350015A800E026E040E036E0F0E056E3B
:1026E000380E0226055003220F0E056E800E025E84
:1026F0000550035A02C0E9FF03C0EAFFEFCF02F022
:10270000029000C0E9FF01C0EAFF02C0EFFF93841E
:10271000810E006E0F0E016E0F0E036E380E002636
:10272000035001220F0E036E800E005E0350015A0B
:10273000810E026E0F0E036E0F0E056E380E02260E
:10274000055003220F0E056E800E025E0550035ADF
:1027500002C0E9FF03C0EAFFEFCF02F0029400C01D
:10276000E9FF01C0EAFF02C0EFFF04019A830A0EED
:10277000946F956B640E966F976B050E996F23ECB3
:1027800037F0330ECD6E9D809F80E4CF05F0E4CF0F
:1027900003F0E4CF02F0E4CF01F0E4CF00F0120048
:1027A000D9CFE5FFE1CFD9FF00C0E5FF01C0E5FFCC
:1027B00002C0E5FF03C0E5FF04C0E5FF05C0E5FF7B
:1027C00006C0E5FF07C0E5FF08C0E5FF09C0E5FF5B
:1027D0000AC0E5FF0BC0E5FF020EDBCF00F0030EE1
:1027E000DBCF01F0040EDBCF02F0050EDBCF03F0F0
:1027F000060EDBCF04F002500A6E0150096E005045
:10280000086EE56A110EE56E0A50E56E0950E56E38
:102810000850E56E800EE56E0F0EE56E230EE56E38
:1028200031EC28F0080EE12632CF05F033CF06F068
:10283000E86A0F0133BFFF0E076E05014A6F0650AD
:10284000496F0550486F476B03C005F004C006F0A0
:10285000E86A04BEFF0E076E086E23CF09F0E56A32
:10286000E56AE56A0950E56E0850E56E0750E56EC9
:102870000650E56E0550E56E9CEC1DF00301F96F06
:10288000F3CFFAF3F4CFFBF3E9CFFCF3080EE12624
:102890000F012451D8B4AFD00450800F800F02E153
:1028A000010E035C25E30F012951800F7C0F08E125
:1028B000000E285D05E1000E275D02E1000E265D99
:1028C00017E20F013151800FF36E05014A51800F5D
:1028D000F35C0DE149510F01305D09E105014851FB
:1028E0000F012F5D04E1050147510F012E5D33E318
:1028F000D88004AED890D8A043D00F012951800FC2
:10290000840F08E1000E285D05E1000E275D02E15D
:10291000010E265D35E305014A1D0A6E491D096E4B
:10292000481D046E471D036E032A04E1042A02E1D8
:10293000094A0A2A0A50800FF36E0F013151800FA5
:10294000F35C08E13051095C05E12F51045C02E1C0
:102950002E51035C15E205500F012625036E06502B
:102960002721046E07502821096E085029210A6E7C
:102970000350266F0450276F0950286F0A50296FA3
:102980000F0126390F0B036E2739046EF00B041A62
:1029900003262851E838F00B041228390F0B096E72
:1029A00029390A6EF00B0A1A0926F00E0AB60A2611
:1029B00024CF0BF0E56AE56AE56A0B50E56E0A5034
:1029C000E56E0950E56E0450E56E0350E56E9CEC33
:1029D0001DF0036EF3CF04F0F4CF09F0E9CF0AF055
:1029E000080EE12603500301F9270450FA23095089
:1029F000FB230A50FC230F012551D8B465D02A517E
:102A0000055C05014B6F0F012B51065805014C6FFA
:102A10000F012C51075805014D6F0F012D5108581A
:102A200005014E6F800F800F08E1010E4D5D05E13D
:102A3000000E4C5D02E1000E4B5D06E305014B69A3
:102A40004C694D6B4E6B13D005014E51800F810FB9
:102A500008E1FF0E4D5D05E1000E4C5D02E1000E48
:102A60004B5D05E205014B6B4C6B4D694E690501F1
:102A70004B514B25036E4C35046E4D35096E4E356A
:102A80000A6E25CF0BF0E56AE56AE56A0B50E56E44
:102A90000A50E56E0950E56E0450E56E0350E56E90
:102AA0009CEC1DF0036EF3CF04F0F4CF09F0E9CFF6
:102AB0000AF0080EE12603500301F9270450FA2317
:102AC0000950FB230A50FC2305500F012A6F0650C2
:102AD0002B6F07502C6F08502D6F05014A51800F46
:102AE000F36E0301FC51800FF35C0DE1FB51050116
:102AF000495D09E10301FA510501485D04E1030163
:102B0000F9510501475D11E2050147510F012E6F93
:102B1000050148510F012F6F050149510F01306F19
:102B200005014A510F01316F3AD005014A1D066E69
:102B3000491D056E481D046E471D036E032A04E1FE
:102B4000042A02E1054A062A0301FC51800FF36EB4
:102B50000650800FF35C08E10550FB5D05E1045071
:102B6000FA5D02E10350F95D0AE203500F012E6F96
:102B700004502F6F0550306F0650316F10D0030195
:102B8000F9510F012E6F0301FA510F012F6F03014D
:102B9000FB510F01306F0301FC510F01316FE56AEA
:102BA000110EE56E800EE56E0F0EE56E230EE56EDE
:102BB0000250E56E0150E56E0050E56E31EC28F0F4
:102BC000080EE126E4CF0BF0E4CF0AF0E4CF09F0E1
:102BD000E4CF08F0E4CF07F0E4CF06F0E4CF05F04F
:102BE000E4CF04F0E4CF03F0E4CF02F0E4CF01F04F
:102BF000E4CF00F0E4CFD9FF120000C0E5FF01C030
:102C0000E5FF02C0E5FF03C0E5FF04C0E5FF05C026
:102C1000E5FF06C0E5FF07C0E5FF08C0E5FF09C006
:102C2000E5FF0AC0E5FFC2A204D00401205110EF65
:102C300018F004012151D8B41BD104012051020D18
:102C4000F450016EF3CF00F0E00E0026000E0122DA
:102C500000C0E9FF01C0EAFFEECF00F0EFCF01F0C6
:102C6000E80E2025026E036A040E032202C0E9FF6B
:102C700003C0EAFFEFCF02F00250FF0A01E152D099
:102C800002380F0B036E920E0324046E056A0F0EBA
:102C90000522066A920E03260F0E062203C0E9FFE4
:102CA00006C0EAFFEFCF03F0070E0214066E010E16
:102CB000076E065005E0E86CD8900736010FFDE37B
:102CC000071C066E031604C0E9FF05C0EAFF03C037
:102CD000EFFF02380F0B036E890E0324046E056AA2
:102CE0000F0E0522066A890E03260F0E062203C068
:102CF000E9FF06C0EAFFEFCF03F0070E0214066EED
:102D0000010E076E065005E0E86CD8900736010FFB
:102D1000FDE3071C066E031604C0E9FF05C0EAFFC9
:102D200003C0EFFF04012051020DF450046EF3CFF5
:102D300003F0E00E0326000E042201340130066E7B
:102D40000030056E0634063205320634063205328E
:102D50000550005C056E06500158066EC3CF07F0A3
:102D6000086A0750052608500622C4CF07F0086AF3
:102D700007500A6E096A095005260A50062203C048
:102D8000E9FF04C0EAFF05C0EEFF06C0EFFF040143
:102D90001C51010A01E06AD004012051020DF450D7
:102DA000046EF3CF03F0E00E0324056E000E042042
:102DB000066E05C0E9FF06C0EAFFEECF00F0EFCFD8
:102DC00001F0750E0326030E042203C0E9FF04C0C0
:102DD000EAFFEECF05F0EFCF06F09C0E0526D8A057
:102DE00006060150800FF36E0650800FF35C02E17F
:102DF0000550005C0EE20050640F056E000E0120CD
:102E0000066E03C0E9FF04C0EAFF05C0EEFF06C07E
:102E1000EFFF04012051020DF450046EF3CF03F0D4
:102E2000950E0326030E042203C0E9FF04C0EAFF47
:102E3000EECF05F0EFCF06F0640E0526D8B0062AD7
:102E40000650800FF36E0150800FF35C02E10050DA
:102E5000055C0CE29C0E0026D8A0010603C0E9FF29
:102E600004C0EAFF00C0EEFF01C0EFFF0401216BC8
:102E70000401202B100E205D01E3206B040120399A
:102E8000E8441F0B006E016A6E0E0026050E01223B
:102E900000C0E9FF01C0EAFFEFCF00F0070E2015E8
:102EA000016E010E036E000E046E015006E0E86C28
:102EB000D89003360436010FFCE3056A0050031670
:102EC0000550041603500410D880E866D890036AB1
:102ED00003360350D8A4A2D0000E04012025006EB2
:102EE000016A050E012200C0E9FF01C0EAFFEFCF31
:102EF00000F00044E844FC0B016E0128C26EE80EAD
:102F00002025006E016A040E012200C0E9FF01C005
:102F1000EAFFEFCF02F00250FF0A01E17BD0023856
:102F20000F0B006E920E0024016E036A0F0E032237
:102F3000046A920E00260F0E042200C0E9FF04C0AE
:102F4000EAFFEFCF00F0070E0214046E010E056ECB
:102F5000045005E0E86CD8900536010FFDE30550FC
:102F6000001201C0E9FF03C0EAFF00C0EFFF380E06
:102F7000006E0F0E016E02380F0B036E046A0350D1
:102F8000002604500122380E056E0F0E066E055005
:102F900003260650042203C0E9FF04C0EAFFEFCF76
:102FA00003F0070E0216010E046E025005E0E86CF5
:102FB000D8900436010FFDE30450031200C0E9FF6E
:102FC00001C0EAFF03C0EFFF0F01458300000000CE
:102FD00045930F0144930BC0E5FFF2CF0BF0F29E37
:102FE000448100000000000000000000000000001C
:102FF00000000000000000000000000000000000D1
:103000000000000000000000000044910BBEF28EA2
:10301000E4CF0BF0C282010E0401216F04012051A4
:10302000E4CF0AF0E4CF09F0E4CF08F0E4CF07F0F2
:10303000E4CF06F0E4CF05F0E4CF04F0E4CF03F0F2
:10304000E4CF02F0E4CF01F0E4CF00F01200D9CFDA
:10305000E5FFE1CFD9FF00C0E5FF01C0E5FF02C0F9
:10306000E5FF03C0E5FF04C0E5FF05C0E5FF06C0BE
:10307000E5FF07C0E5FF08C0E5FF09C0E5FF0AC09E
:10308000E5FF0BC0E5FF020EDBCF00F0030EDBCF48
:1030900001F0040EDBCF02F0036A046AC1EC33F0E6
:1030A000056EFE0A01E094D065EC2FF0C1EC33F020
:1030B000066E06500EE00650010A1DE00650020A98
:1030C0002CE006500A0A3BE006500B0A01E142D010
:1030D0006DD00050060F076E000E0120086E000E26
:1030E000022007C0E9FF08C0F3FFFCEC35F0036ED7
:1030F000F3CF04F05BD000500C0F076E000E0120E0
:10310000086E000E022007C0E9FF08C0F3FFFCECC8
:1031100035F0036EF3CF04F049D000500E0F076E68
:10312000000E0120086E000E022007C0E9FF08C053
:10313000F3FFFCEC35F0036EF3CF04F037D000C0A2
:10314000E9FF01C0F3FF0250FCEC35F0036EF3CF52
:1031500004F02CD00050020F076E000E0120086E04
:10316000000E0220096E07C0E9FF08C0F3FF0950F6
:10317000AAEC34F0F3CF08F0F4CF09F0E9CF0AF06D
:103180000850076E0950086ED89008320732D89060
:10319000083207320A50E840E840C00B08120A40E3
:1031A000E8403F0B0750036E0850046E0450E56E74
:1031B0000350E56EE56A0650E56E000EE56E5E0EA4
:1031C000E56EC20EE56E5FEC31F0070EE126DBD056
:1031D000055014E00550010A3AE00550020A01E1E9
:1031E0005FD005500A0A01E184D005500B0A01E1C5
:1031F00099D005500C0A01E1AED0C5D00050060FA1
:10320000056E000E0120066E000E0220076EC1EC56
:1032100033F00B6E0A6AE56A0BC0F4FF05C0E9FFE4
:1032200006C0F3FF0750CBEC36F0C1EC33F0096A6F
:103230000A2609500B220AC0E5FF0BC0F4FF05C0A7
:10324000E9FF06C0F3FF0750CBEC36F09CD00050EE
:103250000C0F056E000E0120066E000E0220076E98
:10326000C1EC33F00B6E0A6AE56A0BC0F4FF05C0CF
:10327000E9FF06C0F3FF0750CBEC36F0C1EC33F0AA
:10328000096A0A2609500B220AC0E5FF0BC0F4FFA9
:1032900005C0E9FF06C0F3FF0750CBEC36F073D052
:1032A00000500E0F056E000E0120066E000E02206B
:1032B000076EC1EC33F00B6E0A6AE56A0BC0F4FFCF
:1032C00005C0E9FF06C0F3FF0750CBEC36F0C1ECB8
:1032D00033F0096A0A2609500B220AC0E5FF0BC029
:1032E000F4FF05C0E9FF06C0F3FF0750CBEC36F052
:1032F0004AD0C1EC33F0046E036AC1EC33F0066AC5
:103300000326065004220450E56E0350E56E025079
:10331000E56E0150E56E0050E56ECCEC32F0050E26
:10332000E12631D0C1EC33F0046E036AC1EC33F016
:10333000066A0326065004220450E56E0350E56E2B
:103340000250E56E0150E56E0050E56EFEEC24F093
:10335000050EE12618D0C1EC33F0046E036AC1EC0F
:1033600033F0066A0326065004220450E56E03502B
:10337000E56E0250E56E0150E56E0050E56EF1EC31
:103380002AF0050EE126E4CF0BF0E4CF0AF0E4CFFB
:1033900009F0E4CF08F0E4CF07F0E4CF06F0E4CF83
:1033A00005F0E4CF04F0E4CF03F0E4CF02F0E4CF83
:1033B00001F0E4CF00F0E4CFD9FF1200800EE56EFB
:1033C000030EE56E950EE56EB7EC2FF0030EE126C9
:1033D000800EE56E030EE56E750EE56EB7EC2FF010
:1033E000030EE126800EE56E030EE56E970EE56E88
:1033F000B7EC2FF0030EE126800EE56E030EE56EAE
:10340000770EE56EB7EC2FF0030EE126800EE56E29
:10341000030EE56E990EE56EB7EC2FF0030EE12674
:10342000800EE56E030EE56E790EE56EB7EC2FF0BB
:10343000030EE126800EE56E030EE56E9B0EE56E33
:10344000B7EC2FF0030EE126800EE56E030EE56E5D
:103450007B0EE56EB7EC2FF0030EE126800EE56ED5
:10346000030EE56E9D0EE56EB7EC2FF0030EE12620
:10347000800EE56E030EE56E7D0EE56EB7EC2FF067
:10348000030EE126800EE56E030EE56E9F0EE56EDF
:10349000B7EC2FF0030EE126800EE56E030EE56E0D
:1034A0007F0EE56EB7EC2FF0030EE126800EE56E81
:1034B000030EE56EA10EE56EB7EC2FF0030EE126CC
:1034C000800EE56E030EE56E810EE56EB7EC2FF013
:1034D000030EE126800EE56E030EE56EA30EE56E8B
:1034E000B7EC2FF0030EE126800EE56E030EE56EBD
:1034F000830EE56EB7EC2FF0030EE126800EE56E2D
:10350000030EE56EA50EE56EB7EC2FF0030EE12677
:10351000800EE56E030EE56E850EE56EB7EC2FF0BE
:10352000030EE126800EE56E030EE56EA70EE56E36
:10353000B7EC2FF0030EE126800EE56E030EE56E6C
:10354000870EE56EB7EC2FF0030EE126800EE56ED8
:10355000030EE56EA90EE56EB7EC2FF0030EE12623
:10356000800EE56E030EE56E890EE56EB7EC2FF06A
:10357000030EE126800EE56E030EE56EAB0EE56EE2
:10358000B7EC2FF0030EE126800EE56E030EE56E1C
:103590008B0EE56EB7EC2FF0030EE126800EE56E84
:1035A000030EE56EAD0EE56EB7EC2FF0030EE126CF
:1035B000800EE56E030EE56E8D0EE56EB7EC2FF016
:1035C000030EE126800EE56E030EE56EAF0EE56E8E
:1035D000B7EC2FF0030EE126800EE56E030EE56ECC
:1035E0008F0EE56EB7EC2FF0030EE126800EE56E30
:1035F000030EE56EB10EE56EB7EC2FF0030EE1267B
:10360000800EE56E030EE56E910EE56EB7EC2FF0C1
:10361000030EE126800EE56E030EE56EB30EE56E39
:10362000B7EC2FF0030EE126800EE56E030EE56E7B
:10363000930EE56EB7EC2FF0030EE126120000C0EA
:10364000E5FF01C0E5FF02C0E5FF03C0E5FF71EC47
:1036500024F0FDEC15F097EC33F0006EF3CF01F0A1
:10366000F4CF02F0E9CF03F004017C51005E7D51FC
:10367000015A7E51025A7F51035A039E3F0E035C4A
:1036800008E1FF0E025C05E1FF0E015C02E1FF0EA6
:10369000005CD8B00AD197EC33F0F3CF01F0F4CF4F
:1036A00002F0E9CF03F0880F04017C6F130E0120B4
:1036B0007D6F000E02207E6F000E03207F6F04C01E
:1036C000E5FFF2CF04F0F29E0401A95105012D6F30
:1036D0000401AA5105012E6F0401AB5105012F6FA2
:1036E0000401AC510501306F0401AD510501316F8A
:1036F0000401AE510501326F0401AF510501336F72
:103700000401B0510501346F0401B1510501356F59
:103710000401B2510501366F0401B3510501376F41
:103720000401B4510501386F0401B5510501396F29
:103730000401AD6BAE6BAF6BB06B04BEF28EE4CF29
:1037400004F0800EE56E040EE56E930EE56E59EC06
:1037500009F0030EE1269EC474F59FC475F50501BA
:103760007551800F7C0F02E1000E745D04E30501CA
:103770007469030E756F05017551800F840F02E1A6
:10378000010E745D05E2010E0501746FFC0E756F8C
:1037900005017551800F800F02E1010E745D10E389
:1037A00005017551800FF36E04019751800FF35C92
:1037B00003E196510501745D03E20501746B756BBD
:1037C000D880050175AFD89015E30401971D016EEF
:1037D000961D006E004A012A0150800FF36E05010C
:1037E0007551800FF35C02E17451005C03E2050146
:1037F000746B756B04019AA309D0B5A507D0D88066
:10380000050175AFD89002E3746B756BD880050124
:1038100075AFD89007E37451FF0F006E030E75214A
:10382000016E04D074C500F075C501F000C076F5D6
:1038300001C077F505017651020BE840010BE8382D
:10384000E844F46EBD50DF0BF410BD6E7651010BF1
:10385000010BE838F46EBD50EF0BF410BD6E7735F8
:103860007731016E7631006E013401320032005042
:10387000BE6ED880050175AFD89002E3898C01D067
:10388000899C6AC500F06BC501F005016A3F01D053
:103890006B2B0150800F800F02E10B0E005C05E3E3
:1038A00005016A6B6B6BA5EC29F0E4CF03F0E4CF64
:1038B00002F0E4CF01F0E4CF00F01200D9CFE5FF31
:1038C000E1CFD9FF00C0E5FF01C0E5FF02C0E5FF81
:1038D00003C0E5FF04C0E5FF05C0E5FF06C0E5FF46
:1038E00007C0E5FF08C0E5FF020EDBCF00F0030EC6
:1038F000DBCF01F0040EDBCF02F0036A046AC1ECF7
:1039000033F0056EFE0A01E075D065EC2FF0C1ECD6
:1039100033F0066E040E065CD8B05AD0FA6AFB6A21
:103920000634FA36E834FA36FC0B3A0FE56E390EF7
:10393000FA22000EFB22E450F96EA5EF1CF0B1EF65
:103940001CF0C4EF1CF0D7EF1CF000C0E9FF01C071
:10395000F3FF025072EC36F0076E07C003F0046A02
:1039600037D00050010F076E000E0120086E000EC8
:10397000022007C0E9FF08C0F3FF72EC36F0076EC3
:1039800007C003F0046A24D00050020F076E000E37
:103990000120086E000E022007C0E9FF08C0F3FFF7
:1039A00072EC36F0076E07C003F0046A11D00050C5
:1039B0000F0F076E000E0120086E000E022007C0D8
:1039C000E9FF08C0F3FFFCEC35F0036EF3CF04F021
:1039D0000450E56E0350E56EE56A0650E56E000E94
:1039E000E56E460EE56EA00EE56E5FEC31F0070E5B
:1039F000E1268DD0040E055CD8B089D0FA6AFB6A46
:103A00000534FA36E834FA36FC0B1A0FE56E3A0E36
:103A1000FA22000EFB22E450F96E15EF1DF022EFA2
:103A20001DF04DEF1DF063EF1DF0C1EC33F0036EA0
:103A300003C0E5FF00C0E9FF01C0F3FF025004EC42
:103A400037F065D00050010F036E000E0120046EA8
:103A5000000E0220056EC1EC33F0066E06C0E5FFD5
:103A600003C0E9FF04C0F3FF055004EC37F0065033
:103A7000D8A44DD00050030F036E000E0120046E39
:103A8000000E0220E56AF46AF66AF76A03C0E9FFED
:103A900004C0F3FF61EC36F03AD00050020F036E21
:103AA000000E0120046E000E0220056EC1EC33F002
:103AB000066E06C0E5FF03C0E9FF04C0F3FF055032
:103AC00004EC37F024D00F0E0026000E0122022253
:103AD000C1EC33F0066E056AE56A06C0F4FF00C06B
:103AE000E9FF01C0F3FF0250CBEC36F0C1EC33F03C
:103AF000046A05260450062205C0E5FF06C0F4FF4F
:103B000000C0E9FF01C0F3FF0250CBEC36F0E4CF78
:103B100008F0E4CF07F0E4CF06F0E4CF05F0E4CFFF
:103B200004F0E4CF03F0E4CF02F0E4CF01F0E4CFFF
:103B300000F0E4CFD9FF1200D9CFE5FFE1CFD9FFE4
:103B400000C0E5FF01C0E5FF02C0E5FF03C0E5FFDF
:103B500004C0E5FF05C0E5FF06C0E5FF07C0E5FFBF
:103B6000020EDBCF00F0030EDBCF01F0040EDBCF43
:103B700002F0050EDBCF03F0060EDBCF04F0070EDC
:103B8000DBCF05F0080EDBCF06F0090EDBCF07F028
:103B9000005005014F6F0150506F0250516F03509C
:103BA000526F04500501536F0550546F0650556F06
:103BB0000750566F05014F5105015503F4CF01F031
:103BC000F3CF00F000500501596F01505A6F050105
:103BD0004F5105015303F4CF01F0F3CF00F0005033
:103BE0000501576F0150586F0501525105015303EC
:103BF000F3CF00F005015A51002600505A6F05011D
:103C0000515105015403F3CF01F00150002600503B
:103C100005015A6F0501515105015303F4CF01F01D
:103C2000F3CF00F00501595100265A5101220050EE
:103C3000596F01505A6F0501505105015403F4CFDB
:103C400003F0F3CF02F0025000260350012200508F
:103C50000501596F01505A6F050150510501550377
:103C6000F3CF00F0005005015E6F050150510501D2
:103C70005303F4CF01F0F3CF00F0005005015C6F67
:103C800001505D6F05014F5105015603F3CF00F060
:103C900000500501626F05014F5105015403F4CF37
:103CA00001F0F3CF00F000500501606F0150616F2B
:103CB00005015B6B05015F6B05015B510501572534
:103CC000006E05015C5105015821016E05015D5131
:103CD00005015921026E05015E5105015A21036E4D
:103CE0000050576F0150586F0250596F03505A6F70
:103CF00005015F5105015725006E05016051050161
:103D00005821016E0501615105015921026E05011D
:103D1000625105015A21036E03C0E9FF02C0F4FF9E
:103D200001C0F3FF0050E4CF07F0E4CF06F0E4CF8A
:103D300005F0E4CF04F0E4CF03F0E4CF02F0E4CFE9
:103D400001F0E4CF00F0E4CFD9FF120000C0E5FF9E
:103D500001C0E5FF04011951D8B4F7D0A3A81DD0C4
:103D6000A4A81BD00501825105017F1905E1AFEC24
:103D700036F005017F6BE9D0000E05018225006E4B
:103D8000016A0F0E012200C0E9FF01C0EAFFEFCF78
:103D90007BF5822B7BC573FFD8D0A3AAD6D0A4AA6B
:103DA000D4D071A205D005018081AFEC36F0CDD022
:103DB00071A405D005018083AFEC36F0C6D071A0A8
:103DC0003ED074CF7BF5800E04011A1105017B19DA
:103DD00004E1050180897196B8D005017B5104E0AA
:103DE0007B5104011A1927E105018099719605019B
:103DF0007B5103E00501809702D0050180877BC5D8
:103E000084F57DC585F505017D050501866F600E8C
:103E100005018525006E016A000E012200C0E9FF40
:103E200001C0EAFF7BC5EFFF852B8551800A02E1C7
:103E30000501856B8AD005018099718686D074CF83
:103E40007BF5050180A919D0800E04011A11050126
:103E50007B1911E1A39A7198929A05017F5104E1AF
:103E6000736AAFEC36F007D000CF73FF010E050187
:103E7000826FA3886AD0718668D005017B510501E5
:103E8000842705018551050186191BE1050184512F
:103E90000CE185C57DF5050180B712D0A39A719814
:103EA000929A736AAFEC36F00BD00501808580B72B
:103EB00007D0A39A7198929A010E736EAFEC36F008
:103EC00044D00501855105017E1908E105017E51A7
:103ED00005017D1903E0AFEC36F037D07DC500F069
:103EE000016A004A012AE56A800EE56E0150E56E1E
:103EF0000050E56E16EC2AF0006E040EE12600502C
:103F000005017C6F050185190CE11F0E05017B156C
:103F10000501866F862B862B05017D5105018627BD
:103F2000869F85C500F00501852B016A600E00267D
:103F3000000E012200C0E9FF01C0EAFF7BC5EFFFD0
:103F40008551800A02E10501856BE4CF01F0E4CFE1
:103F500000F01200D9CFE5FFE1CFD9FF00C0E5FFA7
:103F600001C0E5FF02C0E5FF03C0E5FF04C0E5FFB7
:103F700005C0E5FF06C0E5FF07C0E5FF08C0E5FF97
:103F800009C0E5FF0AC0E5FF0BC0E5FF0CC0E5FF77
:103F90000DC0E5FF0EC0E5FF0FC0E5FF020EDBCF51
:103FA00000F0030EDBCF01F0040EDBCF02F0050EB4
:103FB000DBCF03F0060EDBCF04F0070EDBCF05F0FE
:103FC000080EDBCF06F0200E076E086A06C009F067
:103FD0000A6A0B6A0C6AE56AE56AE56A0950E56EE9
:103FE0000350E56E0250E56E0150E56E0050E56E3F
:103FF00023EC22F00D6E080EE126300E0D263A0E4F
:104000000D5C05E30D500E6E270E0E240D6EFF0E97
:1040100007260822D50E07240E6E030E08200F6E09
:104020000EC0E9FF0FC0EAFF0DC0EFFF0C50E56EB8
:104030000B50E56E0A50E56E0950E56E0350E56ED3
:104040000250E56E0150E56E0050E56E54EC23F031
:10405000006EF3CF01F0F4CF02F0E9CF03F0080EC9
:10406000E1260050011002100310D8A4AFD707C0FA
:1040700000F008C001F004C002F005C003F000C069
:1040800004F001C005F0004A012AD50E0426030EF3
:10409000052204C0E9FF05C0EAFFEFCF04F002C02B
:1040A000E9FF03C0EAFF04C0EFFF024A032A000E43
:1040B000015C02E1200E005CE2E302C0E9FF03C004
:1040C000EAFF000EEF6AE4CF0FF0E4CF0EF0E4CF8A
:1040D0000DF0E4CF0CF0E4CF0BF0E4CF0AF0E4CF26
:1040E00009F0E4CF08F0E4CF07F0E4CF06F0E4CF26
:1040F00005F0E4CF04F0E4CF03F0E4CF02F0E4CF26
:1041000001F0E4CF00F0E4CFD9FF1200D9CFE5FFF2
:10411000E1CFD9FF00C0E5FF01C0E5FF02C0E5FF28
:1041200003C0E5FF04C0E5FF05C0E5FF06C0E5FFED
:1041300007C0E5FF08C0E5FF09C0E5FF0AC0E5FFCD
:104140000BC0E5FF0CC0E5FF0DC0E5FF020EDBCFA5
:1041500000F0030EDBCF01F0040EDBCF02F0050E02
:10416000DBCF03F0060EDBCF04F0070EDBCF05F04C
:10417000080EDBCF06F0090EDBCF07F0D88003AEC8
:10418000D890086A083608500FE0031C0C6E021C19
:104190000B6E011C0A6E001C096E092A0DE10A2A29
:1041A0000BE10B4A0C2A08D000C009F001C00AF04C
:1041B00002C00BF003C00CF0D88007AED890006AA4
:1041C000003600500FE0071C0D6E061C036E051C28
:1041D000026E041C016E012A0DE1022A0BE1034A62
:1041E0000D2A08D004C001F005C002F006C003F09B
:1041F00007C00DF00D50E56E0350E56E0250E56E00
:104200000150E56E0C50E56E0B50E56E0A50E56E00
:104210000950E56E54EC23F0016EF3CF02F0F4CFB9
:1042200003F0E9CF04F0080EE1260050081A085008
:1042300016E0041C076E031C066E021C056E011CB2
:10424000006E002A04E1052A02E1064A072A07C097
:10425000E9FF06C0F4FF05C0F3FF005007D004C01B
:10426000E9FF03C0F4FF02C0F3FF0150E4CF0DF0FB
:10427000E4CF0CF0E4CF0BF0E4CF0AF0E4CF09F088
:10428000E4CF08F0E4CF07F0E4CF06F0E4CF05F088
:10429000E4CF04F0E4CF03F0E4CF02F0E4CF01F088
:1042A000E4CF00F0E4CFD9FF120000C0E5FF01C069
:1042B000E5FF02C0E5FF03C0E5FF9EA0B8D0006A9D
:1042C00082BE002A0050010BF46E04019B51FE0BCC
:1042D000F4109B6F006A81B2002A0050010A08E1C5
:1042E0000401B16BB26BB36BB46BB581B58502D011
:1042F0000401B595006A04019BB1002A016A9BB5CF
:10430000012A0050011801E18ED0006A04019BB11E
:10431000002A0050010BE844E844F46E9B51FB0B6B
:10432000F4109B6FA951AD5D006EAA51AE59016E9C
:10433000AB51AF59026EAC51B059036E0050AD6F26
:104340000150AE6F0250AF6F0350B06F0F01345188
:104350000401A96F0F0135510401AA6F0F013651F5
:104360000401AB6F0F0137510401AC6F0F013451E1
:1043700000263551012236510222375103220050C6
:104380000401AD6F0150AE6F0250AF6F0350B06FBC
:10439000006A81B0002A0050010BE844F46E9B5182
:1043A000FD0BF4109B6F006A9BB1002A016A9BB35E
:1043B000012A0150D880E866D890016A0136015080
:1043C000001A005019E0B1C400F0B2C401F0B3C447
:1043D00002F0B4C403F0002A04E3012A02E3024A13
:1043E000032A00500401B16F0150B26F0250B36F45
:1043F0000350B46FB58317D0B1C400F0B2C401F05C
:10440000B3C402F0B4C403F0FF0E0026012202225E
:10441000032200500401B16F0150B26F0250B36F1C
:104420000350B46FB593CF689B0ECE6E9E90E4CFD1
:1044300003F0E4CF02F0E4CF01F0E4CF00F012008B
:10444000430025630000D9CFE5FFE1CFD9FF00C0CD
:10445000E5FF01C0E5FF02C0E5FF03C0E5FF04C0C2
:10446000E5FF05C0E5FF06C0E5FF07C0E5FF08C0A2
:10447000E5FF09C0E5FF0AC0E5FF020EDBCF00F053
:10448000030EDBCF01F0040EDBCF02F0050EDBCF15
:1044900003F0060EDBCF04F0070EDBCF05F0080EAD
:1044A000DBCF06F0090EDBCF07F0086A04500510D9
:1044B0000610071005E1E968F468F368E86847D07A
:1044C000096A0750800BE8440A6E0A501BE1045049
:1044D00004260536063607360750035C08E1065009
:1044E000025C05E10550015C02E10450005C06E25B
:1044F000D890073206320532043204D0092A09C0A6
:1045000008F0DFD70750035C08E10650025C05E1C4
:104510000550015C02E10450005C08E30450005EB9
:104520000550015A0650025A0750035AD8900732D4
:1045300006320532043208C009F008060950E2E1EB
:1045400003C0E9FF02C0F4FF01C0F3FF0050E4CF55
:104550000AF0E4CF09F0E4CF08F0E4CF07F0E4CFAD
:1045600006F0E4CF05F0E4CF04F0E4CF03F0E4CFAD
:1045700002F0E4CF01F0E4CF00F0E4CFD9FF120065
:10458000D9CFE5FFE1CFD9FF00C0E5FF01C0E5FFCE
:1045900002C0E5FF03C0E5FF04C0E5FF05C0E5FF7D
:1045A00006C0E5FF07C0E5FF020EDBCF00F0030EFB
:1045B000DBCF01F0040EDBCF02F000500B0F036ED7
:1045C000000E0120046E000E0220E56AF46AF66A0D
:1045D000F76A03C0E9FF04C0F3FF61EC36F0005056
:1045E000070F036E000E0120046E000E0220056E00
:1045F0000050030F066E000E0120076E000E022011
:10460000E56AF46AF66AF76A06C0E9FF07C0F3FFD5
:1046100061EC36F0E56AF46AF66AF76A03C0E9FF0E
:1046200004C0F3FF055061EC36F00050010F036E3B
:10463000000E0120046E000E0220056E0050020FD5
:10464000066E000E0120076E000E0220E56A06C00D
:10465000E9FF07C0F3FF04EC37F0E56A03C0E9FFA8
:1046600004C0F3FF055004EC37F0E56A00C0E9FF31
:1046700001C0F3FF025004EC37F0E4CF07F0E4CFC1
:1046800006F0E4CF05F0E4CF04F0E4CF03F0E4CF8C
:1046900002F0E4CF01F0E4CF00F0E4CFD9FF120044
:1046A00025642025640A0000D9CFE5FFE1CFD9FFBA
:1046B00000C0E5FF01C0E5FF02C0E5FF03C0E5FF64
:1046C00004C0E5FF05C0E5FF06C0E5FF07C0E5FF44
:1046D00008C0E5FF09C0E5FF0AC0E5FF0BC0E5FF24
:1046E0000CC0E5FF0DC0E5FF020EDBCF00F0030EAE
:1046F000DBCF01F0040EDBCF02F0050EDBCF03F0C1
:10470000060EDBCF04F0070EDBCF05F0080EDBCF83
:1047100006F0090EDBCF07F0086A096A0A6A0B6A1D
:10472000200E0C6E0350800BE8440D6E00500026E6
:104730000136023603360850082609360A360B368B
:104740000D50D8A4088007500B5C08E106500A5CA5
:1047500005E10550095C02E10450085C09E30450DE
:10476000085E0550095A06500A5A07500B5A008035
:104770000C040D6E0DC00CF00D50D4E103C0E9FF28
:1047800002C0F4FF01C0F3FF0050E4CF0DF0E4CF0E
:104790000CF0E4CF0BF0E4CF0AF0E4CF09F0E4CF63
:1047A00008F0E4CF07F0E4CF06F0E4CF05F0E4CF63
:1047B00004F0E4CF03F0E4CF02F0E4CF01F0E4CF63
:1047C00000F0E4CFD9FF120000C0E5FF01C0E5FF13
:1047D00003C0E5FF04C0E5FF05C0E5FF06C0E5FF37
:1047E00007C0E5FF08C0E5FF09C0E5FF0AC0E5FF17
:1047F0000BC0E5FF6CC500F06DC501F005016C3F15
:1048000001D06D2B0050E56EA1EC36F0E652076E3C
:10481000046A056A066A6CC500F06DC501F0050101
:104820006C3F01D06D2B0050E56EA1EC36F0E652E6
:104830000B6A0A6E086A0850041205120A50061222
:104840000B5007126CC500F06DC501F005016C3FFF
:1048500001D06D2B0050E56EA1EC36F0E652036EF0
:10486000006A03C001F0E86A03BEFF0E086E096E1D
:104870000050041201500512085006120950071288
:104880006CC500F06DC501F005016C3F01D06D2BCA
:104890000050E56EA1EC36F0E652016A04120150B8
:1048A00005120612071207C0E9FF06C0F4FF05C093
:1048B000F3FF0450E4CF0BF0E4CF0AF0E4CF09F0AB
:1048C000E4CF08F0E4CF07F0E4CF06F0E4CF05F042
:1048D000E4CF04F0E4CF03F0E4CF01F0E4CF00F044
:1048E000120000C0E5FF01C0E5FF02C0E5FF03C004
:1048F000E5FF04C0E5FF05017E5105017D1901E1D9
:104900005FD07EC500F0002A009E600E0024016E7C
:10491000026A000E022201C0E9FF02C0EAFFEFCFE7
:1049200088F51F0E050188177EC587F5885105019A
:104930008727872B872B879FC1EC33F0016E0150AF
:1049400003E1016A012A01D0016AC1EC33F00501DB
:10495000886F800E8815026E1F0E8815036E03C0C7
:1049600004F003C088F5045003E17DC57EF53BD01B
:1049700001501BE0025022E0C1EC33F0006E050153
:1049800088070050420A1AE000504E0A03E19CECEE
:1049900030F014D00050460A03E1EEEC36F00ED0B1
:1049A0000050490A0BE1FF0009D07EC589F502508D
:1049B00003E0BEEC2EF002D083EC36F087C57EF526
:1049C000040116510401171906E005017F5103E1A6
:1049D000A1EC26F008D092BA06D005017F5103E180
:1049E00072B2AFEC36F0E4CF04F0E4CF03F0E4CFE2
:1049F00002F0E4CF01F0E4CF00F01200D9CFE5FFE0
:104A0000E1CFD9FF00C0E5FF01C0E5FF02C0E5FF2F
:104A100003C0E5FF04C0E5FF05C0E5FF06C0E5FFF4
:104A200007C0E5FF08C0E5FF0BC0E5FF0CC0E5FFD0
:104A30000DC0E5FF020EDBCF00F0030EDBCF01F06F
:104A4000040EDBCF02F0050EDBCF03F0060EDBCF4A
:104A500004F003C0E5FF04C0F4FF00C0E9FF01C09B
:104A6000F3FF0250CBEC36F00050020F056E000E43
:104A70000120066E000E0220076EE86A04BEFF0EDB
:104A8000086E04500C6E0C2608340D6ED8900C364F
:104A90000D360344E844FC0B0B6E0350E844E84435
:104AA000030B0C12E56A0BC0F4FF0CC0F6FF0DC03F
:104AB000F7FF05C0E9FF06C0F3FF075061EC36F0D1
:104AC000080E0026000E01220222E56AF46AF66A48
:104AD000F76A00C0E9FF01C0F3FF025061EC36F055
:104AE000E4CF0DF0E4CF0CF0E4CF0BF0E4CF08F00E
:104AF000E4CF07F0E4CF06F0E4CF05F0E4CF04F014
:104B0000E4CF03F0E4CF02F0E4CF01F0E4CF00F013
:104B1000E4CFD9FF1200D9CFE5FFE1CFD9FF00C024
:104B2000E5FF01C0E5FF02C0E5FF03C0E5FF04C0EB
:104B3000E5FF05C0E5FF06C0E5FF07C0E5FF020E83
:104B4000DBCF00F0030EDBCF01F0040EDBCF02F071
:104B5000050EDBCF03F002C006F00650046E800A9B
:104B600033E100C0E9FF01C0F3FF025024EC35F04F
:104B7000056EF3CF06F0F4CF07F003C0E5FF05C0E4
:104B8000E9FF06C0F3FF075004EC37F000C0E9FF6F
:104B900001C0F3FF025024EC35F0056EF3CF06F0B0
:104BA000F4CF07F0052A02E3064A072A05C0E5FF0D
:104BB00006C0F4FF07C0F6FF00C0E9FF01C0F3FF25
:104BC000025092EC36F020D004C000F000AA1CD0B5
:104BD000007A0050046E04E1035041EC37F014D029
:104BE0000450010A04E1035002EC00F00DD004501F
:104BF0000F0A04E1035035EC33F006D004500E0ADE
:104C000003E1035051EC37F0E4CF07F0E4CF06F0B6
:104C1000E4CF05F0E4CF04F0E4CF03F0E4CF02F0FA
:104C2000E4CF01F0E4CF00F0E4CFD9FF1200D9CFF8
:104C3000E5FFE1CFD9FF00C0E5FF01C0E5FF02C0FD
:104C4000E5FF03C0E5FF04C0E5FF05C0E5FF06C0C2
:104C5000E5FF07C0E5FF08C0E5FF09C0E5FF0AC0A2
:104C6000E5FF020EDBCF00F0030EDBCF01F0040EF8
:104C7000DBCF02F0050EDBCF03F0060EDBCF04F036
:104C8000070EDBCF05F00038E8441F0B066E076AFD
:104C90006E0E0626050E072206C0E9FF07C0EAFFD2
:104CA000EFCF08F0070E0014096E010E0A6E0950CE
:104CB00005E0E86CD8900A36010FFDE30A500812AF
:104CC00006C0E9FF07C0EAFF08C0EFFF000E00249E
:104CD000066E076A050E072206C0E9FF07C0EAFF55
:104CE00001C0EFFF016AE80E0026040E0122800ECB
:104CF000025E070E02160238F00B036E070E051651
:104D00000550032600C0E9FF01C0EAFF03C0EFFF22
:104D1000E4CF0AF0E4CF09F0E4CF08F0E4CF07F0E5
:104D2000E4CF06F0E4CF05F0E4CF04F0E4CF03F0E5
:104D3000E4CF02F0E4CF01F0E4CF00F0E4CFD9FFFC
:104D4000120000C0E5FF01C0E5FF02C0E5FF03C09F
:104D5000E5FF72A276D0CAEC34F0006E005005E197
:104D60000401176B0401166B6CD017C401F00050DE
:104D70000126CAEC34F0026E00060250230A1FE13D
:104D8000010E005CD8A05BD0CAEC34F0026E690A58
:104D900003E166EC33F053D00250720A03E1AFEC4A
:104DA00036F04DD00250730A01E049D0928A7186E4
:104DB000A38AA398745074507198718840D002509F
:104DC000430A05E00250420A01E039D001D0008ECA
:104DD00000C081F500500F01006F010E0501826FC8
:104DE00004011751011814E0CAEC34F0026E0501F9
:104DF0008127000E05018225006E036A0F0E032233
:104E000000C0E9FF03C0EAFF02C0EFFF822BE8D732
:104E1000000E05018225006E026A0F0E02220501B6
:104E2000811D036E032A00C0E9FF02C0EAFF03C030
:104E3000EFFF0501822B82C57FF50501796B01C06B
:104E400017F4E4CF03F0E4CF02F0E4CF01F0E4CFB5
:104E500000F01200D9CFE5FFE1CFD9FF00C0E5FF98
:104E600001C0E5FF02C0E5FF03C0E5FF04C0E5FFA8
:104E700005C0E5FF06C0E5FF020EDBCF00F0030E24
:104E8000DBCF01F0040EDBCF02F0050EDBCF03F029
:104E900003C004F0056A0350D8B44FD000C0E9FF46
:104EA00001C0F3FF025072EC36F0066E430A03E1D4
:104EB000010E056E038E0406002A02E3014A022A4F
:104EC000A39A7198929AA398A4A8FED77280736A45
:104ED0000000A4A8FED7729003C073FF0000A4A82E
:104EE000FED7055004E0420E736E032604D0620E16
:104EF000736E620E0326045015E00000A4A8FED7CE
:104F000000C0E9FF01C0F3FF025072EC36F0056EFD
:104F100005C073FF055003260406002A02E3014A78
:104F2000022AE9D70000A4A8FED7031C736E732AD7
:104F30000000A4A8FED7AFEC36F0E4CF06F0E4CF33
:104F400005F0E4CF04F0E4CF03F0E4CF02F0E4CFC7
:104F500001F0E4CF00F0E4CFD9FF120000C0E5FF7C
:104F600001C0E5FF02C0E5FF03C0E5FF04C0E5FFA7
:104F7000006A6E0E0024016E026A050E022201C054
:104F8000E9FF02C0EAFFEF6A002A020E005CF1E3CB
:104F9000006A0050020DF450026EF3CF01F0E00EF3
:104FA0000124036E000E0220046E03C0E9FF04C05A
:104FB000EAFFEE6AEF6A5C0E0124036E040E022023
:104FC000046E03C0E9FF04C0EAFFEE6AEF6A550E03
:104FD0000124036E030E0220046E03C0E9FF04C027
:104FE000EAFFEE6AEF6A750E0124036E030E0220DB
:104FF000046E03C0E9FF04C0EAFFEE6AEF6A950E93
:105000000126030E022201C0E9FF02C0EAFFEE689A
:105010007F0EEF6EE80E0024016E026A040E02227B
:1050200001C0E9FF02C0EAFFEF68002A100E005C31
:10503000D8A0AFD7AF0EC06EC16A010EC26EC282D9
:10504000E4CF04F0E4CF03F0E4CF02F0E4CF01F0CA
:10505000E4CF00F012004320412025642025640A9B
:105060000000D9CFE5FFE1CFD9FF00C0E5FF01C0C7
:10507000E5FF02C0E5FF03C0E5FF04C0E5FF05C092
:10508000E5FF06C0E5FF07C0E5FF08C0E5FF09C072
:10509000E5FF0AC0E5FF0BC0E5FF0CC0E5FF020E0F
:1050A000DBCF00F0030EDBCF01F0040EDBCF02F00C
:1050B000050EDBCF03F0060EDBCF04F0070EDBCFCF
:1050C00005F0080EDBCF06F0090EDBCF07F002502B
:1050D0000A6E0150096E0050086E06C00BF007C042
:1050E0000CF0FF0E062607220B500C101AE003C02E
:1050F000E9FF04C0F3FF055072EC36F00B6E032A93
:1051000002E3044A052A0BC0E5FF08C0E9FF09C015
:10511000F3FF0A5004EC37F0082ADFE3094A0A2AB1
:10512000DCD702C0F4FF01C0F3FF0050E4CF0CF065
:10513000E4CF0BF0E4CF0AF0E4CF09F0E4CF08F0BD
:10514000E4CF07F0E4CF06F0E4CF05F0E4CF04F0BD
:10515000E4CF03F0E4CF02F0E4CF01F0E4CF00F0BD
:10516000E4CFD9FF1200D9CFE5FFE1CFD9FF00C0CE
:10517000E5FF01C0E5FF02C0E5FF03C0E5FF04C095
:10518000E5FF05C0E5FF06C0E5FF07C0E5FF020E2D
:10519000DBCF00F0030EDBCF01F0040EDBCF02F01B
:1051A000050EDBCF03F017C418F4040116510401F7
:1051B000185F180703C004F0056A030E0426D8B070
:1051C000052A18C406F0076A0750800FF36E0550D1
:1051D000800FF35C02E10450065C02E2E8682BD029
:1051E000020E035C02E2E86A26D003060350E56E75
:1051F0001BEC32F0E652046A0350045C14E20450E3
:105200000024056EE86A0120066EE86A022005C0E7
:10521000E9FF06C0F3FF72EC36F0042AE56E1BECE2
:1052200032F0E652E9D717C418F40401165104010C
:10523000185F1807E86AE4CF07F0E4CF06F0E4CF80
:1052400005F0E4CF04F0E4CF03F0E4CF02F0E4CFC4
:1052500001F0E4CF00F0E4CFD9FF1200D9CFE5FF91
:10526000E1CFD9FF00C0E5FF01C0E5FF02C0E5FFC7
:1052700003C0E5FF04C0E5FF05C0E5FF020EDBCF7C
:1052800000F0030EDBCF01F0040EDBCF02F0005084
:10529000020DF450036EF3CF00F05C0E0024046E98
:1052A000040E0320056E04C0E9FF05C0EAFF01C03B
:1052B000EEFF02C0EFFF550E0024046E030E032024
:1052C000056E04C0E9FF05C0EAFFEECF04F0EFCFA2
:1052D00005F00150045C016E02500558026EB50ED7
:1052E0000026030E032200C0E9FF03C0EAFF01C04D
:1052F000EEFF02C0EFFFD88002AED89004E3021E9A
:10530000016CD8B4022A0250800F800F02E1030E14
:10531000015C02E2016A026A0150021007E100C06A
:10532000E9FF03C0EAFF000EEE6AEF6AE4CF05F082
:10533000E4CF04F0E4CF03F0E4CF02F0E4CF01F0D7
:10534000E4CF00F0E4CFD9FF120000C0E5FF01C0B8
:10535000E5FF0401B251006E0401026F0401B15176
:105360000401036F006A81B2002A0050010A03E1C0
:10537000006A002A01D0006A00500401046F006A2C
:10538000040180B1002A0050020DF3CF00F0016A41
:1053900081B4012A0150002600500401056F040168
:1053A0009F51006E016A00500401066F04019E5176
:1053B0000401076FD8900401BA31016EB931006E53
:1053C000D89001320032BB51E840E840C00B0112D6
:1053D000BB41E8403F0B00500501666F0150676F0D
:1053E0000401086F050166510401096F006A040198
:1053F000B5B1002A04EE0AF000C0EFFF0C0E050163
:10540000686F696B0A0E04010B6F0C0EE56E800E5F
:10541000E56E040EE56E000EE56EB3EC28F0040EAA
:10542000E126E4CF01F0E4CF00F01200D9CFE5FF90
:10543000E1CFD9FF00C0E5FF01C0E5FF02C0E5FFF5
:1054400003C0E5FF04C0E5FF05C0E5FF06C0E5FFBA
:10545000020EDBCF00F0030EDBCF01F0040EDBCF3A
:1054600002F0050EDBCF03F0D88001AED890046ABD
:105470000436045007E0011C066E001C056E054A48
:10548000062A04D000C005F001C006F0D88003AEA3
:10549000D89007E3031C016E021C006E004A012A2B
:1054A00004D002C000F003C001F00150E56E0050CE
:1054B000E56E0650E56E0550E56E0CEC2EF0006EC4
:1054C000F3CF01F0040EE12604500AE0011C036E44
:1054D000001C026E024A032A03C0F3FF025003D0ED
:1054E00001C0F3FF0050E4CF06F0E4CF05F0E4CFB5
:1054F00004F0E4CF03F0E4CF02F0E4CF01F0E4CF16
:1055000000F0E4CFD9FF1200D9CFE5FFE1CFD9FFFA
:1055100000C0E5FF01C0E5FF02C0E5FF03C0E5FFF5
:1055200004C0E5FF05C0E5FF020EDBCF00F0030E6F
:10553000DBCF01F0040EDBCF02F0050EDBCF03F072
:105540006CC504F06DC505F005016C3F01D06D2BF5
:105550000350E56E0450E56E86EC34F0E652E652F8
:105560006CC504F06DC505F005016C3F01D06D2BD5
:105570000250056EE56E0450E56E86EC34F0E6529E
:10558000E6526CC504F06DC505F005016C3F01D015
:105590006D2B0150056EE56E0450E56E86EC34F01F
:1055A000E652E6526CC504F06DC505F005016C3F8E
:1055B00001D06D2B0050E56E0450E56E86EC34F0A2
:1055C000E652E652E4CF05F0E4CF04F0E4CF03F076
:1055D000E4CF02F0E4CF01F0E4CF00F0E4CFD9FF54
:1055E0001200D9CFE5FFE1CFD9FF00C0E5FF01C030
:1055F000E5FF02C0E5FF03C0E5FF04C0E5FF05C00D
:10560000E5FF08C0E5FF09C0E5FF0AC0E5FF020E9F
:10561000DBCF00F0030EDBCF01F0040EDBCF02F096
:10562000050EDBCF03F0060EDBCF04F003C0E5FF71
:1056300004C0F4FF00C0E9FF01C0F3FF0250CBEC4F
:1056400036F0020E0026000E0122022204BEFF0EDA
:10565000056E0450096E092605340A6ED890093685
:105660000A360344E844FC0B086E0350E844E8445F
:10567000030B0912E56A08C0F4FF09C0F6FF0AC06F
:10568000F7FF00C0E9FF01C0F3FF025061EC36F004
:10569000E4CF0AF0E4CF09F0E4CF08F0E4CF05F05E
:1056A000E4CF04F0E4CF03F0E4CF02F0E4CF01F064
:1056B000E4CF00F0E4CFD9FF1200D9CFE5FFE1CF6E
:1056C000D9FF00C0E5FF01C0E5FF02C0E5FF03C050
:1056D000E5FF04C0E5FF05C0E5FF06C0E5FF020EDB
:1056E000DBCF00F0030EDBCF01F0040EDBCF02F0C6
:1056F0000501785119E1E4EC23F0036EF3CF04F0D7
:10570000F4CF05F0E9CF06F003C0E5FF04C0F4FFD5
:1057100005C0F6FF06C0F7FF00C0E9FF01C0F3FFB8
:10572000025061EC36F01ED005017851010A1AE1F1
:1057300000C0E9FF01C0F3FF0250AAEC34F0006E94
:10574000F3CF01F0F4CF02F0E9CF03F00350E56EA0
:105750000250E56E0150E56E0050E56E84EC2AF0D3
:10576000040EE126E4CF06F0E4CF05F0E4CF04F028
:10577000E4CF03F0E4CF02F0E4CF01F0E4CF00F097
:10578000E4CFD9FF1200D9CFE5FFE1CFD9FF00C0A8
:10579000E5FF01C0E5FF02C0E5FF03C0E5FF04C06F
:1057A000E5FF020EDBCF00F0030EDBCF01F0040EAD
:1057B000DBCF02F00050070F036E000E0120046ED5
:1057C000000E0220E56E0450E56E0350E56E9FEC7E
:1057D00031F0030EE1260050230F036E000E01206E
:1057E000046E000E0220E56E0450E56E0350E56E77
:1057F00069EC2EF0030EE1260050330F036E000E0D
:105800000120046E000E0220E56E0450E56E035088
:10581000E56E4FEC2DF0030EE126440E0026000E3F
:10582000012202220250E56E0150E56E0050E56E45
:105830004FEC2DF0030EE126E4CF04F0E4CF03F0AB
:10584000E4CF02F0E4CF01F0E4CF00F0E4CFD9FFE1
:105850001200D9CFE5FFE1CFD9FF00C0E5FF01C0BD
:10586000E5FF02C0E5FF03C0E5FF04C0E5FF05C09A
:10587000E5FF06C0E5FF020EDBCF00F0030EDBCF35
:1058800001F00038E8441F0B026E036A6E0E022618
:10589000050E032202C0E9FF03C0EAFFEFCF04F0C8
:1058A000070E0014056E010E066E055005E0E86C4B
:1058B000D8900636010FFDE30650041202C0E9FF3E
:1058C00003C0EAFF04C0EFFF000E0024026E036A6B
:1058D000050E032202C0E9FF03C0EAFF01C0EFFF8B
:1058E000016AE80E0026040E012200C0E9FF01C093
:1058F000EAFFFF0EEF68E4CF06F0E4CF05F0E4CF57
:1059000004F0E4CF03F0E4CF02F0E4CF01F0E4CF01
:1059100000F0E4CFD9FF1200D9CFE5FFE1CFD9FFE6
:1059200000C0E5FF01C0E5FF02C0E5FF03C0E5FFE1
:1059300004C0E5FF05C0E5FF06C0E5FF020EDBCFB2
:1059400000F0030EDBCF01F0040EDBCF02F0050EFA
:10595000DBCF03F0060EDBCF04F0070EDBCF05F044
:10596000080EDBCF06F0D88003AED89015E30650C2
:105970000A0A12E104C0E9FF05C0EAFF2D0EEF6E2E
:10598000044A052A031E021E011E006C05E1012ABD
:1059900003E1022AD8B4032A0650E56E0550E56EED
:1059A0000450E56E0350E56E0250E56E0150E56E61
:1059B0000050E56EAAEC1FF0070EE126E4CF06F0DA
:1059C000E4CF05F0E4CF04F0E4CF03F0E4CF02F03D
:1059D000E4CF01F0E4CF00F0E4CFD9FF1200D8CF3C
:1059E000E5FFE0CFE5FFE56EF3CFE5FFF4CFE5FFA0
:1059F000E9CFE5FFEACFE5FFFACFE5FFFBCFE5FF13
:105A0000F6CFE5FFF6CFE5FFF7CFE5FFF8CFE5FFEF
:105A1000F5CFE5FFE1CFE5FFE2CFE5FF040114514B
:105A20000F01366F040115510F01376FD650346FD7
:105A3000D750356FF2A411D00401143F01D0152BBB
:105A4000F294040114510F01366F040115510F0136
:105A5000376FD650346FD750356F55EC21F0E4CF07
:105A6000E2FFE4CFE1FFE4CFF5FFE4CFF8FFE4CFBE
:105A7000F7FFE4CFF6FFE4CFF6FFE4CFFBFFE4CF80
:105A8000FAFFE4CFEAFFE4CFE9FFE4CFF4FFE4CF8D
:105A9000F3FFE450E4CFE0FFE4CFD8FF1000D9CF0C
:105AA000E5FFE1CFD9FF00C0E5FF01C0E5FF02C07F
:105AB000E5FF03C0E5FF04C0E5FF020EDBCF00F009
:105AC000030EDBCF01F0040EDBCF02F00250E56ED7
:105AD0000150E56E0050E56E9FEC31F0030EE126BB
