:020000040000FA
:10000000AEEF33F0C96E120013EF2DF073EC17F062
:1000100030EC1BF0FDD7120024EF32F0D9CFE5FF12
:10002000E1CFD9FF00C0E5FF01C0E5FF02C0E5FF59
:1000300003C0E5FF04C0E5FF05C0E5FF06C0E5FF1E
:1000400007C0E5FF08C0E5FF09C0E5FF0AC0E5FFFE
:100050000BC0E5FF0CC0E5FF0DC0E5FF0EC0E5FFDE
:100060000FC0E5FF10C0E5FF11C0E5FF12C0E5FFBE
:1000700013C0E5FF14C0E5FF15C0E5FF16C0E5FF9E
:1000800017C0E5FF18C0E5FF19C0E5FF1AC0E5FF7E
:100090001BC0E5FF1CC0E5FF1DC0E5FF1EC0E5FF5E
:1000A0001FC0E5FF20C0E5FF21C0E5FF22C0E5FF3E
:1000B00023C0E5FF020EDBCF00F0030EDBCF01F023
:1000C000040EDBCF02F00250086E0150076E0050A4
:1000D000066EE56A100EE56E0850E56E0750E56E97
:1000E0000650E56E800EE56E030EE56E9D0EE56E24
:1000F0004DEC26F0080EE126A5C303F0A6C304F0DC
:10010000A7C305F0A8C306F003C007F004C008F0B9
:1001100005C009F006C00AF0D8800AAED8900AE3FC
:100120000A1E091E081E076C05E1082A03E1092AB8
:10013000D8B40A2A9DC30BF09EC30CF0E86A0301F1
:100140009EBFFF0E0D6E0E6ED890A131106EA031C5
:100150000F6ED89010320F32A251E840E840C00B29
:100160001012A241E8403F0BE8BAC009116E126AB2
:1001700011BE12680F500B5C0F6E10500C58106EB1
:1001800011500D58116E12500E58126E800F810FC3
:1001900008E1FF0E115C05E1FF0E105C02E1FE0EAE
:1001A0000F5CD8A04ED01250800F800F08E1000ED7
:1001B000115C05E1000E105C02E1030E0F5CD8B08B
:1001C00040D00A340A30166E0930156E0830146EAD
:1001D0000730136EABC317F0ACC318F0E86A030125
:1001E000ACBFFF0E196E800FF36E1650800FF35CDC
:1001F00008E11550195C05E11450185C02E1135038
:10020000175C1FE30C50156E15260D34166ED89032
:10021000153616360B44E844FC0B146E0B50E844BC
:10022000E844030B151203019F6B1450A06F155087
:10023000A16F1650A26FA56BA66BA76BA86BADEF55
:1002400004F0D89009300C6E08300B6ED8900C3248
:100250000B32D8900C320B320A50E838E844E00BED
:100260000C120A38E8441F0BE8B8E0090E6A08507F
:10027000076E0950086ED89008320732D8900832BD
:1002800007320A50E840E840C00B08120A40E84034
:100290003F0BE86A0CBEFF0E096E0A6EE86A08BEE4
:1002A000FF0E0D6EE56E0D50E56E0850E56E0750C1
:1002B000E56E0A50E56E0950E56E0C50E56E0B5088
:1002C000E56E79EC1DF0076EF3CF08F0F4CF09F07E
:1002D000E9CF0AF0080EE126ABC30BF0ACC30CF07B
:1002E000E86A0301ACBFFF0E0D6E0E6EE56E0D5099
:1002F000E56E0C50E56E0B50E56E0A50E56E095048
:10030000E56E0850E56E0750E56E5FEC1FF0076E76
:10031000F3CF08F0080EE126A3C309F0A4C30AF046
:10032000E86A0301A4BFFF0E136E0A50176E17266A
:100330001334186ED890173618360944E844FC0B6D
:10034000166E0950E844E844030B1712156AD8806A
:1003500006AED890D8B062D107C009F008C00AF044
:10036000E86A08BEFF0E136E800FF36E1250800F06
:10037000F35C08E11150135C05E110500A5C02E1E6
:100380000F50095CD8B022D10650800FF36E185080
:10039000800FF35C08E11750055C05E11650045C22
:1003A00002E11550035CD8B0EAD0A9C309F0AAC392
:1003B0000AF0E86A0301AABFFF0E136E146E035021
:1003C000092604500A22055013220650142209500F
:1003D0000301A56F0A50A66F1350A76F1450A86FA2
:1003E000ABC309F0ACC30AF0A9C313F0AAC314F05D
:1003F0000A50800FF36E1450800FF35C02E113502B
:10040000095CD8B0A0D0A5C319F0A6C31AF0A7C341
:100410001BF0A8C31CF0D8901B301E6E1A301D6E46
:10042000D8901E321D32D8901E321D321C50E83832
:10043000E844E00B1E121C38E8441F0BE8B8E00942
:10044000206AD8901B30206E1A301F6ED890203250
:100450001F321C50E840E840C00B20121C40E8400E
:100460003F0BE86A1EBEFF0E216E226EE86A20BEB8
:10047000FF0E236EE56E2350E56E2050E56E1F5093
:10048000E56E2250E56E2150E56E1E50E56E1D5062
:10049000E56E79EC1DF01D6EF3CF1EF0F4CF1FF06A
:1004A000E9CF20F0080EE12609C021F00AC022F0B1
:1004B000E86A0ABEFF0E236EE56E2350E56E2250F9
:1004C000E56E2150E56E2050E56E1F50E56E1E5022
:1004D000E56E1D50E56E5FEC1FF01D6EF3CF1EF054
:1004E000080EE126E86A1EBEFF0E1F6E206E125037
:1004F000800FF36E2050800FF35C08E11F50115CF9
:1005000005E11E50105C02E11D500F5C1CE2095019
:10051000135C096E0A5014580A6EE86A0ABEFF0E90
:10052000136E146E0950195E0A501A5A13501B5A52
:1005300014501C5A19500301A56F1A50A66F1B5076
:10054000A76F1C50A86F1850800FF36E0301A851BD
:10055000800FF35C08E1A751175C05E1A651165C1A
:1005600002E1A551155CD8B0D1D115500301A56F9A
:100570001650A66F1750A76F1850A86FC7D1185004
:10058000800FF36E0650800FF35C08E10550175C96
:1005900005E10450165C02E10350155CD8B0B6D1F9
:1005A0000B50035C096E0C5004580A6E0D50055830
:1005B000136E0E500658146E09500301A56F0A50B1
:1005C000A66F1350A76F1450A86FA0D1A9C309F04C
:1005D000AAC30AF0E86A0301AABFFF0E136E146EE5
:1005E0000B5009260C500A220D5013220E501422D3
:1005F0000950035C096E0A5004580A6E13500558DE
:10060000136E14500658146E09500301A56F0A505A
:10061000A66F1350A76F1450A86F78D1081E076CEF
:10062000D8B4082AE86A08BEFF0E096E0A6E125096
:10063000800FF36E0A50800FF35C08E10950115CE3
:1006400005E10850105C02E107500F5CD8B03BD1C7
:10065000181C0A6E171C096E161C086E151C076EF6
:10066000072A04E1082A02E1094A0A2A0A50800FEF
:10067000F36E0650800FF35C08E10550095C05E15C
:100680000450085C02E10350075CD8B0F5D0A9C360
:1006900013F0AAC314F0E86A0301AABFFF0E156E97
:1006A000166E1350035C136E14500458146E1550DC
:1006B0000558156E16500658166E13500301A56F97
:1006C0001450A66F1550A76F1650A86FABC313F048
:1006D000ACC314F0A9C315F0AAC316F01450800FD0
:1006E000F36E1650800FF35C02E11550135CD8B026
:1006F000A7D0A5C317F0A6C318F0A7C319F0A8C3C5
:100700001AF0D89019301C6E18301B6ED8901C321D
:100710001B32D8901C321B321A50E838E844E00BE8
:100720001C121A38E8441F0B1C1E1B6CD8B41C2A60
:10073000D89019301E6E18301D6ED8901E321D32A2
:100740001A50E840E840C00B1E121A40E8403F0B28
:100750001E1E1D6CD8B41E2AE86A1CBEFF0E1F6E3A
:10076000206EE86A1EBEFF0E216EE56E2150E56E1A
:100770001E50E56E1D50E56E2050E56E1F50E56E73
:100780001C50E56E1B50E56E79EC1DF01B6EF3CF2F
:100790001CF0F4CF1DF0E9CF1EF0080EE12613C0C7
:1007A0001FF014C020F0E86A14BEFF0E216EE56E43
:1007B0002150E56E2050E56E1F50E56E1E50E56E2F
:1007C0001D50E56E1C50E56E1B50E56E5FEC1FF092
:1007D0001B6EF3CF1CF0080EE1261C1E1B6CD8B458
:1007E0001C2AE86A1CBEFF0E1D6E800FF36E1250AD
:1007F000800FF35C08E111501D5C05E110501C5C9A
:1008000002E10F501B5C1CE21350155C136E145078
:100810001658146EE86A14BEFF0E0F6E106E135059
:100820001726145018220F50192210501A22175050
:100830000301A56F1850A66F1950A76F1A50A86F23
:100840000301A851800FF36E0A50800FF35C08E19A
:100850000950A75D05E10850A65D02E10750A55DBE
:10086000D8B054D007500301A56F0850A66F0950A7
:10087000A76F0A50A86F4AD00650800FF36E0A5037
:10088000800FF35C08E10950055C05E10850045C49
:1008900002E10750035CD8B039D00B500324076E37
:1008A0000C500420086E0D500520096E0E500620D5
:1008B0000A6E07500301A56F0850A66F0950A76F75
:1008C0000A50A86F23D0A9C307F0AAC308F0E86AAA
:1008D0000301AABFFF0E096E0A6E07500B260850CF
:1008E0000C2209500D220A500E220B5003260C50E8
:1008F00004220D5005220E50062203500301A56F5D
:100900000450A66F0550A76F0650A86FD89003013A
:10091000A731046EA631036ED89004320332A85179
:10092000E840E840C00B0412A841E8403F0BE8BA99
:10093000C009056E066A05BE06689F510326A051D0
:100940000422A1510522A251062203509F6F045098
:10095000A06F0550A16F0650A26FE56A100EE56EFC
:10096000800EE56E030EE56E9D0EE56E0250E56E9F
:100970000150E56E0050E56E4DEC26F0080EE126C4
:10098000E4CF23F0E4CF22F0E4CF21F0E4CF20F055
:10099000E4CF1FF0E4CF1EF0E4CF1DF0E4CF1CF055
:1009A000E4CF1BF0E4CF1AF0E4CF19F0E4CF18F055
:1009B000E4CF17F0E4CF16F0E4CF15F0E4CF14F055
:1009C000E4CF13F0E4CF12F0E4CF11F0E4CF10F055
:1009D000E4CF0FF0E4CF0EF0E4CF0DF0E4CF0CF055
:1009E000E4CF0BF0E4CF0AF0E4CF09F0E4CF08F055
:1009F000E4CF07F0E4CF06F0E4CF05F0E4CF04F055
:100A0000E4CF03F0E4CF02F0E4CF01F0E4CF00F054
:100A1000E4CFD9FF1200D9CFE5FFE1CFD9FF00C065
:100A2000E5FF01C0E5FF02C0E5FF03C0E5FF04C02C
:100A3000E5FF05C0E5FF06C0E5FF07C0E5FF08C00C
:100A4000E5FF09C0E5FF0AC0E5FF0BC0E5FF0CC0EC
:100A5000E5FF0DC0E5FF0EC0E5FF0FC0E5FF10C0CC
:100A6000E5FF11C0E5FF12C0E5FF13C0E5FF14C0AC
:100A7000E5FF15C0E5FF16C0E5FF17C0E5FF18C08C
:100A8000E5FF19C0E5FF1AC0E5FF1BC0E5FF1CC06C
:100A9000E5FF1DC0E5FF1EC0E5FF020EDBCF00F045
:100AA000030EDBCF01F0040EDBCF02F0050EDBCF2F
:100AB00003F0060EDBCF04F0070EDBCF05F0080EC7
:100AC000DBCF06F0090EDBCF07F00A0EDBCF08F014
:100AD000096A0A6A02C00DF00D50800A0DE1025049
:100AE0000301FD6F0150FC6F0050FB6F030E016EA0
:100AF000FB0E006E800E026E03C0E9FF04C0F3FF20
:100B00000550F8EC33F00B6E0B50D8B4C1EF08F081
:100B10000B50250A02E0A8EF08F00C6A0D6A0E6A75
:100B20000F6A106A0A0E116E126A136A146A200E96
:100B3000156E1668176A2B0E186E032A02E3044A14
:100B4000052A03C0E9FF04C0F3FF0550F8EC33F0B9
:100B5000196E250A13E11950E56E0250E56E015039
:100B6000E56E0050E56E2CEC24F0040EE126094AF7
:100B70000A2A032A02E3044A052ABED71950300A7A
:100B800006E1300E156E032A02E3044A052A03C06B
:100B9000E9FF04C0F3FF0550F8EC33F02D0A06E13D
:100BA000010E146E032A02E3044A052A03C0E9FF7A
:100BB00004C0F3FF0550F8EC33F0200A08E1010E01
:100BC000176E200E186E032A02E3044A052A03C09A
:100BD000E9FF04C0F3FF0550F8EC33F02B0A06E1FF
:100BE000010E176E032A02E3044A052A03C0E9FF37
:100BF00004C0F3FF0550F8EC33F0196E310E195CA8
:100C00002BE33A0E195C28E203C019F004C01AF075
:100C100005C01BF019C0E9FF1AC0F3FF1B50F8EC28
:100C200033F01C6E300E1C5C11E33A0E1C5C0EE2BD
:100C300013500A0DF3CF1DF01C501D26D00E1D249D
:100C4000136E192A02E31A4A1B2AE4D719C003F0CB
:100C50001AC004F01BC005F003C0E9FF04C0F3FF95
:100C60000550F8EC33F02E0A2DE1032A02E3044A82
:100C7000052A166A03C019F004C01AF005C01BF05B
:100C800019C0E9FF1AC0F3FF1B50F8EC33F01C6EDB
:100C9000300E1C5C11E33A0E1C5C0EE216500A0D7D
:100CA000F3CF1DF01C501D26D00E1D24166E192AE0
:100CB00002E31A4A1B2AE4D719C003F01AC004F051
:100CC0001BC005F003C0E9FF04C0F3FF0550F8ECBA
:100CD00033F0196E6C0A07E1010E0C6E032A02E371
:100CE000044A052A09D01950680A06E1010E0E6E61
:100CF000032A02E3044A052A03C0E9FF04C0F3FF04
:100D00000550F8EC33F0750A06E1010E106E032A67
:100D100002E3044A052A03C0E9FF04C0F3FF0550BB
:100D2000F8EC33F0196E730A05E1010E0D6E200E1A
:100D3000156E3FD01950780A03E1100E116E39D0AC
:100D40001950580A05E1100E116E010E126E31D0C5
:100D50001950630A02E1116A2CD019506F0A03E19D
:100D6000080E116E26D01950660A03E1010E0F6EAF
:100D700020D01950640A1DE01950690A1AE0105079
:100D800005E0FF0E03260422052213D01950E56E5C
:100D90000250E56E0150E56E0050E56E2CEC24F03B
:100DA000040EE126094A0A2A032A02E3044A052A14
:100DB000A3D60D5021E00650030F0D6E000E072044
:100DC000196E000E08201A6E0DC006F019C007F04B
:100DD0001AC008F0FD0E0D26FF0E19221A220DC0B2
:100DE000E9FF19C0F3FF1A50C3EC32F00D6EF3CFD8
:100DF00019F0F4CF1AF0FDD00F500DE0000E1A6E6E
:100E0000120E196E0A0E0D6E040E0626000E072233
:100E100008221668EED016680C5023E00650040F26
:100E20000C6E000E07200F6E000E08201B6E0CC00B
:100E300006F00FC007F01BC008F0FC0E0C26FF0EDA
:100E40000F221B220CC0E9FF0FC0F3FF1B5049EC1F
:100E500032F00C6EF3CF0FF0F4CF1BF0E9CF1CF0A3
:100E600067D00E502FE00650020F0E6E000E0720C6
:100E70001D6E000E08201E6E0EC006F01DC007F08D
:100E80001EC008F0FE0E0E26FF0E1D221E220EC0F2
:100E9000E9FF1DC0F3FF1E5082EC33F00E6E0EC052
:100EA0000CF00F6A1B6A1C6A11500A0A03E1105009
:100EB000D8B43ED00C500E6E0EC00CF00F6A1B6AF8
:100EC0001C6A36D00650020F0E6E000E07201D6EF3
:100ED000000E08201E6E0EC006F01DC007F01EC0DA
:100EE00008F0FE0E0E26FF0E1D221E220EC0E9FF88
:100EF0001DC0F3FF1E5082EC33F00E6EF3CF1DF0D9
:100F00000EC00CF01DC00FF0E86A1DBEFF0E1B6E78
:100F10001C6E11500A0A02E110500AE00C500E6ECD
:100F20000F501D6E0EC00CF01DC00FF01B6A1C6A26
:100F3000030E196EC80E0D6E800E1A6E1150D8B4C5
:100F400040D0105013E01150E56E030EE56EC80E50
:100F5000E56E1C50E56E1B50E56E0F50E56E0C50B3
:100F6000E56E83EC1EF0070EE12612D01150E56EFF
:100F7000030EE56EC80EE56E1C50E56E1B50E56E67
:100F80000F50E56E0C50E56E45EC2AF0070EE12699
:100F900017502FE00DC0E9FF19C0F3FF1A50F8EC0D
:100FA00033F02D0A26E0FF0E0D2619221A2218C052
:100FB000E5FF0DC0E9FF19C0F3FF1A5099EC34F0BA
:100FC00018D00CC0E5FF0DC0E9FF19C0F3FF1A509F
:100FD00099EC34F00D50010F0C6E000E19200E6EBE
:100FE000000E1A20E56A0CC0E9FF0EC0F3FF99EC71
:100FF00034F00DC00CF019C00EF01AC00FF013C081
:1010000010F0105010E00CC0E9FF0EC0F3FF0F50BD
:10101000F8EC33F0176E175006E00C2A02E30E4A84
:101020000F2A1006EED710C013F014501EE109C0AD
:101030000CF00AC00EF010C00FF00F5010E0155069
:10104000E56E0250E56E0150E56E0050E56E2CEC49
:1010500024F0040EE1260C4A0E2A0F06EED70CC02F
:1010600009F00EC00AF00FC013F016C00CF00DC04E
:101070000DF019C00EF01AC00FF009C010F00AC030
:1010800015F00DC0E9FF0EC0F3FF0F50F8EC33F080
:10109000166E1650D8B43ED00CC016F0176A161E45
:1010A000171E1650171005E00CC016F00C0616504F
:1010B00031E00DC0E9FF0EC0F3FF0F50F8EC33F044
:1010C000116E125010E01150E56E3FEC33F0166EC9
:1010D000E652165004E0DF0E1114166E02D011C055
:1010E00016F016C011F01150E56E0250E56E015079
:1010F000E56E0050E56E2CEC24F0040EE1260D2A7E
:1011000002E30E4A0F2A104A152A1350D8B4B9D751
:101110001306B7D710C009F015C00AF014502BE021
:1011200010C00CF015C00DF013C00EF00E501FE0F3
:10113000200EE56E0250E56E0150E56E0050E56E42
:101140002CEC24F0040EE1260C4A0D2A0E06EED7F4
:101150000B50E56E0250E56E0150E56E0050E56EF5
:101160002CEC24F0040EE126094A0A2A04D00CC013
:1011700009F00DC00AF0032A02E3044A052A7CEFB5
:1011800005F00AC0F3FF0950E4CF1EF0E4CF1DF0D4
:10119000E4CF1CF0E4CF1BF0E4CF1AF0E4CF19F059
:1011A000E4CF18F0E4CF17F0E4CF16F0E4CF15F059
:1011B000E4CF14F0E4CF13F0E4CF12F0E4CF11F059
:1011C000E4CF10F0E4CF0FF0E4CF0EF0E4CF0DF059
:1011D000E4CF0CF0E4CF0BF0E4CF0AF0E4CF09F059
:1011E000E4CF08F0E4CF07F0E4CF06F0E4CF05F059
:1011F000E4CF04F0E4CF03F0E4CF02F0E4CF01F059
:10120000E4CF00F0E4CFD9FF12003C4E4F20464C13
:101210004F41543E0000D9CFE5FFE1CFD9FF00C0D8
:10122000E5FF01C0E5FF02C0E5FF03C0E5FF04C024
:10123000E5FF05C0E5FF06C0E5FF07C0E5FF08C004
:10124000E5FF09C0E5FF0AC0E5FF0BC0E5FF0CC0E4
:10125000E5FF0DC0E5FF020EDBCF00F0030EDBCF94
:1012600001F0040EDBCF02F00050090F066E000EF5
:101270000120076E000E0220086E0B6E07500A6EEA
:101280000650096EE56A0D0EE56E0B50E56E0A50CC
:10129000E56E0950E56E800EE56E030EE56EAD0E4F
:1012A000E56E4DEC26F0080EE12600C009F001C005
:1012B0000AF002C00BF0E56AE56E0B50E56E0A50CD
:1012C000E56E0950E56E800EE56E040EE56E810E4A
:1012D000E56E4DEC26F0080EE12681C403F00350C4
:1012E000010A04E00350030A01E013D10301B551E0
:1012F0000301C25D0501046F0301B6510301C35927
:101300000501056F0301C2510301B56F0301C3510C
:101310000301B66F0301C4510301B76F0301C55147
:101320000301B86F050104510511D8A47ED00BEC60
:1013300031F0036EF3CF04F0F4CF05F0E9CF09F0FC
:101340000301BA510A6EBB510B6EBC510C6EBD51FC
:101350000D6E0A50035E0B50045A0C50055A0D5086
:10136000095A03500401F86F0450F96F0550FA6FE1
:101370007F0E0914FB6F0301B9B125D00401F935C3
:10138000FB31046EFA31036E043404320332000E72
:1013900004BEFF0E096E056E86C40AF00B6A0C6A65
:1013A0000D6A0D50800FF36E0950800FF35C08E159
:1013B00005500C5C05E104500B5C02E103500A5C33
:1013C00002E20301B9810301B9B149D0B1C303F00D
:1013D000B2C304F0B3C305F0B4C309F00401FB5178
:1013E000800FF36E0950800FF35C08E10550FA5D41
:1013F00005E10450F95D02E10350F85D08E203C025
:10140000F8F404C0F9F405C0FAF409C0FBF40301D0
:10141000C6A304D0010E036E046A02D003680468F8
:1014200003C004F504C005F51AD00301B991BEC389
:10143000F8F4BFC3F9F4C0C3FAF4C1C3FBF4040168
:10144000F8510301B16F0401F9510301B26F0401B6
:10145000FA510301B36F0401FB510301B46F04019E
:10146000FB51800F800F08E1000EFA5D05E1000ED0
:10147000F95D02E1010EF85D06E20401FC6BFD6B13
:10148000FE6BFF6B46D00401F851036EF951046EF8
:10149000FA51056EFB51E56E0550E56E0450E56EA0
:1014A0000350E56E010EE56E000EE56AE56AE56A39
:1014B00082EC22F0036EF3CF04F0F4CF05F0E9CF15
:1014C00009F0080EE12604C50AF005C50BF0E86A2C
:1014D000050105BFFF0E0C6E0D6E0950E56E05503F
:1014E000E56E0450E56E0350E56E0D50E56E0C5050
:1014F000E56E0B50E56E0A50E56E79EC1DF00401C7
:10150000FC6FF3CFFDF4F4CFFEF4E9CFFFF4080E47
:10151000E126020E0401815DD8A045D10301C6A1D8
:1015200042D10050230F036E000E0120046E000E06
:101530000220E56E0450E56E0350E56E0EEC00F0FF
:10154000030EE1260050230F036E000E0120046EEF
:10155000000E0220056E020E0326000E0422052254
:1015600003C0E9FF04C0F3FF055049EC32F0F3CFAC
:1015700004F0F4CF05F0E9CF09F00450036E0550F4
:10158000046ED89004320332D890043203320950EA
:10159000E840E840C00B04120940E8403F0BE8BABD
:1015A000C009056E096A05BE09680301C251035CE2
:1015B0000301D46F0301C35104580301D56F030124
:1015C000C45105580301D66F0301C55109580301E1
:1015D000D76FD880D7AFD89022E30401831D046E63
:1015E000821D036E034A042AE86A04BEFF0E056EDC
:1015F000096E0301D751800FF36E0950800FF35C21
:1016000008E10550D65D05E10450D55D02E10350C7
:10161000D45D05E30301D46BD56BD66BD76B0301A7
:10162000D751800F800F08E1000ED65D05E1000E56
:10163000D55D02E1010ED45D1EE382C403F083C4D4
:1016400004F0E86A040183BFFF0E056E800FF36E9D
:101650000301D751800FF35C08E1D651055C05E129
:10166000D551045C02E1D451035C05E30301D46B62
:10167000D56BD66BD76B0401875109E0E86CD89025
:101680000301D437D537D637D737010FF9E3030134
:10169000D751800F800F08E1000ED65D05E1800E66
:1016A000D55D02E1000ED45D07E30301D4697F0E2E
:1016B000D56FD66BD76B14D00301D751800F810F34
:1016C00008E1FF0ED65D05E1800ED55D02E1000E5A
:1016D000D45D06E20301D46B800ED56FD669D7695D
:1016E0000050330F036E000E0120046E000E022026
:1016F000056E0301D451096ED551E56E0950E56EB2
:101700000550E56E0450E56E0350E56E91EC0CF06B
:10171000050EE12604018151030A23E10050330F35
:10172000036E000E0120046E000E0220056E0B0EEB
:101730000326000E0422052203C0E9FF04C0F3FFC4
:10174000055049EC32F0F3CF04F0F4CF05F004502B
:10175000036E0550046E03500301AD6F0450AE6F6D
:1017600022D00050330F036E000E0120046E000ED5
:101770000220056E0B0E0326000E0422052203C074
:10178000E9FF04C0F3FF055049EC32F0F3CF04F059
:10179000F4CF05F00450036E0550046E03500301AE
:1017A000AF6F0450B06F81C403F00350010A04E02E
:1017B0000350030A01E07DD0ADC303F0AEC304F0D3
:1017C000E86A0301AEBFFF0E056E096E0401FC510D
:1017D000035C0301D46F0401FD5104580301D56F6C
:1017E0000401FE5105580301D66F0401FF51095849
:1017F0000301D76F800F800F08E1000ED65D05E171
:10180000800ED55D02E1000ED45D07E30301D469CB
:101810007F0ED56FD66BD76B14D00301D751800FD5
:10182000810F08E1FF0ED65D05E1800ED55D02E176
:10183000000ED45D06E20301D46B800ED56FD6692D
:10184000D7690050440F036E000E0120046E000E95
:101850000220056E0301D451096ED551E56E095081
:10186000E56E0550E56E0450E56E0350E56E91ECB3
:101870000CF0050EE126440E0026000E0122022285
:101880000B0E0026000E0122022200C0E9FF01C05B
:10189000F3FF025049EC32F0F3CF01F0F4CF02F045
:1018A0000150006E0250016E00500301AF6F0150F5
:1018B000B06F0850086EE56A0D0EE56E800EE56E9D
:1018C000030EE56EAD0EE56E0850E56E0750E56E51
:1018D0000650E56E4DEC26F0080EE126E4CF0DF043
:1018E000E4CF0CF0E4CF0BF0E4CF0AF0E4CF09F042
:1018F000E4CF08F0E4CF07F0E4CF06F0E4CF05F042
:10190000E4CF04F0E4CF03F0E4CF02F0E4CF01F041
:10191000E4CF00F0E4CFD9FF120025642025640A4B
:101920000000D9CFE5FFE1CFD9FF00C0E5FF01C03E
:10193000E5FF02C0E5FF03C0E5FF04C0E5FF05C009
:10194000E5FF06C0E5FF07C0E5FF08C0E5FF09C0E9
:10195000E5FF0AC0E5FF0BC0E5FF0CC0E5FF0DC0C9
:10196000E5FF0EC0E5FF020EDBCF00F0030EDBCF7C
:1019700001F0040EDBCF02F0050EDBCF03F0060E04
:10198000DBCF04F002500A6E0150096E0050086E61
:10199000E56A110EE56E0A50E56E0950E56E0850D5
:1019A000E56E800EE56E040EE56E230EE56E4DECE1
:1019B00026F0080EE12632C405F033C406F0E86ACA
:1019C000040133BFFF0E076E0301DF6F0650DE6FA9
:1019D0000550DD6FDC6B03C005F004C006F0E86A5B
:1019E00004BEFF0E076E086E23C409F0E56AE56ABF
:1019F000E56A0950E56E0850E56E0750E56E065041
:101A0000E56E0550E56E79EC1DF00301D86FF3CF5C
:101A1000D9F3F4CFDAF3E9CFDBF3080EE1260401C2
:101A20002451D8B4E3D00450800F800F02E1010E9E
:101A3000035C25E304012951800F7C0F08E1000EAF
:101A4000285D05E1000E275D02E1000E265D17E22C
:101A500004013151800FF36E0301DF51800FF35CFD
:101A60000DE1DE510401305D09E10301DD510401A6
:101A70002F5D04E10301DC5104012E5D33E3D880C6
:101A800004AED890D8A043D004012951800F840F10
:101A900008E1000E285D05E1000E275D02E1010E60
:101AA000265D35E30301DF1D0C6EDE1D0B6EDD1DB3
:101AB0000A6EDC1D096E092A04E10A2A02E10B4ABA
:101AC0000C2A0C50800FF36E04013151800FF35C2F
:101AD00008E130510B5C05E12F510A5C02E12E5107
:101AE000095C15E2055004012625096E06502721E0
:101AF0000A6E075028210B6E085029210C6E0950E0
:101B0000266F0A50276F0B50286F0C50296F035017
:101B1000041031E126C403F027C404F028C409F0FE
:101B200029C40AF0E56AE56AE56A100EE56E0A5016
:101B3000E56E0950E56E0450E56E0350E56E5FEC0E
:101B40001FF00B6EF3CF0CF0F4CF0DF0E9CF0EF0D9
:101B5000080EE1260B50035E0C50045A0D50095A32
:101B60000E500A5A03500401266F0450276F095083
:101B7000286F0A50296F040126390F0B036E27398D
:101B8000046EF00B041A03262851E838F00B0412F7
:101B900028390F0B096E29390A6EF00B0A1A09262B
:101BA000F00E0AB60A2624C40BF0E56AE56AE56A77
:101BB0000B50E56E0A50E56E0950E56E0450E56E77
:101BC0000350E56E79EC1DF0036EF3CF04F0F4CF13
:101BD00009F0E9CF0AF0080EE12603500301D827E7
:101BE0000450D9230950DA230A50DB23040125517C
:101BF000D8B465D02A51055C0301E06F04012B5174
:101C000006580301E16F04012C5107580301E26FEC
:101C100004012D5108580301E36F800F800F08E184
:101C2000010EE25D05E1000EE15D02E1000EE05D06
:101C300006E30301E069E169E26BE36B13D00301A2
:101C4000E351800F810F08E1FF0EE25D05E1000E18
:101C5000E15D02E1000EE05D05E20301E06BE16B96
:101C6000E269E3690301E051E025036EE135046EAA
:101C7000E235096EE3350A6E25C40BF0E56AE56AC4
:101C8000E56A0B50E56E0A50E56E0950E56E0450AA
:101C9000E56E0350E56E79EC1DF0036EF3CF04F0B2
:101CA000F4CF09F0E9CF0AF0080EE1260350030152
:101CB000D8270450D9230950DA230A50DB230550D2
:101CC00004012A6F06502B6F07502C6F08502D6FA0
:101CD0000301DF51800FF36E0301DB51800FF35CD2
:101CE0000DE1DA510301DE5D09E10301D951030180
:101CF000DD5D04E10301D8510301DC5D11E2030164
:101D0000DC5104012E6F0301DD5104012F6F03012B
:101D1000DE510401306F0301DF510401316F3AD00D
:101D20000301DF1D066EDE1D056EDD1D046EDC1D6C
:101D3000036E032A04E1042A02E1054A062A03018C
:101D4000DB51800FF36E0650800FF35C08E1055005
:101D5000DA5D05E10450D95D02E10350D85D0AE285
:101D6000035004012E6F04502F6F0550306F065042
:101D7000316F10D00301D85104012E6F0301D951E6
:101D800004012F6F0301DA510401306F0301DB51AD
:101D90000401316FE56A110EE56E800EE56E040EEA
:101DA000E56E230EE56E0250E56E0150E56E0050C3
:101DB000E56E4DEC26F0080EE126E4CF0EF0E4CF00
:101DC0000DF0E4CF0CF0E4CF0BF0E4CF0AF0E4CF59
:101DD00009F0E4CF08F0E4CF07F0E4CF06F0E4CF59
:101DE00005F0E4CF04F0E4CF03F0E4CF02F0E4CF59
:101DF00001F0E4CF00F0E4CFD9FF120000C0E5FF0E
:101E000001C0E5FF02C0E5FF03C0E5FF04C0E5FF38
:101E100005C0E5FF06C0E5FF07C0E5FF08C0E5FF18
:101E2000C2A204D003018C5142EF11F003018D5185
:101E3000D8B436D103018C51020DF450016EF3CFAA
:101E400000F0E00E0026000E012200C0E9FF01C0F4
:101E5000EAFFEECF00F0EFCF01F0230E8C25026EEB
:101E6000036A0F0E032202C0E9FF03C0EAFFEFCFAF
:101E700002F00250FF0A01E16DD009C0E5FFF2CF88
:101E800009F0F29E02380F0B046E920E0424056EC8
:101E9000066A0F0E0622076A920E04260F0E07220C
:101EA00004C0E9FF07C0EAFFEFCF04F00250076E5D
:101EB000070E0716010E086E07500DE006E6E86CE7
:101EC000D8900836010FFDE306D0D89008BED88020
:101ED0000832010FFBE3081C076E0450071605C00B
:101EE000E9FF06C0EAFF07C0EFFF02380F0B046EE0
:101EF000890E0424056E066A0F0E0622076A890EF3
:101F000004260F0E072204C0E9FF07C0EAFFEFCF47
:101F100004F0070E0216010E076E02500DE006E6F1
:101F2000E86CD8900736010FFDE306D0D89007BEC5
:101F3000D8800732010FFBE3071C026E0450021623
:101F400005C0E9FF06C0EAFF02C0EFFF09BEF28E3E
:101F5000E4CF09F003018C51020DF450036EF3CF6E
:101F600002F0E00E0226000E032201340130056E5D
:101F70000030046E05340532043205340532043273
:101F80000450005C046E05500158056EC3CF00F08C
:101F9000016A0050042601500522C4CF00F0016AF6
:101FA0000050076E066A065004260750052202C03C
:101FB000E9FF03C0EAFF04C0EEFF05C0EFFF030125
:101FC0008851010A01E06AD003018C51020DF450DE
:101FD000016EF3CF00F0E00E0024026E000E01202F
:101FE000036E02C0E9FF03C0EAFFEECF02F0EFCFBD
:101FF00003F0000E0026030E012200C0E9FF01C01D
:10200000EAFFEECF04F0EFCF05F09C0E0426D8A037
:1020100005060350800FF36E0550800FF35C02E15C
:102020000450025C0EE20250640F046E000E0320A6
:10203000056E00C0E9FF01C0EAFF04C0EEFF05C065
:10204000EFFF03018C51020DF450016EF3CF00F04D
:10205000200E0026030E012200C0E9FF01C0EAFFA6
:10206000EECF04F0EFCF05F0640E0426D8B0052AB9
:102070000550800FF36E0350800FF35C02E10250B5
:10208000045C0CE29C0E0226D8A0030600C0E9FF07
:1020900001C0EAFF02C0EEFF03C0EFFF03018D6B3A
:1020A00003018C2B100E8C5DD8B08C6B8C39E844FE
:1020B0001F0B006E016A000E0026050E012200C0F3
:1020C000E9FF01C0EAFFEFCF00F08CC301F0070E7B
:1020D0000116010E026E000E036E015006E0E86C60
:1020E000D89002360336010FFCE3046A0050021652
:1020F0000450031602500310D880E866D890026A94
:1021000002360250D8A4BCD0E80E03018C25006E24
:10211000016A040E012200C0E9FF01C0EAFFEFCF0F
:1021200000F00044E844FC0B016E0128C26E230E4F
:102130008C25006E016A0F0E012200C0E9FF01C06C
:10214000EAFFEFCF00F00050FF0A01E195D009C08F
:10215000E5FFF2CF09F0F29E00380F0B026E920EEF
:102160000224036E046A0F0E0422056A920E0226F0
:102170000F0E052202C0E9FF05C0EAFFEFCF02F013
:102180000050056E070E0516010E066E05500DE097
:1021900006E6E86CD8900636010FFDE306D0D8902D
:1021A00006BED8800632010FFBE30250061203C0C0
:1021B000E9FF04C0EAFF06C0EFFF09BEF28EE4CFDC
:1021C00009F0380E016E0F0E026E00380F0B036E11
:1021D000046A0350012604500222380E056E0F0EC9
:1021E000066E055003260650042203C0E9FF04C012
:1021F000EAFFEFCF03F0070E0016010E046E005049
:102200000DE006E6E86CD8900436010FFDE306D039
:10221000D89004BED8800432010FFBE303500412AF
:1022200001C0E9FF02C0EAFF04C0EFFF0F014583D0
:102230000000000045930F01449309C0E5FFF2CF71
:1022400009F0F29E44810000000000000000000040
:10225000000000000000000000000000000000007E
:102260000000000000000000000000000000449199
:1022700009BEF28EE4CF09F0C282010E03018D6F18
:1022800003018C51E4CF08F0E4CF07F0E4CF06F06F
:10229000E4CF05F0E4CF04F0E4CF03F0E4CF02F0A4
:1022A000E4CF01F0E4CF00F0120000C0E5FF01C070
:1022B000E5FF02C0E5FF03C0E5FF04C0E5FF05C080
:1022C000E5FF06C0E5FF07C0E5FF08C0E5FF09C060
:1022D000E5FF0AC0E5FF0BC0E5FF0CC0E5FF006AA3
:1022E000016A026A040E025CD8B0EBD1100E015CE8
:1022F000D8B0E7D1012A03018E2B100E8E5DD8B025
:102300008E6B8E39E8441F0B036E046A000E0326A1
:10231000050E042203C0E9FF04C0EAFFEFCF03F07B
:102320008EC304F0070E0416010E056E000E066E35
:10233000045006E0E86CD89005360636010FFCE341
:10234000076A035005160750061605500610D88078
:10235000E866D890056A05360550D8A4C3D70301AE
:102360008E51020DF450046EF3CF03F0E00E0324FF
:10237000056E000E0420066E05C0E9FF06C0EAFFE8
:10238000EECF05F0EFCF06F08BC307F007A09DD08E
:10239000000E0324076E030E0420086E07C0E9FF39
:1023A00008C0EAFFEECF07F0EFCF08F00650800F2D
:1023B000F36E0850800FF35C02E10750055C03E206
:1023C000056A066A60D0200E0326030E042203C0AD
:1023D000E9FF04C0EAFFEECF03F0EFCF04F00450B2
:1023E000800FF36E0650800FF35C02E10550035C32
:1023F00004E205683F0E066E46D00750055C096E84
:10240000085006580A6EE86A0ABEFF0E0B6EE56EAB
:102410000B50E56E0A50E56E0950E56EE56AE56A17
:10242000400EE56E000EE56A79EC1DF0096EF3CF03
:102430000AF0F4CF0BF0E9CF0CF0080EE1260750BC
:10244000035C076E08500458086EE86A08BEFF0E69
:10245000036EE56E0350E56E0850E56E0750E56EBD
:102460000C50E56E0B50E56E0A50E56E0950E56EB6
:1024700082EC22F0036EF3CF04F0080EE126035045
:10248000056E0450066E03018A51800FF36E0650EC
:10249000800FF35C02E10550895D03E3056A066A7B
:1024A00014D003018951FF08036E3F0E8A55046E54
:1024B0000650800FF36E0450800FF35C02E103506E
:1024C000055C03E305683F0E066E03018E51020DA5
:1024D000F450046EF3CF03F0590E0326040E0422C9
:1024E00003C0E9FF04C0EAFFEECF03F0EFCF04F032
:1024F0000350055C036E04500658046ED88004AE89
:10250000D89004E3041E036CD8B4042A022A030101
:102510008A51800FF36E0450800FF35C02E1035088
:10252000895DD8B0DFD603018E51020DF450046EE0
:10253000F3CF03F0590E0326040E042203C0E9FF73
:1025400004C0EAFF05C0EEFF06C0EFFF8BC303F037
:1025500003A459D08E51020DF450046EF3CF03F052
:10256000400E0324076E030E0420086E07C0E9FF27
:1025700008C0EAFFEECF09F0EFCF0AF009500A10C9
:10258000D8B441D0390E0326040E042203C0E9FF5B
:1025900004C0EAFFEECF03F0EFCF04F00350055C78
:1025A000036E04500658046E03101CE00450800FA4
:1025B000800F02E1010E035C0B6A0B360A50800F9C
:1025C000800F02E1010E095C096A09360B500918F7
:1025D00009E107C0E9FF08C0EAFF03C0EEFF04C03D
:1025E000EFFF80D603018E51020DF450046EF3CF3D
:1025F00003F0400E0326030E042203C0E9FF04C0CB
:10260000EAFFEE6AEF6A8BC303F003A246D00050E4
:102610000EE100C003F0002A046A8F0E0326030EA9
:10262000042203C0E9FF04C0EAFF420EEF6E00C0BF
:1026300003F00028046E076A8F0E0326030E07229C
:1026400003018E51086E640E082603C0E9FF07C01F
:10265000EAFF08C0EFFF04C003F0042A076A8F0EE8
:102660000326030E07220650086E03C0E9FF07C0C9
:10267000EAFF08C0EFFF04C003F00428006E046AFC
:102680008F0E0326030E04220550076E03C0E9FFD8
:1026900004C0EAFF07C0EFFF25D68EC303F0065043
:1026A000E56E0550E56EE56A0350E56E000EE56ED9
:1026B0004C0EE56E8E0EE56ED4EC2EF0070EE12684
:1026C00011D602C001F000501EE08BC302F002A23E
:1026D0001AD000C002F0002A036A8F0E0226030EF1
:1026E000032202C0E9FF03C0EAFF0A0EEF6E0050AA
:1026F000E56E800EE56E030EE56E8F0EE56ECFEC97
:1027000026F0040EE1260150E4CF0CF0E4CF0BF0EC
:10271000E4CF0AF0E4CF09F0E4CF08F0E4CF07F00B
:10272000E4CF06F0E4CF05F0E4CF04F0E4CF03F00B
:10273000E4CF02F0E4CF01F0E4CF00F01200D9CFF3
:10274000E5FFE1CFD9FF00C0E5FF01C0E5FF02C012
:10275000E5FF03C0E5FF04C0E5FF05C0E5FF06C0D7
:10276000E5FF07C0E5FF08C0E5FF09C0E5FF0AC0B7
:10277000E5FF020EDBCF00F0030EDBCF01F0040E0D
:10278000DBCF02F0036A046A5FEC31F0056EFE0AEB
:1027900001E075D0C1EC2CF05FEC31F0066E030E59
:1027A000065CD8A05AD0060E065CD8B056D0FD0EF6
:1027B0000624076EFA6AFB6A0734FA36E834FA36FA
:1027C000FC0BD20FE56E270EFA22000EFB22E4501E
:1027D000F96EEFEF13F001EF14F01AEF14F0005060
:1027E000090F076E000E0120086E000E022007C0C0
:1027F000E9FF08C0F3FF82EC33F0036EF3CF04F07F
:102800002CD00050090F076E000E0120086E000E3C
:102810000220096E020E0726000E0822092207C0B8
:10282000E9FF08C0F3FF095082EC33F0036EF3CFE9
:1028300004F013D00050070F076E000E0120086E41
:10284000000E022007C0E9FF08C0F3FFF8EC33F0E8
:10285000010B076E07C003F0046A0450E56E0350D5
:10286000E56EE56A0650E56E000EE56E190EE56E42
:102870001A0EE56ED4EC2EF0070EE12686D1080E76
:10288000055CD8B082D1FA6AFB6A0534FA36E834BE
:10289000FA36FC0BA40FE56E280EFA22000EFB227E
:1028A000E450F96E62EF14F07DEF14F08FEF14F046
:1028B000A1EF14F0C9EF14F0F5EF14F014EF15F0D8
:1028C00071EF15F00050230F036E000E0120046E0F
:1028D000000E0220E56E0450E56E0350E56EDEEC5E
:1028E00015F0030EE126020EE56E00C0E9FF01C0FF
:1028F000F3FF025099EC34F048D10050330F036ECF
:10290000000E0120046E000E0220E56E0450E56EFC
:102910000350E56EFCEC19F0030EE12636D10050B1
:10292000440F036E000E0120046E000E0220E56EBF
:102930000450E56E0350E56EFCEC19F0030EE12641
:1029400024D10050090F036E000E0120046E000E0A
:102950000220056E5FEC31F0066A076E5FEC31F025
:10296000096A06260950072206C0E5FF07C0F4FFE2
:1029700003C0E9FF04C0F3FF055060EC34F0010E22
:10298000E56E00C0E9FF01C0F3FF025099EC34F09E
:10299000FCD00050090F036E000E0120046E000EE3
:1029A0000220056E020E0326000E042205225FECB3
:1029B00031F0066A076E5FEC31F0096A06260950AD
:1029C000072206C0E5FF07C0F4FF03C0E9FF04C00B
:1029D000F3FF055060EC34F0E56A00C0E9FF01C088
:1029E000F3FF025099EC34F0D0D00050070F036E83
:1029F000000E0120046E000E0220056E5FEC31F027
:102A0000010BF46E03C0E9FF04C0F3FF0550F8ECBE
:102A100033F0FE0BF410E56E03C0E9FF04C0F3FFD2
:102A2000055099EC34F0B1D05FEC31F0036E0050FA
:102A3000160F046E000E0120056E000E0220066EB9
:102A400004500C0F076E000E0520086E000E0620C5
:102A5000096E0350D880E866D8900A6A0A360A5090
:102A6000D880E866D8900A6A0A360A50010BF46EDC
:102A700007C0E9FF08C0F3FF0950F8EC33F0FE0B84
:102A8000F410E56E07C0E9FF08C0F3FF095099ECA8
:102A900034F00350010A01E078D0080E0426000E3D
:102AA00005220622E56AF46AF66AF76A04C0E9FFBD
:102AB00005C0F3FF0650E7EC33F00050230F036E20
:102AC000000E0120046E000E0220E56AE56AE56E44
:102AD0000450E56E0350E56E9FEC23F0050EE126F1
:102AE00054D05FEC31F0036A046E5FEC31F0066A9B
:102AF0000326065004220050160F056E000E01201A
:102B0000066E000E0220076E05500C0F086E000EB8
:102B10000620096E000E07200A6E08C0E9FF09C0F2
:102B2000F3FFF8EC33F0E880E56E08C0E9FF09C078
:102B3000F3FF0A5099EC34F0080E0526000E062229
:102B4000072203C008F004C009F008C0E5FF09C06F
:102B5000F4FFF66AF76A05C0E9FF06C0F3FF075005
:102B6000E7EC33F0230E0026000E0122022204506F
:102B7000E56E0350E56E0250E56E0150E56E0050C3
:102B8000E56E0DEC29F0050EE126E4CF0AF0E4CF66
:102B900009F0E4CF08F0E4CF07F0E4CF06F0E4CF8B
:102BA00005F0E4CF04F0E4CF03F0E4CF02F0E4CF8B
:102BB00001F0E4CF00F0E4CFD9FF1200D9CFE5FF58
:102BC000E1CFD9FF00C0E5FF01C0E5FF02C0E5FF8E
:102BD00003C0E5FF04C0E5FF05C0E5FF06C0E5FF53
:102BE00007C0E5FF08C0E5FF09C0E5FF0AC0E5FF33
:102BF000020EDBCF00F0030EDBCF01F0040EDBCFC3
:102C000002F0036A046A5FEC31F0056EFE0A01E02F
:102C100094D0C1EC2CF05FEC31F0066E06500EE063
:102C20000650010A1DE00650020A2CE006500A0A6E
:102C30003BE006500B0A01E142D06DD00050060F78
:102C4000076E000E0120086E000E022007C0E9FF8B
:102C500008C0F3FF82EC33F0036EF3CF04F05BD0D7
:102C600000500C0F076E000E0120086E000E0220AF
:102C700007C0E9FF08C0F3FF82EC33F0036EF3CF27
:102C800004F049D000500E0F076E000E0120086EB0
:102C9000000E022007C0E9FF08C0F3FF82EC33F00A
:102CA000036EF3CF04F037D000C0E9FF01C0F3FF9B
:102CB000025082EC33F0036EF3CF04F02CD00050BE
:102CC000020F076E000E0120086E000E0220096E32
:102CD00007C0E9FF08C0F3FF095049EC32F0F3CF19
:102CE00008F0F4CF09F0E9CF0AF00850076E095058
:102CF000086ED89008320732D890083207320A504E
:102D0000E840E840C00B08120A40E8403F0B07507B
:102D1000036E0850046E0450E56E0350E56EE56ADC
:102D20000650E56E000EE56E590EE56E7A0EE56E04
:102D3000D4EC2EF0070EE126BDD0055014E005506E
:102D4000010A30E00550020A01E14BD005500A0AA1
:102D500001E166D005500B0A01E17BD005500C0A59
:102D600001E190D0A7D00050060F036E000E0120A5
:102D7000046E000E0220056E5FEC31F0066A076EED
:102D80005FEC31F0096A06260950072206C0E5FF0C
:102D900007C0F4FF03C0E9FF04C0F3FF055060EC77
:102DA00034F088D000500C0F036E000E0120046E2A
:102DB000000E0220056E5FEC31F0066A076E5FECD4
:102DC00031F0096A06260950072206C0E5FF07C050
:102DD000F4FF03C0E9FF04C0F3FF055060EC34F0DA
:102DE00069D000500E0F036E000E0120046E000E1D
:102DF0000220056E5FEC31F0066A076E5FEC31F081
:102E0000096A06260950072206C0E5FF07C0F4FF3D
:102E100003C0E9FF04C0F3FF055060EC34F04AD072
:102E20005FEC31F0036A046E5FEC31F0066A032652
:102E3000065004220450E56E0350E56E0250E56E24
:102E40000150E56E0050E56E41EC30F0050EE126D4
:102E500031D05FEC31F0036A046E5FEC31F0066A4A
:102E60000326065004220450E56E0350E56E02501E
:102E7000E56E0150E56E0050E56E9FEC23F0050E07
:102E8000E12618D05FEC31F0036A046E5FEC31F09C
:102E9000066A0326065004220450E56E0350E56ED0
:102EA0000250E56E0150E56E0050E56E0DEC29F024
:102EB000050EE126E4CF0AF0E4CF09F0E4CF08F0F4
:102EC000E4CF07F0E4CF06F0E4CF05F0E4CF04F060
:102ED000E4CF03F0E4CF02F0E4CF01F0E4CF00F060
:102EE000E4CFD9FF120000C0E5FF01C0E5FF02C03A
:102EF000E5FF03C0E5FF05C0E5FFD1EC34F0949297
:102F00008B920BEC31F0F3CF01F0F4CF02F0E9CF6C
:102F100003F0880F0401346F130E0120356F000E8B
:102F20000220366F000E0320376FCAEC25F0928422
:102F3000800E006E0F0E016E0F0E036E380E00260F
:102F400003500122800E026E0F0E036E800E005E93
:102F50000350015A0F0E056E380E0226055003224B
:102F60000F0E056E800E025E0550035A02C0E9FF87
:102F700003C0EAFFEFCF02F0028400C0E9FF01C006
:102F8000EAFF02C0EFFF020EE56E000EE56AA1EC5B
:102F900028F0E652E652899A899E898C8982929A13
:102FA000929E929C929204019283800E006E040E77
:102FB000016E0F0E036E380E0026035001220F0E15
:102FC000036E800E005E0350015A800E026E040EE6
:102FD000036E0F0E056E380E0226055003220F0EEB
:102FE000056E800E025E0550035A02C0E9FF03C061
:102FF000EAFFEFCF02F0029200C0E9FF01C0EAFF52
:1030000002C0EFFF9283800E006E040E016E0F0E61
:10301000036E380E0026035001220F0E036E800E41
:10302000005E0350015A800E026E040E036E0F0EF6
:10303000056E380E0226055003220F0E056E800E17
:10304000025E0550035A02C0E9FF03C0EAFFEFCF5A
:1030500002F0029200C0E9FF01C0EAFF02C0EFFFE8
:103060009283800E006E040E016E0F0E036E380EFA
:103070000026035001220F0E036E800E005E0350E7
:10308000015A800E026E040E036E0F0E056E380E8E
:103090000226055003220F0E056E800E025E0550BB
:1030A000035A02C0E9FF03C0EAFFEFCF02F0029229
:1030B00000C0E9FF01C0EAFF02C0EFFF0C0E0F01E4
:1030C000546F0F01549B54990F01556B9298040152
:1030D000936B020E946F956B0A0E966F976B100EA2
:1030E000986F070E996F9A919A83800EE56E040E81
:1030F000E56EB60EE56E6EEC2CF0030EE126800E4A
:10310000E56E040EE56ED70EE56ECBEC20F0030EF7
:10311000E126800EE56E040EE56EC60EE56ECBEC84
:1031200020F0030EE1260401B16BB26BB36BB46BFC
:10313000B591B5959C6B9D6B9E6B9F6BA46BA56BBE
:10314000A66BA76B9A83020E946F956B960E966F83
:10315000976B060E996FB8EC34F0E4CF05F0E4CF2E
:1031600003F0E4CF02F0E4CF01F0E4CF00F012006E
:10317000430025630000800EE56E030EE56E200E11
:10318000E56E63EC2DF0030EE126800EE56E030E76
:10319000E56E000EE56E63EC2DF0030EE126800E69
:1031A000E56E030EE56E220EE56E63EC2DF0030E68
:1031B000E126800EE56E030EE56E020EE56E63EC11
:1031C0002DF0030EE126800EE56E030EE56E240E53
:1031D000E56E63EC2DF0030EE126800EE56E030E26
:1031E000E56E040EE56E63EC2DF0030EE126800E15
:1031F000E56E030EE56E260EE56E63EC2DF0030E14
:10320000E126800EE56E030EE56E060EE56E63ECBC
:103210002DF0030EE126800EE56E030EE56E280EFE
:10322000E56E63EC2DF0030EE126800EE56E030ED5
:10323000E56E080EE56E63EC2DF0030EE126800EC0
:10324000E56E030EE56E2A0EE56E63EC2DF0030EBF
:10325000E126800EE56E030EE56E0A0EE56E63EC68
:103260002DF0030EE126800EE56E030EE56E2C0EAA
:10327000E56E63EC2DF0030EE126800EE56E030E85
:10328000E56E0C0EE56E63EC2DF0030EE126800E6C
:10329000E56E030EE56E2E0EE56E63EC2DF0030E6B
:1032A000E126800EE56E030EE56E0E0EE56E63EC14
:1032B0002DF0030EE126800EE56E030EE56E300E56
:1032C000E56E63EC2DF0030EE126800EE56E030E35
:1032D000E56E100EE56E63EC2DF0030EE126800E18
:1032E000E56E030EE56E320EE56E63EC2DF0030E17
:1032F000E126800EE56E030EE56E120EE56E63ECC0
:103300002DF0030EE126800EE56E030EE56E340E01
:10331000E56E63EC2DF0030EE126800EE56E030EE4
:10332000E56E140EE56E63EC2DF0030EE126800EC3
:10333000E56E030EE56E360EE56E63EC2DF0030EC2
:10334000E126800EE56E030EE56E160EE56E63EC6B
:103350002DF0030EE126800EE56E030EE56E380EAD
:10336000E56E63EC2DF0030EE126800EE56E030E94
:10337000E56E180EE56E63EC2DF0030EE126800E6F
:10338000E56E030EE56E3A0EE56E63EC2DF0030E6E
:10339000E126800EE56E030EE56E1A0EE56E63EC17
:1033A0002DF0030EE126800EE56E030EE56E3C0E59
:1033B000E56E63EC2DF0030EE126800EE56E030E44
:1033C000E56E1C0EE56E63EC2DF0030EE126800E1B
:1033D000E56E030EE56E3E0EE56E63EC2DF0030E1A
:1033E000E126800EE56E030EE56E1E0EE56E63ECC3
:1033F0002DF0030EE1261200D9CFE5FFE1CFD9FF72
:1034000000C0E5FF01C0E5FF02C0E5FF03C0E5FF26
:1034100004C0E5FF05C0E5FF06C0E5FF07C0E5FF06
:1034200008C0E5FF020EDBCF00F0030EDBCF01F09A
:10343000040EDBCF02F0036A046A5FEC31F0056E24
:10344000FE0A01E075D0C1EC2CF05FEC31F0066EA5
:10345000040E065CD8B05AD0FA6AFB6A0634FA3613
:10346000E834FA36FC0B760FE56E340EFA22000EC5
:10347000FB22E450F96E43EF1AF04FEF1AF062EFBF
:103480001AF075EF1AF000C0E9FF01C0F3FF025017
:10349000F8EC33F0076E07C003F0046A37D0005031
:1034A000010F076E000E0120086E000E022007C0FB
:1034B000E9FF08C0F3FFF8EC33F0076E07C003F034
:1034C000046A24D00050020F076E000E0120086E1F
:1034D000000E022007C0E9FF08C0F3FFF8EC33F04C
:1034E000076E07C003F0046A11D000500F0F076E7B
:1034F000000E0120086E000E022007C0E9FF08C080
:10350000F3FF82EC33F0036EF3CF04F00450E56E6A
:103510000350E56EE56A0650E56E000EE56E420E5C
:10352000E56EB60EE56ED4EC2EF0070EE12683D0E4
:10353000040E055CD8B07FD0FA6AFB6A0534FA360F
:10354000E834FA36FC0B560FE56E350EFA22000E03
:10355000FB22E450F96EB3EF1AF0C0EF1AF0EBEF74
:103560001AF001EF1BF05FEC31F0036E03C0E5FFD2
:1035700000C0E9FF01C0F3FF025099EC34F05BD0CA
:103580000050010F036E000E0120046E000E022099
:10359000056E5FEC31F0066E06C0E5FF03C0E9FF83
:1035A00004C0F3FF055099EC34F00650D8A443D082
:1035B0000050030F036E000E0120046E000E022067
:1035C000E56AF46AF66AF76A03C0E9FF04C0F3FF2C
:1035D000E7EC33F030D00050020F036E000E0120F4
:1035E000046E000E0220056E5FEC31F0066E06C020
:1035F000E5FF03C0E9FF04C0F3FF055099EC34F088
:103600001AD00F0E0026000E012202225FEC31F0CC
:10361000036A046E5FEC31F0066A0326065004224A
:1036200003C0E5FF04C0F4FF00C0E9FF01C0F3FFE1
:10363000025060EC34F0E4CF08F0E4CF07F0E4CFC0
:1036400006F0E4CF05F0E4CF04F0E4CF03F0E4CFDC
:1036500002F0E4CF01F0E4CF00F0E4CFD9FF120094
:1036600000C0E5FF01C0E5FF02C0E5FF03C0E5FFC4
:10367000F2EC21F0FEEC0EF00BEC31F0006EF3CF2B
:1036800001F0F4CF02F0E9CF03F004013451005E01
:103690003551015A3651025A3751035A039E3F0E93
:1036A000035C08E1FF0E025C05E1FF0E015C02E134
:1036B000FF0E005CD8B0F3D00BEC31F0F3CF01F08B
:1036C000F4CF02F0E9CF03F0880F0401346F130E3A
:1036D0000120356F000E0220366F000E0320376F79
:1036E00055EC11F004C0E5FFF2CF04F0F29E0401A6
:1036F000A9510301BA6F0401AA510301BB6F040170
:10370000AB510301BC6F0401AC510301BD6F040157
:10371000AD510301BE6F0401AE510301BF6F04013F
:10372000AF510301C06F0401B0510301C16F040127
:10373000B1510301C26F0401B2510301C36F04010F
:10374000B3510301C46F0401B4510301C56F0401F7
:10375000B5510301C66F0401AD6BAE6BAF6BB06BBF
:1037600004BEF28EE4CF04F0800EE56E040EE56E2A
:10377000930EE56E0BEC09F0030EE1269EC406F5F0
:103780009FC407F505010751800F7C0F02E1000E71
:10379000065D04E305010669030E076F0501075185
:1037A000800F840F02E1010E065D05E2010E0501A6
:1037B000066FFC0E076F05010751800F800F02E1B5
:1037C000010E065D10E305010751800FF36E040141
:1037D0009751800FF35C03E196510501065D03E20A
:1037E0000501066B076BD880050107AFD89015E37C
:1037F0000401971D016E961D006E004A012A0150BA
:10380000800FF36E05010751800FF35C02E1065152
:10381000005C03E20501066B076B04019AA309D063
:10382000B5A507D0D880050107AFD89002E3066B95
:10383000076BD880050107AFD89007E3071D016E1D
:10384000061D006E004A012A04D006C500F007C517
:1038500001F000C008F501C009F50F01549B0501F6
:103860000851010BE838F46E0F015451EF0BF410BE
:10387000546F050109350931016E0831006E0134BC
:103880000132003200500F01556FD880050107AF9B
:10389000D89003E3899A898E02D0899E898AE4CFE1
:1038A00003F0E4CF02F0E4CF01F0E4CF00F0120027
:1038B00000C0E5FF01C0E5FF02C0E5FF03C0E5FF72
:1038C00003018551D8B40CD19DA81DD09EA81BD052
:1038D000050113510501111905E144EC34F005010E
:1038E000116BFED0000E05011325006E016A040E57
:1038F000012200C0E9FF01C0EAFFEFCF0DF5132B55
:103900000DC5ADFFEDD09DAAEBD09EAAE9D0ABA22C
:1039100005D00501128144EC34F0E2D0ABA405D00F
:103920000501128344EC34F0DBD0ABA048D0AECF1D
:103930000DF586C300F0016A008E0DC502F0036A22
:103940000250001803E10350011801E004D0050102
:103950001289AB96C5D005010D5104E00D5103014C
:10396000861929E105011299AB9605010D5103E075
:103970000501129702D0050112870DC516F50FC576
:1039800017F505010F51006E00040501186F600E58
:1039900005011725006E016A000E012200C0E9FF33
:1039A00001C0EAFF0DC5EFFF172B1751800A02E196
:1039B0000501176B95D005011299AB8691D0AECF5A
:1039C0000DF5050112A921D086C300F0016A008E11
:1039D0000DC502F0036A0250001803E103500118FC
:1039E00001E011D09D9AAB9894900501115104E12A
:1039F000AD6A44EC34F007D000C4ADFF010E050100
:103A0000136F9D886DD0AB866BD005010D510501FC
:103A1000162705011751050118191BE1050116515B
:103A20000CE117C50FF5050112B712D09D9AAB989E
:103A30009490AD6A44EC34F00BD00501128512B7B6
:103A400007D09D9AAB989490010EAD6E44EC34F083
:103A500047D0050117510501101908E10501105162
:103A600005010F1903E044EC34F03AD00FC500F023
:103A7000016A004A012AE56A800EE56E0150E56E92
:103A80000050E56EC7EC27F0006E040EE1260050F2
:103A900005010E6F050117190FE10DC500F01F0E8E
:103AA00000140501186F006E020E0024186F050146
:103AB0000F5105011827189F17C500F00501172B96
:103AC000016A600E0026000E012200C0E9FF01C05D
:103AD000EAFF0DC5EFFF1751800A02E10501176BE0
:103AE000E4CF03F0E4CF02F0E4CF01F0E4CF00F044
:103AF0001200D9CFE5FFE1CFD9FF00C0E5FF01C03B
:103B0000E5FF02C0E5FF03C0E5FF04C0E5FF05C017
:103B1000E5FF06C0E5FF07C0E5FF020EDBCF00F0C2
:103B2000030EDBCF01F0040EDBCF02F0050EDBCF7E
:103B300003F0060EDBCF04F0070EDBCF05F0080E16
:103B4000DBCF06F0090EDBCF07F000500301E46F76
:103B50000150E56F0250E66F0350E76F0450030118
:103B6000E86F0550E96F0650EA6F0750EB6F0301ED
:103B7000E4510301EA03F4CF01F0F3CF00F0005069
:103B80000301EE6F0150EF6F0301E4510301E803FD
:103B9000F4CF01F0F3CF00F000500301EC6F0150BF
:103BA000ED6F0301E7510301E803F3CF00F00301D8
:103BB000EF5100260050EF6F0301E6510301E903C6
:103BC000F3CF01F00150002600500301EF6F030115
:103BD000E6510301E803F4CF01F0F3CF00F0030155
:103BE000EE510026EF5101220050EE6F0150EF6FB1
:103BF0000301E5510301E903F4CF03F0F3CF02F031
:103C0000025000260350012200500301EE6F0150C4
:103C1000EF6F0301E5510301EA03F3CF00F0005019
:103C20000301F36F0301E5510301E803F4CF01F051
:103C3000F3CF00F000500301F16F0150F26F030168
:103C4000E4510301EB03F3CF00F000500301F76FE1
:103C50000301E4510301E903F4CF01F0F3CF00F0D5
:103C600000500301F56F0150F66F0301F06B030183
:103C7000F46B0301F0510301EC25006E0301F151D7
:103C80000301ED21016E0301F2510301EE21026EE9
:103C90000301F3510301EF21036E0050EC6F01505B
:103CA000ED6F0250EE6F0350EF6F0301F45103010B
:103CB000EC25006E0301F5510301ED21016E0301B6
:103CC000F6510301EE21026E0301F7510301EF21CA
:103CD000036E03C0E9FF02C0F4FF01C0F3FF005010
:103CE000E4CF07F0E4CF06F0E4CF05F0E4CF04F032
:103CF000E4CF03F0E4CF02F0E4CF01F0E4CF00F032
:103D0000E4CFD9FF1200D9CFE5FFE1CFD9FF00C042
:103D1000E5FF01C0E5FF02C0E5FF03C0E5FF04C009
:103D2000E5FF05C0E5FF06C0E5FF07C0E5FF08C0E9
:103D3000E5FF09C0E5FF0AC0E5FF0BC0E5FF0CC0C9
:103D4000E5FF0DC0E5FF0EC0E5FF0FC0E5FF020E69
:103D5000DBCF00F0030EDBCF01F0040EDBCF02F06F
:103D6000050EDBCF03F0060EDBCF04F0070EDBCF32
:103D700005F0080EDBCF06F0200E076E086A06C0BD
:103D800009F00A6A0B6A0C6AE56AE56AE56A095095
:103D9000E56E0350E56E0250E56E0150E56E005091
:103DA000E56E2EEC20F00D6E080EE126300E0D268D
:103DB0003A0E0D5C05E30D500E6E270E0E240D6EAF
:103DC000FF0E07260822600E07240E6E030E082041
:103DD0000F6E0EC0E9FF0FC0EAFF0DC0EFFF0C50E1
:103DE000E56E0B50E56E0A50E56E0950E56E035026
:103DF000E56E0250E56E0150E56E0050E56E82EC16
:103E000022F0006EF3CF01F0F4CF02F0E9CF03F01F
:103E1000080EE1260050011002100310D8A4AFD7FD
:103E200007C000F008C001F004C002F005C003F0B4
:103E300000C004F001C005F0004A012A600E04260B
:103E4000030E052204C0E9FF05C0EAFFEFCF04F02E
:103E500002C0E9FF03C0EAFF04C0EFFF024A032AE1
:103E6000000E015C02E1200E005CE2E302C0E9FF0B
:103E700003C0EAFF000EEF6AE4CF0FF0E4CF0EF0CC
:103E8000E4CF0DF0E4CF0CF0E4CF0BF0E4CF0AF078
:103E9000E4CF09F0E4CF08F0E4CF07F0E4CF06F078
:103EA000E4CF05F0E4CF04F0E4CF03F0E4CF02F078
:103EB000E4CF01F0E4CF00F0E4CFD9FF1200D9CF76
:103EC000E5FFE1CFD9FF00C0E5FF01C0E5FF02C07B
:103ED000E5FF03C0E5FF04C0E5FF05C0E5FF06C040
:103EE000E5FF07C0E5FF08C0E5FF09C0E5FF0AC020
:103EF000E5FF0BC0E5FF0CC0E5FF0DC0E5FF020EBE
:103F0000DBCF00F0030EDBCF01F0040EDBCF02F0BD
:103F1000050EDBCF03F0060EDBCF04F0070EDBCF80
:103F200005F0080EDBCF06F0090EDBCF07F0D880D6
:103F300003AED890086A083608500FE0031C0C6ED8
:103F4000021C0B6E011C0A6E001C096E092A0DE191
:103F50000A2A0BE10B4A0C2A08D000C009F001C064
:103F60000AF002C00BF003C00CF0D88007AED89066
:103F7000006A003600500FE0071C0D6E061C036E31
:103F8000051C026E041C016E012A0DE1022A0BE1E0
:103F9000034A0D2A08D004C001F005C002F006C093
:103FA00003F007C00DF00D50E56E0350E56E0250B2
:103FB000E56E0150E56E0C50E56E0B50E56E0A5053
:103FC000E56E0950E56E82EC22F0016EF3CF02F04F
:103FD000F4CF03F0E9CF04F0080EE1260050081AF0
:103FE000085016E0041C076E031C066E021C056ECA
:103FF000011C006E002A04E1052A02E1064A072A94
:1040000007C0E9FF06C0F4FF05C0F3FF005007D06A
:1040100004C0E9FF03C0F4FF02C0F3FF0150E4CF86
:104020000DF0E4CF0CF0E4CF0BF0E4CF0AF0E4CFD6
:1040300009F0E4CF08F0E4CF07F0E4CF06F0E4CFD6
:1040400005F0E4CF04F0E4CF03F0E4CF02F0E4CFD6
:1040500001F0E4CF00F0E4CFD9FF1200D9CFE5FFA3
:10406000E1CFD9FF00C0E5FF01C0E5FF02C0E5FFD9
:1040700003C0E5FF04C0E5FF05C0E5FF06C0E5FF9E
:1040800007C0E5FF08C0E5FF09C0E5FF0AC0E5FF7E
:10409000020EDBCF00F0030EDBCF01F0040EDBCF0E
:1040A00002F0050EDBCF03F0060EDBCF04F0070EA7
:1040B000DBCF05F0080EDBCF06F0090EDBCF07F0F3
:1040C000086A045005100610071005E1E968F46855
:1040D000F368E86847D0096A0750800BE8440A6E25
:1040E0000A501BE1045004260536063607360750F1
:1040F000035C08E10650025C05E10550015C02E149
:104100000450005C06E2D8900732063205320432D1
:1041100004D0092A09C008F0DFD70750035C08E182
:104120000650025C05E10550015C02E10450005CB0
:1041300008E30450005E0550015A0650025A075029
:10414000035AD890073206320532043208C009F00B
:1041500008060950E2E103C0E9FF02C0F4FF01C014
:10416000F3FF0050E4CF0AF0E4CF09F0E4CF08F009
:10417000E4CF07F0E4CF06F0E4CF05F0E4CF04F09D
:10418000E4CF03F0E4CF02F0E4CF01F0E4CF00F09D
:10419000E4CFD9FF1200D9CFE5FFE1CFD9FF00C0AE
:1041A000E5FF01C0E5FF02C0E5FF03C0E5FF04C075
:1041B000E5FF05C0E5FF06C0E5FF07C0E5FF020E0D
:1041C000DBCF00F0030EDBCF01F0040EDBCF02F0FB
:1041D00000500B0F036E000E0120046E000E022033
:1041E000E56AF46AF66AF76A03C0E9FF04C0F3FF00
:1041F000E7EC33F00050070F036E000E0120046E51
:10420000000E0220056E0050030F066E000E012006
:10421000076E000E0220E56AF46AF66AF76A06C0C5
:10422000E9FF07C0F3FFE7EC33F0E56AF46AF66AEA
:10423000F76A03C0E9FF04C0F3FF0550E7EC33F071
:104240000050010F036E000E0120046E000E0220CC
:10425000056E0050020F066E000E0120076E000E64
:104260000220E56A06C0E9FF07C0F3FF99EC34F0CD
:10427000E56A03C0E9FF04C0F3FF055099EC34F090
:10428000E56A00C0E9FF01C0F3FF025099EC34F089
:10429000E4CF07F0E4CF06F0E4CF05F0E4CF04F07C
:1042A000E4CF03F0E4CF02F0E4CF01F0E4CF00F07C
:1042B000E4CFD9FF120025642025640A0000D9CF7D
:1042C000E5FFE1CFD9FF00C0E5FF01C0E5FF02C077
:1042D000E5FF03C0E5FF04C0E5FF05C0E5FF06C03C
:1042E000E5FF07C0E5FF08C0E5FF09C0E5FF0AC01C
:1042F000E5FF020EDBCF00F0030EDBCF01F0040E72
:10430000DBCF02F0050EDBCF03F0060EDBCF04F0AF
:10431000070EDBCF05F00038E8441F0B066E076A76
:10432000000E0626050E072206C0E9FF07C0EAFFB9
:10433000EFCF08F00050096E070E0916010E0A6E45
:1043400009500DE006E6E86CD8900A36010FFDE34F
:1043500006D0D8900ABED8800A32010FFBE308507D
:104360000A1206C0E9FF07C0EAFF0AC0EFFFE80E25
:104370000024066E076A040E072206C0E9FF07C084
:10438000EAFF01C0EFFF016A230E00260F0E012293
:10439000800E025E070E02160238F00B036E070E47
:1043A00005160550032600C0E9FF01C0EAFF03C05F
:1043B000EFFFE4CF0AF0E4CF09F0E4CF08F0E4CF58
:1043C00007F0E4CF06F0E4CF05F0E4CF04F0E4CF4B
:1043D00003F0E4CF02F0E4CF01F0E4CF00F0E4CF4B
:1043E000D9FF120000C0E5FF01C0E5FF02C0E5FFF4
:1043F00003C0E5FF0501105105010F1901E166D069
:1044000010C500F0002A009E016A600E0026000E12
:10441000012200C0E9FF01C0EAFFEFCF1AF51F0E2D
:1044200005011A1710C519F51A5105011927195157
:10443000006E020E0024196F199F5FEC31F0006EC0
:10444000005003E1006A002A01D0006A5FEC31F0FD
:1044500005011A6F1AC501F0800E01161AC502F087
:104460001F0E021602C003F002C01AF5035003E14A
:104470000FC510F53ED000501EE0015025E05FEC66
:1044800031F0006E05011A51026E02041A6F0050DD
:10449000420A1AE000504E0A03E192EC2EF014D0CA
:1044A0000050460A03E183EC34F00ED00050490A74
:1044B0000BE1FF0009D010C51BF5015003E0C2EC71
:1044C0002BF002D009EC34F019C510F5030182512C
:1044D0000301831906E00501115103E1B8EC24F052
:1044E00008D094B006D00501115103E1ACB244EC00
:1044F00034F0E4CF03F0E4CF02F0E4CF01F0E4CFF6
:1045000000F01200D9CFE5FFE1CFD9FF00C0E5FFF1
:1045100001C0E5FF02C0E5FF03C0E5FF04C0E5FF01
:1045200005C0E5FF06C0E5FF07C0E5FF08C0E5FFE1
:1045300009C0E5FF0AC0E5FF0BC0E5FF0CC0E5FFC1
:104540000DC0E5FF020EDBCF00F0030EDBCF01F064
:10455000040EDBCF02F0050EDBCF03F0060EDBCF3F
:1045600004F0070EDBCF05F0080EDBCF06F0090ED6
:10457000DBCF07F0086A096A0A6A0B6A200E0C6E24
:104580000350800BE8440D6E0050002601360236C1
:1045900003360850082609360A360B360D50D8A4C3
:1045A000088007500B5C08E106500A5C05E10550E5
:1045B000095C02E10450085C09E30450085E055000
:1045C000095A06500A5A07500B5A00800C040D6E07
:1045D0000DC00CF00D50D4E103C0E9FF02C0F4FFA0
:1045E00001C0F3FF0050E4CF0DF0E4CF0CF0E4CFB6
:1045F0000BF0E4CF0AF0E4CF09F0E4CF08F0E4CF09
:1046000007F0E4CF06F0E4CF05F0E4CF04F0E4CF08
:1046100003F0E4CF02F0E4CF01F0E4CF00F0E4CF08
:10462000D9FF120000C0E5FF01C0E5FF03C0E5FFB0
:1046300004C0E5FF05C0E5FF06C0E5FF07C0E5FFD4
:1046400008C0E5FF09C0E5FF0AC0E5FF0BC0E5FFB4
:10465000FEC300F0FFC301F00301FE3F01D0FF2BBA
:104660000050E56E36EC34F0E652076E046A056AD7
:10467000066AFEC300F0FFC301F00301FE3F01D054
:10468000FF2B0050E56E36EC34F0E6520B6A0A6EF2
:10469000086A0850041205120A5006120B5007123D
:1046A000FEC300F0FFC301F00301FE3F01D0FF2B6A
:1046B0000050E56E36EC34F0E652036E006A03C03B
:1046C00001F0E86A03BEFF0E086E096E0050041286
:1046D000015005120850061209500712FEC300F0DF
:1046E000FFC301F00301FE3F01D0FF2B0050E56E38
:1046F00036EC34F0E652016A04120150051206123B
:10470000071207C0E9FF06C0F4FF05C0F3FF04501D
:10471000E4CF0BF0E4CF0AF0E4CF09F0E4CF08F0E7
:10472000E4CF07F0E4CF06F0E4CF05F0E4CF04F0E7
:10473000E4CF03F0E4CF01F0E4CF00F01200D9CFD2
:10474000E5FFE1CFD9FF00C0E5FF01C0E5FF02C0F2
:10475000E5FF03C0E5FF04C0E5FF05C0E5FF06C0B7
:10476000E5FF07C0E5FF08C0E5FF0BC0E5FF0CC093
:10477000E5FF0DC0E5FF020EDBCF00F0030EDBCF3F
:1047800001F0040EDBCF02F0050EDBCF03F0060EC6
:10479000DBCF04F003C0E5FF04C0F4FF00C0E9FF75
:1047A00001C0F3FF025060EC34F00050020F056EC0
:1047B000000E0120066E000E0220076EE86A04BE9D
:1047C000FF0E086E04500C6E0C2608340D6ED89047
:1047D0000C360D360344E844FC0B0B6E0350E844E2
:1047E000E844030B0C12E56A0BC0F4FF0CC0F6FFA3
:1047F0000DC0F7FF05C0E9FF06C0F3FF0750E7EC67
:1048000033F0080E0026000E01220222E56AF46A47
:10481000F66AF76A00C0E9FF01C0F3FF0250E7EC57
:1048200033F0E4CF0DF0E4CF0CF0E4CF0BF0E4CFA5
:1048300008F0E4CF07F0E4CF06F0E4CF05F0E4CFD2
:1048400004F0E4CF03F0E4CF02F0E4CF01F0E4CFD2
:1048500000F0E4CFD9FF1200D9CFE5FFE1CFD9FFB7
:1048600000C0E5FF01C0E5FF02C0E5FF03C0E5FFB2
:1048700004C0E5FF05C0E5FF06C0E5FF07C0E5FF92
:10488000020EDBCF00F0030EDBCF01F0040EDBCF16
:1048900002F0050EDBCF03F002C006F00650046EF6
:1048A000800A33E100C0E9FF01C0F3FF0250C3EC0E
:1048B00032F0056EF3CF06F0F4CF07F003C0E5FF4A
:1048C00005C0E9FF06C0F3FF075099EC34F000C0C3
:1048D000E9FF01C0F3FF0250C3EC32F0056EF3CFE5
:1048E00006F0F4CF07F0052A02E3064A072A05C0BE
:1048F000E5FF06C0F4FF07C0F6FF00C0E9FF01C0F6
:10490000F3FF025027EC34F020D004C000F000AADE
:104910001CD0007A0050046E04E10350D6EC34F051
:1049200014D00450010A04E1035002EC00F00DD051
:1049300004500F0A04E10350DBEC30F006D00450C1
:104940000E0A03E10350E6EC34F0E4CF07F0E4CFC5
:1049500006F0E4CF05F0E4CF04F0E4CF03F0E4CFB9
:1049600002F0E4CF01F0E4CF00F0E4CFD9FF120071
:1049700000C0E5FF01C0E5FF02C0E5FF03C0E5FFA1
:10498000ACA277D069EC32F0006E005005E1030173
:10499000836B0301826B6DD083C301F0005001264D
:1049A00069EC32F0026E00060250230A1FE1010E8C
:1049B000005CD8A05CD069EC32F0036E690A03E1B8
:1049C000AAEC30F054D00350720A03E144EC34F006
:1049D0004ED00350730A01E04AD09480AB869D8A82
:1049E0009D98AE50AE50AB98AB8841D00250430A70
:1049F00005E00250420A01E03AD001D0008E0501E4
:104A0000136B00C014F500500401006F0501132B57
:104A100003018351011814E069EC32F0006E0501C6
:104A20001427000E05011325026E036A040E0322EB
:104A300002C0E9FF03C0EAFF00C0EFFF132BE8D775
:104A4000000E05011325006E026A040E0222050104
:104A5000141D036E032A00C0E9FF02C0EAFF03C071
:104A6000EFFF0501132B13C511F505010B6B01C0F9
:104A700083F3E4CF03F0E4CF02F0E4CF01F0E4CF1E
:104A800000F01200D9CFE5FFE1CFD9FF00C0E5FF6C
:104A900001C0E5FF02C0E5FF03C0E5FF04C0E5FF7C
:104AA00005C0E5FF06C0E5FF020EDBCF00F0030EF8
:104AB000DBCF01F0040EDBCF02F0050EDBCF03F0FD
:104AC00003C004F0056A0350D8B453D000C0E9FF16
:104AD00001C0F3FF0250F8EC33F0066E430A03E125
:104AE000010E056E038E0406002A02E3014A022A23
:104AF0009D9AAB9894909D989EA8FED7AC80AD6A85
:104B000000009EA8FED7AC9003C0ADFF00009EA899
:104B1000FED7055005E0420EAD6E0324056E05D0AC
:104B2000620EAD6E620E0324056E04C003F00350E6
:104B300015E000009EA8FED700C0E9FF01C0F3FF0A
:104B40000250F8EC33F0046E04C0ADFF04500526AB
:104B50000306002A02E3014A022AE9D700009EA8C0
:104B6000FED7051CAD6EAD2A00009EA8FED744EC12
:104B700034F0E4CF06F0E4CF05F0E4CF04F0E4CF66
:104B800003F0E4CF02F0E4CF01F0E4CF00F0E4CF93
:104B9000D9FF120000C0E5FF01C0E5FF02C0E5FF3C
:104BA00003C0E5FF04C0E5FF006A000E0024016EAB
:104BB000026A050E022201C0E9FF02C0EAFFEF6AA5
:104BC000002A020E005CF1E3006A0050020DF4506E
:104BD000026EF3CF01F0E00E0124036E000E0220FE
:104BE000046E03C0E9FF04C0EAFFEE6AEF6A390E03
:104BF0000124036E040E0220046E03C0E9FF04C00A
:104C0000EAFFEE6AEF6A590E0124036E040E0220D9
:104C1000046E03C0E9FF04C0EAFFEE6AEF6A000E0B
:104C20000124036E030E0220046E03C0E9FF04C0DA
:104C3000EAFFEE6AEF6A200E0126030E022201C08F
:104C4000E9FF02C0EAFFEE687F0EEF6E230E00243C
:104C5000016E026A0F0E022201C0E9FF02C0EAFFE4
:104C6000EF68002A100E005CD8A0AFD7AF0EC06E60
:104C7000C16A010EC26EC282E4CF04F0E4CF03F039
:104C8000E4CF02F0E4CF01F0E4CF00F012004320C3
:104C9000412025642025640A0000D9CFE5FFE1CF3B
:104CA000D9FF00C0E5FF01C0E5FF02C0E5FF03C07A
:104CB000E5FF04C0E5FF05C0E5FF06C0E5FF07C04E
:104CC000E5FF08C0E5FF09C0E5FF0AC0E5FF0BC02E
:104CD000E5FF0CC0E5FF020EDBCF00F0030EDBCFDB
:104CE00001F0040EDBCF02F0050EDBCF03F0060E61
:104CF000DBCF04F0070EDBCF05F0080EDBCF06F0AC
:104D0000090EDBCF07F002500A6E0150096E005009
:104D1000086E06C00BF007C00CF0FF0E0626072237
:104D20000B500C101AE003C0E9FF04C0F3FF05505C
:104D3000F8EC33F00B6E032A02E3044A052A0BC099
:104D4000E5FF08C0E9FF09C0F3FF0A5099EC34F011
:104D5000082ADFE3094A0A2ADCD702C0F4FF01C0AF
:104D6000F3FF0050E4CF0CF0E4CF0BF0E4CF0AF0F7
:104D7000E4CF09F0E4CF08F0E4CF07F0E4CF06F089
:104D8000E4CF05F0E4CF04F0E4CF03F0E4CF02F089
:104D9000E4CF01F0E4CF00F0E4CFD9FF1200D9CF87
:104DA000E5FFE1CFD9FF00C0E5FF01C0E5FF02C08C
:104DB000E5FF03C0E5FF04C0E5FF05C0E5FF06C051
:104DC000E5FF07C0E5FF020EDBCF00F0030EDBCFEF
:104DD00001F0040EDBCF02F0050EDBCF03F083C33E
:104DE00084F3030182510301845F8451046E04043F
:104DF000846F03C004F0056A030E0426D8B0052AA8
:104E000084C306F0076A0750800FF36E0550800FC9
:104E1000F35C02E10450065C02E2E8682ED0020E68
:104E2000035C02E2E86A29D003060350E56E90ECC9
:104E30002FF0E652046A0350045C14E2045000248C
:104E4000056EE86A0120066EE86A022005C0E9FFE7
:104E500006C0F3FFF8EC33F0042AE56E90EC2FF077
:104E6000E652E9D783C384F3030182510301845FCF
:104E70008451006E0004846FE86AE4CF07F0E4CF49
:104E800006F0E4CF05F0E4CF04F0E4CF03F0E4CF84
:104E900002F0E4CF01F0E4CF00F0E4CFD9FF12003C
:104EA000D9CFE5FFE1CFD9FF00C0E5FF01C0E5FFA5
:104EB00002C0E5FF03C0E5FF04C0E5FF05C0E5FF54
:104EC000020EDBCF00F0030EDBCF01F0040EDBCFD0
:104ED00002F00050020DF450036EF3CF00F0390ED3
:104EE0000024046E040E0320056E04C0E9FF05C013
:104EF000EAFF01C0EEFF02C0EFFF590E0024046E6E
:104F0000040E0320056E04C0E9FF05C0EAFFEECFE2
:104F100004F0EFCF05F00150045C016E025005581B
:104F2000026E400E0026030E032200C0E9FF03C0FC
:104F3000EAFF01C0EEFF02C0EFFFD88002AED890BA
:104F400004E3021E016CD8B4022A0250800F800FC5
:104F500002E1030E015C02E2016A026A01500210E2
:104F600007E100C0E9FF03C0EAFF000EEE6AEF6A46
:104F7000E4CF05F0E4CF04F0E4CF03F0E4CF02F097
:104F8000E4CF01F0E4CF00F0E4CFD9FF1200D9CF95
:104F9000E5FFE1CFD9FF00C0E5FF01C0E5FF02C09A
:104FA000E5FF03C0E5FF04C0E5FF05C0E5FF06C05F
:104FB000E5FF020EDBCF00F0030EDBCF01F0040EA5
:104FC000DBCF02F0050EDBCF03F0D88001AED89026
:104FD000046A0436045007E0011C066E001C056ECE
:104FE000054A062A04D000C005F001C006F0D880AA
:104FF00003AED89007E3031C016E021C006E004A4A
:10500000012A04D002C000F003C001F00150E56E97
:105010000050E56E0650E56E0550E56E65EC2BF030
:10502000006EF3CF01F0040EE12604500AE0011CEB
:10503000036E001C026E024A032A03C0F3FF0250F3
:1050400003D001C0F3FF0050E4CF06F0E4CF05F039
:10505000E4CF04F0E4CF03F0E4CF02F0E4CF01F0BA
:10506000E4CF00F0E4CFD9FF1200D9CFE5FFE1CFC4
:10507000D9FF00C0E5FF01C0E5FF02C0E5FF03C0A6
:10508000E5FF04C0E5FF05C0E5FF020EDBCF00F041
:10509000030EDBCF01F0040EDBCF02F0050EDBCFF9
:1050A00003F0FEC304F0FFC305F00301FE3F01D08F
:1050B000FF2B0350E56E0450E56E35EC31F0E652FF
:1050C000E652FEC304F0FFC305F00301FE3F01D02A
:1050D000FF2B0250056EE56E0450E56E35EC31F0A5
:1050E000E652E652FEC304F0FFC305F00301FE3FA3
:1050F00001D0FF2B0150E56E0450E56E35EC31F028
:10510000E652E652FEC304F0FFC305F00301FE3F82
:1051100001D0FF2B0050E56E0450E56E35EC31F008
:10512000E652E652E4CF05F0E4CF04F0E4CF03F01A
:10513000E4CF02F0E4CF01F0E4CF00F0E4CFD9FFF8
:105140001200D9CFE5FFE1CFD9FF00C0E5FF01C0D4
:10515000E5FF02C0E5FF03C0E5FF04C0E5FF05C0B1
:10516000E5FF06C0E5FF020EDBCF00F0030EDBCF4C
:1051700001F00038E8441F0B026E036A000E02269D
:10518000050E032202C0E9FF03C0EAFFEFCF04F0DF
:105190000050056E070E0516010E066E05500DE057
:1051A00006E6E86CD8900636010FFDE306D0D890ED
:1051B00006BED8800632010FFBE30450061202C07F
:1051C000E9FF03C0EAFF06C0EFFFE80E0024026E0D
:1051D000036A040E032202C0E9FF03C0EAFF01C014
:1051E000EFFF016A230E00260F0E012200C0E9FF27
:1051F00001C0EAFFFF0EEF68E4CF06F0E4CF05F050
:10520000E4CF04F0E4CF03F0E4CF02F0E4CF01F008
:10521000E4CF00F0E4CFD9FF1200D9CFE5FFE1CF12
:10522000D9FF00C0E5FF01C0E5FF02C0E5FF03C0F4
:10523000E5FF04C0E5FF05C0E5FF08C0E5FF09C0C4
:10524000E5FF0AC0E5FF020EDBCF00F0030EDBCF67
:1052500001F0040EDBCF02F0050EDBCF03F0060EEB
:10526000DBCF04F003C0E5FF04C0F4FF00C0E9FF9A
:1052700001C0F3FF025060EC34F0020E0026000E75
:105280000122022204BEFF0E056E0450096E09269B
:1052900005340A6ED89009360A360344E844FC0BFC
:1052A000086E0350E844E844030B0912E56A08C09D
:1052B000F4FF09C0F6FF0AC0F7FF00C0E9FF01C014
:1052C000F3FF0250E7EC33F0E4CF0AF0E4CF09F04B
:1052D000E4CF08F0E4CF05F0E4CF04F0E4CF03F02E
:1052E000E4CF02F0E4CF01F0E4CF00F0E4CFD9FF47
:1052F0001200D9CFE5FFE1CFD9FF00C0E5FF01C023
:10530000E5FF02C0E5FF03C0E5FF04C0E5FF05C0FF
:10531000E5FF06C0E5FF020EDBCF00F0030EDBCF9A
:1053200001F0040EDBCF02F005010A5119E112EC85
:1053300023F0036EF3CF04F0F4CF05F0E9CF06F0CD
:1053400003C0E5FF04C0F4FF05C0F6FF06C0F7FF89
:1053500000C0E9FF01C0F3FF0250E7EC33F01ED0BC
:1053600005010A51010A1AE100C0E9FF01C0F3FF7B
:10537000025049EC32F0006EF3CF01F0F4CF02F0AE
:10538000E9CF03F00350E56E0250E56E0150E56E83
:105390000050E56E35EC28F0040EE126E4CF06F06F
:1053A000E4CF05F0E4CF04F0E4CF03F0E4CF02F063
:1053B000E4CF01F0E4CF00F0E4CFD9FF1200D9CF61
:1053C000E5FFE1CFD9FF00C0E5FF01C0E5FF02C066
:1053D000E5FF03C0E5FF04C0E5FF020EDBCF00F0F0
:1053E000030EDBCF01F0040EDBCF02F00050070FFD
:1053F000036E000E0120046E000E0220E56E0450C4
:10540000E56E0350E56E14EC2FF0030EE12600501C
:10541000230F036E000E0120046E000E0220E56EC5
:105420000450E56E0350E56E19EC2CF0030EE126F6
:105430000050330F036E000E0120046E000E022098
:10544000E56E0450E56E0350E56EA8EC2AF0030EFD
:10545000E126440E0026000E012202220250E56ED3
:105460000150E56E0050E56EA8EC2AF0030EE1262F
:10547000E4CF04F0E4CF03F0E4CF02F0E4CF01F096
:10548000E4CF00F0E4CFD9FF1200D9CFE5FFE1CFA0
:10549000D9FF00C0E5FF01C0E5FF02C0E5FF03C082
:1054A000E5FF04C0E5FF05C0E5FF06C0E5FF020E0D
:1054B000DBCF00F0030EDBCF01F0040EDBCF02F0F8
:1054C000050EDBCF03F0060EDBCF04F0070EDBCFBB
:1054D00005F0080EDBCF06F0D88003AED89015E3B8
:1054E00006500A0A12E104C0E9FF05C0EAFF2D0ECA
:1054F000EF6E044A052A031E021E011E006C05E120
:10550000012A03E1022AD8B4032A0650E56E0550A9
:10551000E56E0450E56E0350E56E0250E56E0150F5
:10552000E56E0050E56E83EC1EF0070EE126E4CF39
:1055300006F0E4CF05F0E4CF04F0E4CF03F0E4CFCD
:1055400002F0E4CF01F0E4CF00F0E4CFD9FF120085
:10555000D9CFE5FFE1CFD9FF00C0E5FF01C0E5FFEE
:1055600002C0E5FF03C0E5FF04C0E5FF020EDBCF8C
:1055700000F0030EDBCF01F0040EDBCF02F002508F
:10558000E56E0150E56E0050E56E14EC2FF0030E51
:10559000E1260050010F036E000E0120046E000E84
:1055A0000220E56E0450E56E0350E56E14EC2FF01A
:1055B000030EE1260050020F036E000E0120046E60
:1055C000000E0220E56E0450E56E0350E56E14EC0B
:1055D0002FF0030EE1260F0E0026000E01220222FC
:1055E0000250E56E0150E56E0050E56E63EC2DF063
:1055F000030EE126E4CF04F0E4CF03F0E4CF02F0A1
:10560000E4CF01F0E4CF00F0E4CFD9FF1200D9CF0E
:10561000E5FFE1CFD9FF00C0E5FF01C0E5FF02C013
:10562000E5FF03C0E5FF04C0E5FF05C0E5FF020E8E
:10563000DBCF00F0030EDBCF01F0040EDBCF02F076
:1056400000500B0F036E000E0120046E000E0220AE
:10565000E56AF46AF66AF76A03C0E9FF04C0F3FF7B
:10566000E7EC33F00050070F036E000E0120046ECC
:10567000000E0220056E030E0026000E01220222FB
:10568000E56AF46AF66AF76A00C0E9FF01C0F3FF51
:105690000250E7EC33F0E56AF46AF66AF76A03C091
:1056A000E9FF04C0F3FF0550E7EC33F0E4CF05F069
:1056B000E4CF04F0E4CF03F0E4CF02F0E4CF01F054
:1056C000E4CF00F0E4CFD9FF1200D9CFE5FFE1CF5E
:1056D000D9FF00C0E5FF01C0E5FF02C0E5FF03C040
:1056E000E5FF04C0E5FF05C0E5FF06C0E5FF020ECB
:1056F000DBCF00F0030EDBCF01F0040EDBCF02F0B6
:10570000050EDBCF03F0046A056A0350800BE84402
:10571000066E065011E10250022603360350015C6A
:1057200002E10250005C04E2D8900332023204D05D
:10573000052A05C004F0E9D70350015C02E10250DC
:10574000005C04E30250005E0350015AD89003321B
:10575000023204C005F004060550EEE101C0F3FF7B
:105760000050E4CF06F0E4CF05F0E4CF04F0E4CF3E
:1057700003F0E4CF02F0E4CF01F0E4CF00F0E4CF97
:10578000D9FF120000C0E5FF01C0E5FF02C0E5FF40
:105790005FEC31F0006E4C0A08E15FEC31F0300A4A
:1057A00002E08B823FD08B923DD00050450A25E12C
:1057B000000EE56E310EE56E700EE56ED4EC2EF047
:1057C000030EE126E0EC34F0016E01C002F00106A8
:1057D00002500FE05FEC31F0E56AE56E000EE56E19
:1057E000310EE56E720EE56ED4EC2EF0050EE1265C
:1057F000ECD70A0EDBEC30F015D00050570A12E15E
:105800005FEC31F0520A0EE15FEC31F0490A0AE137
:105810005FEC31F0540A06E15FEC31F0450A02E139
:10582000A4EC34F0E4CF02F0E4CF01F0E4CF00F0D8
:105830001200D9CFE5FFE1CFD9FF00C0E5FF01C0DD
:10584000E5FF02C0E5FF03C0E5FF04C0E5FF020E6F
:10585000DBCF00F0030EDBCF01F0040EDBCF02F054
:105860000050060F036E000E0120046E000E022091
:10587000E56E0450E56E0350E56E63EC2DF0030E0B
:10588000E12600500C0F036E000E0120046E000E86
:105890000220E56E0450E56E0350E56E63EC2DF0DA
:1058A000030EE1260E0E0026000E012202220250F7
:1058B000E56E0150E56E0050E56E63EC2DF0030ED1
:1058C000E126E4CF04F0E4CF03F0E4CF02F0E4CF2C
:1058D00001F0E4CF00F0E4CFD9FF1200D9CFE5FF0B
:1058E000E1CFD9FF00C0E5FF01C0E5FF02C0E5FF41
:1058F00003C0E5FF04C0E5FF020EDBCF00F0030E9E
:10590000DBCF01F0040EDBCF02F0E56AF46A00C0E1
:10591000E9FF01C0F3FF025060EC34F00050020FC9
:10592000036E000E0120046E000E0220E56AF46A88
:10593000F66AF76A03C0E9FF04C0F3FFE7EC33F04F
:10594000080E0026000E01220222E56AF46AF66AB9
:10595000F76A00C0E9FF01C0F3FF0250E7EC33F043
:10596000E4CF04F0E4CF03F0E4CF02F0E4CF01F0A1
:10597000E4CF00F0E4CFD9FF120025642025640AAB
:10598000000000C0E5FF01C0E5FF02C0E5FF03C065
:10599000E5FF10C500F0016A1BC502F0036A025062
:1059A000005E0350015AE56A800EE56E0150E56E17
:1059B0000050E56EC7EC27F0006E040EE1260006ED
:1059C0001BC501F0430EDBEC30F0200EDBEC30F0B9
:1059D000005020E0600E0124026E036A000E0322D4
:1059E00002C0E9FF03C0EAFFEFCF02F0E56A025010
:1059F000E56E000EE56E680EE56EA00EE56ED4EC69
:105A00002EF0050EE126012A0150800A01E1016A0B
:105A10000006DED7E4CF03F0E4CF02F0E4CF01F0DC
:105A2000E4CF00F01200D8CFE5FFE0CFE5FFE56E50
:105A3000F3CFE5FFF4CFE5FFE9CFE5FFEACFE5FFE0
:105A4000FACFE5FFFBCFE5FF00C0E5FF01C0E5FFB2
:105A5000030180510F01356F030181510F01366F32
:105A6000D650336FD750346FF2A417D080C300F0F4
:105A700081C301F00050010F0301806F000E01206F
:105A8000816FF29480510F01356F030181510F0135
:105A9000366FD650336FD750346FE4CF01F0E4CF78
:105AA00000F0E4CFFBFFE4CFFAFFE4CFEAFFE4CF5E
:105AB000E9FFE4CFF4FFE4CFF3FFE450E4CFE0FFED
:105AC000E4CFD8FF1000D9CFE5FFE1CFD9FF00C068
:105AD000E5FF01C0E5FF02C0E5FF03C0E5FF04C02C
