:020000040000FA
:10000000A3EF35F0C96E120065EF2CF0A9EC17F0E4
:100010004DEC19F0FDD7120059EF30F0D9CFE5FFC4
:10002000E1CFD9FF00C0E5FF01C0E5FF02C0E5FF59
:1000300003C0E5FF04C0E5FF05C0E5FF06C0E5FF1E
:1000400007C0E5FF08C0E5FF09C0E5FF0AC0E5FFFE
:100050000BC0E5FF0CC0E5FF0DC0E5FF0EC0E5FFDE
:100060000FC0E5FF10C0E5FF11C0E5FF12C0E5FFBE
:1000700013C0E5FF14C0E5FF15C0E5FF16C0E5FF9E
:1000800017C0E5FF18C0E5FF19C0E5FF1AC0E5FF7E
:100090001BC0E5FF1CC0E5FF1DC0E5FF1EC0E5FF5E
:1000A0001FC0E5FF20C0E5FF21C0E5FF22C0E5FF3E
:1000B00023C0E5FF24C0E5FF25C0E5FF26C0E5FF1E
:1000C00027C0E5FF020EDBCF00F0030EDBCF01F00F
:1000D000040EDBCF02F00250086E0150076E005094
:1000E000066EE56A100EE56E0850E56E0750E56E87
:1000F0000650E56E800EE56E030EE56EB00EE56E01
:10010000A9EC27F0080EE126B8C303F0B9C304F048
:10011000BAC305F0BBC306F003C007F004C008F083
:1001200005C009F006C00AF0D8800AAED8900AE3EC
:100130000A1E091E081E076C05E1082A03E1092AA8
:10014000D8B40A2AB0C30BF0B1C30CF0E86A0301BB
:10015000B1BFFF0E0D6E0E6ED890B431106EB3317C
:100160000F6ED89010320F32B551E840E840C00B06
:100170001012B541E8403F0BE8BAC009116E126A8F
:1001800011BE12680F500B5C0F6E10500C58106EA1
:1001900011500D58116E12500E58126E800F810FB3
:1001A00008E1FF0E115C05E1FF0E105C02E1FE0E9E
:1001B0000F5CD8A04ED01250800F800F08E1000EC7
:1001C000115C05E1000E105C02E1030E0F5CD8B07B
:1001D00040D00A340A30166E0930156E0830146E9D
:1001E0000730136EBEC317F0BFC318F0E86A0301EF
:1001F000BFBFFF0E196E800FF36E1650800FF35CB9
:1002000008E11550195C05E11450185C02E1135027
:10021000175C1FE30C50156E15260D34166ED89022
:10022000153616360B44E844FC0B146E0B50E844AC
:10023000E844030B15120301B26B1450B36F155051
:10024000B46F1650B56FB86BB96BBA6BBB6BF3EF8D
:1002500004F0D89009300C6E08300B6ED8900C3238
:100260000B32D8900C320B320A50E838E844E00BDD
:100270000C120A38E8441F0BE8B8E0090E6A08506F
:10028000076E0950086ED89008320732D8900832AD
:1002900007320A50E840E840C00B08120A40E84024
:1002A0003F0B0BC009F00CC00AF0E86A0CBEFF0E51
:1002B0000D6E0E6E07C013F008C014F0E86A08BE99
:1002C000FF0E156EE56E1550E56E1450E56E135079
:1002D000E56E0E50E56E0D50E56E0A50E56E095064
:1002E000E56E14EC1DF0096EF3CF0AF0F4CF0DF0BB
:1002F000E9CF0EF0080EE126BEC313F0BFC314F021
:10030000E86A0301BFBFFF0E156E166EE56E15504D
:10031000E56E1450E56E1350E56E0E50E56E0D500F
:10032000E56E0A50E56E0950E56EFEEC1FF0096EB1
:10033000F3CF0AF0080EE126B6C30DF0B7C30EF0F6
:10034000E86A0301B7BFFF0E176E0E501B6E1B2627
:1003500017341C6ED8901B361C360D44E844FC0B39
:100360001A6E0D50E844E844030B1B12196AD8803A
:1003700006AED890D8B07AD109C00DF00AC00EF000
:10038000E86A0ABEFF0E176E800FF36E1250800FE0
:10039000F35C08E11150175C05E110500E5C02E1BE
:1003A0000F500D5CD8B03AD10650800FF36E1C5040
:1003B000800FF35C08E11B50055C05E11A50045CFA
:1003C00002E11950035CD8B002D1BCC30DF0BDC32B
:1003D0000EF0E86A0301BDBFFF0E176E186E0350E2
:1003E0000D2604500E2205501722065018220D50DB
:1003F0000301B86F0E50B96F1750BA6F1850BB6F2A
:10040000BEC30DF0BFC30EF0BCC317F0BDC318F0E0
:100410000E50800FF36E1850800FF35C02E11750FE
:100420000D5CD8B0B8D0B8C31DF0B9C31EF0BAC3C4
:100430001FF0BBC320F0D8901F30226E1E30216EFB
:10044000D89022322132D890223221322050E838FE
:10045000E844E00B22122038E8441F0BE8B8E0091A
:10046000246A21500B6E22500C6ED8901F30226EE1
:100470001E30216ED890223221322050E840E840D0
:10048000C00B22122040E8403F0B2150076E225043
:10049000086E0BC021F00CC022F0E86A0CBEFF0E03
:1004A000236E246E07C025F008C026F0E86A08BE57
:1004B000FF0E276EE56E2750E56E2650E56E25503F
:1004C000E56E2450E56E2350E56E2250E56E215016
:1004D000E56E14EC1DF0216EF3CF22F0F4CF23F083
:1004E000E9CF24F0080EE1260DC025F00EC026F05D
:1004F000E86A0EBEFF0E276EE56E2750E56E2650A9
:10050000E56E2550E56E2450E56E2350E56E2250D1
:10051000E56E2150E56EFEEC1FF0216EF3CF22F068
:10052000080EE1262150096E22500A6E09C021F002
:100530000AC022F0E86A0ABEFF0E236E246E125033
:10054000800FF36E2450800FF35C08E12350115CA0
:1005500005E12250105C02E121500F5C1CE20D50BD
:10056000175C0D6E0E5018580E6EE86A0EBEFF0E28
:10057000176E186E0D501D5E0E501E5A17501F5AE2
:100580001850205A1D500301B86F1E50B96F1F50EC
:10059000BA6F2050BB6F1C50800FF36E0301BB512C
:1005A000800FF35C08E1BA511B5C05E1B9511A5C9C
:1005B00002E1B851195CD8B0EFD119500301B86FFE
:1005C0001A50B96F1B50BA6F1C50BB6FE5D11C504D
:1005D000800FF36E0650800FF35C08E105501B5C42
:1005E00005E104501A5C02E10350195CD8B0D4D183
:1005F0001350035C0D6E145004580E6E15500558C0
:10060000176E16500658186E0D500301B86F0E5035
:10061000B96F1750BA6F1850BB6FBED1BCC30DF085
:10062000BDC30EF0E86A0301BDBFFF0E176E186E62
:1006300013500D2614500E22155017221650182252
:100640000D50035C0D6E0E5004580E6E1750055879
:10065000176E18500658186E0D500301B86F0E50E3
:10066000B96F1750BA6F1850BB6F96D10A1E096C3C
:10067000D8B40A2A09C00DF00AC00EF0E86A0ABE12
:10068000FF0E176E186E1250800FF36E1850800F09
:10069000F35C08E11750115C05E10E50105C02E1BB
:1006A0000D500F5CD8B055D11C1C186E1B1C176E5A
:1006B0001A1C0E6E191C0D6E0D2A04E10E2A02E1A1
:1006C000174A182A1850800FF36E0650800FF35CFB
:1006D00008E10550175C05E104500E5C02E103508F
:1006E0000D5CD8B00FD1BCC319F0BDC31AF0E86AD5
:1006F0000301BDBFFF0E1B6E1C6E1950035C196E0B
:100700001A5004581A6E1B5005581B6E1C50065880
:100710001C6E19500301B86F1A50B96F1B50BA6F95
:100720001C50BB6FBEC319F0BFC31AF0BCC31BF093
:10073000BDC31CF01A50800FF36E1C50800FF35C89
:1007400002E11B50195CD8B0C1D0B8C31DF0B9C3C9
:100750001EF0BAC31FF0BBC320F0D8901F30226E2A
:100760001E30216ED89022322132D890223221328E
:100770002050E838E844E00B22122038E8441F0BF0
:10078000E8B8E009236E246A23BE2468241E231ED1
:10079000221E216C05E1222A03E1232AD8B4242A4F
:1007A00021500B6E22500C6ED8901F30226E1E30DE
:1007B000216ED890223221322050E840E840C00B10
:1007C00022122040E8403F0B221E216C02E1222A27
:1007D00000E12150076E2250086EE86A0CBEFF0E41
:1007E000216E226EE86A08BEFF0E236EE56E23506E
:1007F000E56E0850E56E0750E56E2250E56E21501B
:10080000E56E0C50E56E0B50E56E14EC1DF0076EB6
:10081000F3CF08F0F4CF0BF0E9CF0CF0080EE1268F
:1008200019C021F01AC022F0E86A1ABEFF0E236E2A
:10083000E56E2350E56E2250E56E2150E56E0C50BA
:10084000E56E0B50E56E0850E56E0750E56EFEEC68
:100850001FF0076EF3CF08F0080EE126081E076CA4
:1008600002E1082A00E10750096E08500A6EE86AA2
:100870000ABEFF0E076E800FF36E1250800FF35CFE
:1008800008E11150075C05E110500A5C02E10F50CD
:10089000095C1CE219501B5C196E1A501C581A6E28
:1008A000E86A1ABEFF0E076E086E19501D261A5010
:1008B0001E2207501F22085020221D500301B86F2E
:1008C0001E50B96F1F50BA6F2050BB6F0301BB5150
:1008D000800FF36E1850800FF35C08E11750BA5D7B
:1008E00005E10E50B95D02E10D50B85DD8B054D0AD
:1008F0000D500301B86F0E50B96F1750BA6F1850F2
:10090000BB6F4AD00650800FF36E1850800FF35C17
:1009100008E11750055C05E10E50045C02E10D5042
:10092000035CD8B039D013500324076E1450042050
:10093000086E15500520096E165006200A6E0750E5
:100940000301B86F0850B96F0950BA6F0A50BB6FF6
:1009500023D0BCC307F0BDC308F0E86A0301BDBFE4
:10096000FF0E096E0A6E0750132608501422095014
:1009700015220A5016221350032614500422155033
:1009800005221650062203500301B86F0450B96FB8
:100990000550BA6F0650BB6FD8900301BA31046E90
:1009A000B931036ED89004320332BB51E840E840BD
:1009B000C00B0412BB41E8403F0BE8BAC009056E0A
:1009C000066A05BE0668B2510326B3510422B4512B
:1009D0000522B55106220350B26F0450B36F055083
:1009E000B46F0650B56FE56A100EE56E800EE56EC9
:1009F000030EE56EB00EE56E0250E56E0150E56E39
:100A00000050E56EA9EC27F0080EE126E4CF27F0B0
:100A1000E4CF26F0E4CF25F0E4CF24F0E4CF23F0B8
:100A2000E4CF22F0E4CF21F0E4CF20F0E4CF1FF0B8
:100A3000E4CF1EF0E4CF1DF0E4CF1CF0E4CF1BF0B8
:100A4000E4CF1AF0E4CF19F0E4CF18F0E4CF17F0B8
:100A5000E4CF16F0E4CF15F0E4CF14F0E4CF13F0B8
:100A6000E4CF12F0E4CF11F0E4CF10F0E4CF0FF0B8
:100A7000E4CF0EF0E4CF0DF0E4CF0CF0E4CF0BF0B8
:100A8000E4CF0AF0E4CF09F0E4CF08F0E4CF07F0B8
:100A9000E4CF06F0E4CF05F0E4CF04F0E4CF03F0B8
:100AA000E4CF02F0E4CF01F0E4CF00F0E4CFD9FFCF
:100AB0001200D9CFE5FFE1CFD9FF00C0E5FF01C0AB
:100AC000E5FF02C0E5FF03C0E5FF04C0E5FF05C088
:100AD000E5FF06C0E5FF07C0E5FF08C0E5FF09C068
:100AE000E5FF0AC0E5FF0BC0E5FF0CC0E5FF0DC048
:100AF000E5FF0EC0E5FF0FC0E5FF10C0E5FF11C028
:100B0000E5FF12C0E5FF13C0E5FF14C0E5FF15C007
:100B1000E5FF16C0E5FF17C0E5FF18C0E5FF19C0E7
:100B2000E5FF1AC0E5FF1BC0E5FF1CC0E5FF1DC0C7
:100B3000E5FF1EC0E5FF020EDBCF00F0030EDBCFAA
:100B400001F0040EDBCF02F0050EDBCF03F0060E42
:100B5000DBCF04F0070EDBCF05F0080EDBCF06F08D
:100B6000090EDBCF07F00A0EDBCF08F0096A0A6A2C
:100B700002C00DF00D50800A0DE102500501116F09
:100B80000150106F00500F6F050E016E0F0E006EBA
:100B9000800E026E03C0E9FF04C0F3FF0550EDECC8
:100BA00035F00B6E0B50D8B40FEF09F00B50250A3F
:100BB00002E0F6EF08F00C6A0D6A0E6A0F6A106A1E
:100BC0000A0E116E126A136A146A200E156E1668E8
:100BD000176A2B0E186E032A02E3044A052A03C083
:100BE000E9FF04C0F3FF0550EDEC35F0196E250A5E
:100BF00013E11950E56E0250E56E0150E56E0050AC
:100C0000E56E03EC25F0040EE126094A0A2A032AC0
:100C100002E3044A052ABED71950300A06E1300E15
:100C2000156E032A02E3044A052A03C0E9FF04C043
:100C3000F3FF0550EDEC35F02D0A06E1010E146EC0
:100C4000032A02E3044A052A03C0E9FF04C0F3FFB4
:100C50000550EDEC35F0200A08E1010E176E200E6C
:100C6000186E032A02E3044A052A03C0E9FF04C000
:100C7000F3FF0550EDEC35F02B0A06E1010E176E7F
:100C8000032A02E3044A052A03C0E9FF04C0F3FF74
:100C90000550EDEC35F0196E310E195C2BE33A0E70
:100CA000195C28E203C019F004C01AF005C01BF05B
:100CB00019C0E9FF1AC0F3FF1B50EDEC35F01C6EB4
:100CC000300E1C5C11E33A0E1C5C0EE213500A0D50
:100CD000F3CF1DF01C501D26D00E1D24136E192AB3
:100CE00002E31A4A1B2AE4D719C003F01AC004F021
:100CF0001BC005F003C0E9FF04C0F3FF0550EDEC95
:100D000035F02E0A2DE1032A02E3044A052A166A69
:100D100003C019F004C01AF005C01BF019C0E9FFA8
:100D20001AC0F3FF1B50EDEC35F01C6E300E1C5C4E
:100D300011E33A0E1C5C0EE216500A0DF3CF1DF0C3
:100D40001C501D26D00E1D24166E192A02E31A4AC5
:100D50001B2AE4D719C003F01AC004F01BC005F029
:100D600003C0E9FF04C0F3FF0550EDEC35F0196E48
:100D70006C0A07E1010E0C6E032A02E3044A052AFD
:100D800009D01950680A06E1010E0E6E032A02E32B
:100D9000044A052A03C0E9FF04C0F3FF0550EDEC47
:100DA00035F0750A06E1010E106E032A02E3044ACB
:100DB000052A03C0E9FF04C0F3FF0550EDEC35F050
:100DC000196E730A05E1010E0D6E200E156E3FD0EF
:100DD0001950780A03E1100E116E39D01950580AD3
:100DE00005E1100E116E010E126E31D01950630A1A
:100DF00002E1116A2CD019506F0A03E1080E116E3E
:100E000026D01950660A03E1010E0F6E20D019504A
:100E1000640A1DE01950690A1AE0105005E0FF0E3F
:100E200003260422052213D01950E56E0250E56E08
:100E30000150E56E0050E56E03EC25F0040EE1264E
:100E4000094A0A2A032A02E3044A052AA3D60D50B6
:100E500021E00650030F0D6E000E0720196E000EE4
:100E600008201A6E0DC006F019C007F01AC008F06D
:100E7000FD0E0D26FF0E19221A220DC0E9FF19C022
:100E8000F3FF1A509FEC34F00D6EF3CF19F0F4CF4E
:100E90001AF0FDD00F500DE0000E1A6E120E196EF2
:100EA000A60E0D6E040E0626000E072208221668F6
:100EB000EED016680C5023E00650040F0C6E000EA6
:100EC00007200F6E000E08201B6E0CC006F00FC02E
:100ED00007F01BC008F0FC0E0C26FF0E0F221B2291
:100EE0000CC0E9FF0FC0F3FF1B5025EC34F00C6E73
:100EF000F3CF0FF0F4CF1BF0E9CF1CF067D00E500A
:100F00002FE00650020F0E6E000E07201D6E000E21
:100F100008201E6E0EC006F01DC007F01EC008F0AF
:100F2000FE0E0E26FF0E1D221E220EC0E9FF1DC062
:100F3000F3FF1E5077EC35F00E6E0EC00CF00F6A0A
:100F40001B6A1C6A11500A0A03E11050D8B43ED043
:100F50000C500E6E0EC00CF00F6A1B6A1C6A36D065
:100F60000650020F0E6E000E07201D6E000E0820A8
:100F70001E6E0EC006F01DC007F01EC008F0FE0E6B
:100F80000E26FF0E1D221E220EC0E9FF1DC0F3FF1C
:100F90001E5077EC35F00E6EF3CF1DF00EC00CF046
:100FA0001DC00FF0E86A1DBEFF0E1B6E1C6E1150B7
:100FB0000A0A02E110500AE00C500E6E0F501D6E2E
:100FC0000EC00CF01DC00FF01B6A1C6A030E196ED8
:100FD000DB0E0D6E800E1A6E1150D8B440D010503A
:100FE00013E01150E56E030EE56EDB0EE56E1C504E
:100FF000E56E1B50E56E0F50E56E0C50E56E22EC71
:101000001FF0070EE12612D01150E56E030EE56EBB
:10101000DB0EE56E1C50E56E1B50E56E0F50E56E65
:101020000C50E56E02EC2CF0070EE12617502FE075
:101030000DC0E9FF19C0F3FF1A50EDEC35F02D0A91
:1010400026E0FF0E0D2619221A2218C0E5FF0DC05A
:10105000E9FF19C0F3FF1A507FEC36F018D00CC02E
:10106000E5FF0DC0E9FF19C0F3FF1A507FEC36F021
:101070000D50010F0C6E000E19200E6E000E1A207E
:10108000E56A0CC0E9FF0EC0F3FF7FEC36F00DC03F
:101090000CF019C00EF01AC00FF013C010F0105071
:1010A00010E00CC0E9FF0EC0F3FF0F50EDEC35F07F
:1010B000176E175006E00C2A02E30E4A0F2A10069C
:1010C000EED710C013F014501EE109C00CF00AC096
:1010D0000EF010C00FF00F5010E01550E56E0250EA
:1010E000E56E0150E56E0050E56E03EC25F0040E50
:1010F000E1260C4A0E2A0F06EED70CC009F00EC0EE
:101100000AF00FC013F016C00CF00DC00DF019C09E
:101110000EF01AC00FF009C010F00AC015F00DC093
:10112000E9FF0EC0F3FF0F50EDEC35F0166E1650D0
:10113000D8B43ED00CC016F0176A161E171E1650F3
:10114000171005E00CC016F00C06165031E00DC06B
:10115000E9FF0EC0F3FF0F50EDEC35F0116E1250A9
:1011600010E01150E56E34EC35F0166EE652165074
:1011700004E0DF0E1114166E02D011C016F016C076
:1011800011F01150E56E0250E56E0150E56E005011
:10119000E56E03EC25F0040EE1260D2A02E30E4A6B
:1011A0000F2A104A152A1350D8B4B9D71306B7D747
:1011B00010C009F015C00AF014502BE010C00CF05C
:1011C00015C00DF013C00EF00E501FE0200EE56E9E
:1011D0000250E56E0150E56E0050E56E03EC25F01F
:1011E000040EE1260C4A0D2A0E06EED70B50E56ED2
:1011F0000250E56E0150E56E0050E56E03EC25F0FF
:10120000040EE126094A0A2A04D00CC009F00DC0D8
:101210000AF0032A02E3044A052ACAEF05F00AC0CD
:10122000F3FF0950E4CF1EF0E4CF1DF0E4CF1CF033
:10123000E4CF1BF0E4CF1AF0E4CF19F0E4CF18F0BC
:10124000E4CF17F0E4CF16F0E4CF15F0E4CF14F0BC
:10125000E4CF13F0E4CF12F0E4CF11F0E4CF10F0BC
:10126000E4CF0FF0E4CF0EF0E4CF0DF0E4CF0CF0BC
:10127000E4CF0BF0E4CF0AF0E4CF09F0E4CF08F0BC
:10128000E4CF07F0E4CF06F0E4CF05F0E4CF04F0BC
:10129000E4CF03F0E4CF02F0E4CF01F0E4CF00F0BC
:1012A000E4CFD9FF12003C4E4F20464C4F41543EF4
:1012B0000000D9CFE5FFE1CFD9FF00C0E5FF01C0B5
:1012C000E5FF02C0E5FF03C0E5FF04C0E5FF05C080
:1012D000E5FF06C0E5FF07C0E5FF08C0E5FF09C060
:1012E000E5FF0AC0E5FF0BC0E5FF0CC0E5FF0DC040
:1012F000E5FF020EDBCF00F0030EDBCF01F0040EA2
:10130000DBCF02F00050090F066E000E0120076EC1
:10131000000E0220086E0B6E07500A6E0650096E12
:10132000E56A0D0EE56E0B50E56E0A50E56E09504C
:10133000E56E800EE56E030EE56EC00EE56EA9EC5F
:1013400027F0080EE12600C009F001C00AF002C033
:101350000BF0E56AE56E0B50E56E0A50E56E09503C
:10136000E56E800EE56E040EE56E810EE56EA9EC6D
:1013700027F0080EE12681C403F00350010A04E0BF
:101380000350030A01E019D10301D551036ED65170
:10139000046E0301C851056EC951096E0550035C06
:1013A00005011E6F095004581F6F0301D551030139
:1013B000C86F0301D6510301C96F0301D75103015F
:1013C000CA6F0301D8510301CB6F05011E511F11D4
:1013D000D8A47FD012EC33F0036EF3CF04F0F4CF37
:1013E00005F0E9CF09F00301CD510A6ECE510B6E25
:1013F000CF510C6ED0510D6E0A50035E0B50045A43
:101400000C50055A0D50095A03500401F86F04504E
:10141000F96F0550FA6F7F0E0914FB6F0301CCB111
:1014200025D00401F935FB31046EFA31036E043422
:1014300004320332000E04BEFF0E096E056E86C430
:101440000AF00B6A0C6A0D6A0D50800FF36E09509A
:10145000800FF35C08E105500C5C05E104500B5C67
:1014600002E103500A5C02E20301CC810301CCB12A
:101470004AD0C4C303F0C5C304F0C6C305F0C7C354
:1014800009F00401FB51800FF36E0950800FF35CEB
:1014900008E10550FA5D05E10450F95D02E10350F1
:1014A000F85D08E203C0F8F404C0F9F405C0FAF4EA
:1014B00009C0FBF40301D9A303D0010E036E01D0D0
:1014C000036803C01EF505011F6B03AE01D01F6941
:1014D0001AD00301CC91D1C3F8F4D2C3F9F4D3C329
:1014E000FAF4D4C3FBF40401F8510301C46F0401FE
:1014F000F9510301C56F0401FA510301C66F0401DC
:10150000FB510301C76F0401FB51800F800F08E1FD
:10151000000EFA5D05E1000EF95D02E1010EF85DD5
:1015200006E20401FC6BFD6BFE6BFF6B46D0040111
:10153000F851036EF951046EFA51056EFB51E56ED8
:101540000550E56E0450E56E0350E56E010EE56E44
:10155000000EE56AE56AE56ACCEC22F0036EF3CF93
:1015600004F0F4CF05F0E9CF09F0080EE1261EC51E
:101570000AF01FC50BF0E86A05011FBFFF0E0C6ED5
:101580000D6E0950E56E0550E56E0450E56E035092
:10159000E56E0D50E56E0C50E56E0B50E56E0A5091
:1015A000E56E14EC1DF00401FC6FF3CFFDF4F4CFF5
:1015B000FEF4E9CFFFF4080EE126020E0401815D7E
:1015C000D8A058D10301D9A155D1D9A511D0005027
:1015D000230F036E000E0120046E000E0220E56E44
:1015E0000450E56E0350E56E8DEC2EF0030EE126FF
:1015F0000050230F036E000E0120046E000E022027
:10160000E56E0450E56E0350E56E0EEC00F0030E3F
:10161000E1260050230F036E000E0120046E000E21
:101620000220056E020E0326000E0422052203C0CE
:10163000E9FF04C0F3FF055025EC34F0F3CF04F0CC
:10164000F4CF05F0E9CF09F00450036E0550046EA5
:10165000D89004320332D890043203320950E84063
:10166000E840C00B04120940E8403F0BE8BAC0094B
:10167000056E096A05BE09680301D551035C0301C3
:10168000E76F0301D65104580301E86F0301D751F6
:1016900005580301E96F0301D85109580301EA6FA6
:1016A000D880EAAFD89022E30401831D046E821D26
:1016B000036E034A042AE86A04BEFF0E056E096E33
:1016C0000301EA51800FF36E0950800FF35C08E1CB
:1016D0000550E95D05E10450E85D02E10350E75D76
:1016E00005E30301E76BE86BE96BEA6B0301EA5181
:1016F000800F800F08E1000EE95D05E1000EE85D56
:1017000002E1010EE75D1EE382C403F083C404F02E
:10171000E86A040183BFFF0E056E800FF36E0301BC
:10172000EA51800FF35C08E1E951055C05E1E851FD
:10173000045C02E1E751035C05E30301E76BE86B3E
:10174000E96BEA6B0401875109E0E86CD89003016A
:10175000E737E837E937EA37010FF9E30301EA51E0
:10176000800F800F08E1000EE95D05E1800EE85D65
:1017700002E1000EE75D07E30301E7697F0EE86F12
:10178000E96BEA6B14D00301EA51800F810F08E185
:10179000FF0EE95D05E1800EE85D02E1000EE75D08
:1017A00006E20301E76B800EE86FE969EA69005021
:1017B000330F036E000E0120046E000E0220056E32
:1017C0000301E751096EE851E56E0950E56E0550D9
:1017D000E56E0450E56E0350E56E9BEC11F0050ECE
:1017E000E12604018151030A23E10050330F036E07
:1017F000000E0120046E000E0220056E0B0E032663
:10180000000E0422052203C0E9FF04C0F3FF0550C7
:1018100025EC34F0F3CF04F0F4CF05F00450036E60
:101820000550046E03500301C06F0450C16F22D0F5
:101830000050330F036E000E0120046E000E0220D4
:10184000056E0B0E0326000E0422052203C0E9FFDD
:1018500004C0F3FF055025EC34F0F3CF04F0F4CFCF
:1018600005F00450036E0550046E03500301C26F6F
:101870000450C36F81C403F00350010A04E0035015
:10188000030A01E07DD0C0C303F0C1C304F0E86ADD
:101890000301C1BFFF0E056E096E0401FC51035C1C
:1018A0000301E76F0401FD5104580301E86F0401CF
:1018B000FE5105580301E96F0401FF510958030166
:1018C000EA6F800F800F08E1000EE95D05E1800EF0
:1018D000E85D02E1000EE75D07E30301E7697F0EC3
:1018E000E86FE96BEA6B14D00301EA51800F810FB6
:1018F00008E1FF0EE95D05E1800EE85D02E1000E02
:10190000E75D06E20301E76B800EE86FE969EA69CB
:101910000050440F036E000E0120046E000E0220E2
:10192000056E0301E751096EE851E56E0950E56E59
:101930000550E56E0450E56E0350E56E9BEC11F02A
:10194000050EE126440E0026000E012202220B0E97
:101950000026000E0122022200C0E9FF01C0F3FFB1
:10196000025025EC34F0F3CF01F0F4CF02F0015037
:10197000006E0250016E00500301C26F0150C36F30
:101980000850086EE56A0D0EE56E800EE56E030EDA
:10199000E56EC00EE56E0850E56E0750E56E065028
:1019A000E56EA9EC27F0080EE126E4CF0DF0E4CFB8
:1019B0000CF0E4CF0BF0E4CF0AF0E4CF09F0E4CF71
:1019C00008F0E4CF07F0E4CF06F0E4CF05F0E4CF71
:1019D00004F0E4CF03F0E4CF02F0E4CF01F0E4CF71
:1019E00000F0E4CFD9FF120025642025640A00002E
:1019F000D9CFE5FFE1CFD9FF00C0E5FF01C0E5FF8A
:101A000002C0E5FF03C0E5FF04C0E5FF05C0E5FF38
:101A100006C0E5FF07C0E5FF08C0E5FF09C0E5FF18
:101A20000AC0E5FF0BC0E5FF0CC0E5FF020EDBCFEF
:101A300000F0030EDBCF01F0040EDBCF02F0036AEF
:101A4000046A3CEC33F0056EFE0A01E077D0E0EC6E
:101A50002EF03CEC33F0066E030E065CD8A05AD094
:101A6000060E065CD8B056D0FD0E0624076EFA6A44
:101A7000FB6A0734FA36E834FA36FC0B8C0FE56E55
:101A80001A0EFA22000EFB22E450F96E4CEF0DF014
:101A90005EEF0DF077EF0DF00050090F076E000EAE
:101AA0000120086E000E022007C0E9FF08C0F3FF06
:101AB00077EC35F0036EF3CF04F02CD00050090F13
:101AC000076E000E0120086E000E0220096E020E45
:101AD0000726000E0822092207C0E9FF08C0F3FF0D
:101AE000095077EC35F0036EF3CF04F013D00050BB
:101AF000070F076E000E0120086E000E022007C0BF
:101B0000E9FF08C0F3FFEDEC35F0010B076E07C0ED
:101B100003F0046A06C007F00450E56E0350E56E5A
:101B2000E56A0750E56E000EE56E190EE56EE80EEB
:101B3000E56EDAEC30F0070EE1269AD1080E055C6E
:101B4000D8B096D1FA6AFB6A0534FA36E834FA3628
:101B5000FC0B620FE56E1B0EFA22000EFB22E45016
:101B6000F96EC1EF0DF0DCEF0DF0EEEF0DF000EFD0
:101B70000EF032EF0EF068EF0EF087EF0EF0E4EFAC
:101B80000EF00050230F056E000E0120076E000EB0
:101B90000220E56E0750E56E0550E56EF2EC15F09B
:101BA000030EE126020EE56E00C0E9FF01C0F3FF5F
:101BB00002507FEC36F05CD10050330F056E000E02
:101BC0000120076E000E0220E56E0750E56E0550FD
:101BD000E56ED6EC1BF0030EE1264AD10050440F0F
:101BE000056E000E0120076E000E0220E56E075004
:101BF000E56E0550E56ED6EC1BF0030EE12638D1FC
:101C00000050090F056E000E0120076E000E022025
:101C1000086E3CEC33F00C6E0B6AE56A0CC0F4FF06
:101C200005C0E9FF07C0F3FF085046EC36F03CEC76
:101C300033F00A6A0B260A500C220BC0E5FF0CC0D9
:101C4000F4FF05C0E9FF07C0F3FF085046EC36F08B
:101C5000010EE56E00C0E9FF01C0F3FF02507FEC0A
:101C600036F006D10050090F056E000E0120076EF8
:101C7000000E0220086E020E0526000E0722082222
:101C80003CEC33F00C6E0B6AE56A0CC0F4FF05C047
:101C9000E9FF07C0F3FF085046EC36F03CEC33F0A8
:101CA0000A6A0B260A500C220BC0E5FF0CC0F4FF99
:101CB00005C0E9FF07C0F3FF085046EC36F0E56ABF
:101CC00000C0E9FF01C0F3FF02507FEC36F0D0D036
:101CD0000050070F056E000E0120076E000E022057
:101CE000086E3CEC33F0010BF46E05C0E9FF07C051
:101CF000F3FF0850EDEC35F0FE0BF410E56E05C077
:101D0000E9FF07C0F3FF08507FEC36F0B1D03CECA0
:101D100033F0066E0050160F056E000E0120076EA0
:101D2000000E0220086E05500C0F096E000E0720F1
:101D30000A6E000E08200B6E0650D880E866D89018
:101D40000C6A0C360C50D880E866D8900C6A0C36B9
:101D50000C50010BF46E09C0E9FF0AC0F3FF0B50F1
:101D6000EDEC35F0FE0BF410E56E09C0E9FF0AC09A
:101D7000F3FF0B507FEC36F00650010A01E078D0FB
:101D8000080E0526000E07220822E56AF46AF66AA4
:101D9000F76A05C0E9FF07C0F3FF0850DCEC35F037
:101DA0000050230F056E000E0120066E000E02206B
:101DB000E56AE56AE56E0650E56E0550E56E76EC7F
:101DC00024F0050EE12654D03CEC33F0046E036A97
:101DD0003CEC33F0066A0326065004220050160F2E
:101DE000056E000E0120066E000E0220076E0550E3
:101DF0000C0F086E000E0620096E000E07200A6EFA
:101E000008C0E9FF09C0F3FFEDEC35F0E880E56EAE
:101E100008C0E9FF09C0F3FF0A507FEC36F0080E56
:101E20000526000E0622072203C008F004C009F0B0
:101E300008C0E5FF09C0F4FFF66AF76A05C0E9FFCC
:101E400006C0F3FF0750DCEC35F0230E0026000E31
:101E5000012202220450E56E0350E56E0250E56E49
:101E60000150E56E0050E56E67EC2AF0050EE126A4
:101E7000E4CF0CF0E4CF0BF0E4CF0AF0E4CF09F0AC
:101E8000E4CF08F0E4CF07F0E4CF06F0E4CF05F0AC
:101E9000E4CF04F0E4CF03F0E4CF02F0E4CF01F0AC
:101EA000E4CF00F0E4CFD9FF120000C0E5FF01C08D
:101EB000E5FF02C0E5FF03C0E5FF04C0E5FF05C084
:101EC000E5FF06C0E5FF07C0E5FF08C0E5FF09C064
:101ED000E5FF0AC0E5FF0BC0E5FF0CC0E5FF006AA7
:101EE000016A026A040E025CD8B0E8D101C003F0B6
:101EF000012A100E035CD8B0E1D10401222B100E90
:101F0000225D01E3226B04012239E8441F0B036EBA
:101F1000046A1A0E0326050E042203C0E9FF04C05A
:101F2000EAFFEFCF03F0070E2215046E010E056ED7
:101F3000000E066E045006E0E86CD89005360636B2
:101F4000010FFCE3076A03500516075006160550FB
:101F50000610D880E866D890056A05360550D8A4E2
:101F6000C1D704012251020DF450046EF3CF03F0E7
:101F7000E00E0324056E000E0420066E05C0E9FF86
:101F800006C0EAFFEECF05F0EFCF06F004011FA177
:101F90009DD0200E0324076E030E0420086E07C098
:101FA000E9FF08C0EAFFEECF07F0EFCF08F00650D8
:101FB000800FF36E0850800FF35C02E10750055C60
:101FC00003E2056A066A60D0400E0326030E04226F
:101FD00003C0E9FF04C0EAFFEECF03F0EFCF04F047
:101FE0000450800FF36E0650800FF35C02E1055041
:101FF000035C04E205683F0E066E46D00750055CA0
:10200000096E085006580A6EE86A0ABEFF0E0B6E8B
:10201000E56E0B50E56E0A50E56E0950E56EE56A17
:10202000E56A400EE56E000EE56A14EC1DF0096EDF
:10203000F3CF0AF0F4CF0BF0E9CF0CF0080EE12655
:102040000750035C076E08500458086EE86A08BE23
:10205000FF0E036EE56E0350E56E0850E56E075007
:10206000E56E0C50E56E0B50E56E0A50E56E0950BA
:10207000E56ECCEC22F0036EF3CF04F0080EE126FF
:102080000350056E0450066E04011E51800FF36E5E
:102090000650800FF35C02E105501D5D03E3056A05
:1020A000066A14D004011D51FF08036E3F0E1E5531
:1020B000046E0650800FF36E0450800FF35C02E153
:1020C0000350055C03E305683F0E066E04012251D0
:1020D000020DF450046EF3CF03F0000E0326030E3E
:1020E000042203C0E9FF04C0EAFFEECF03F0EFCF04
:1020F00004F00350055C036E04500658046ED8804B
:1021000004AED89004E3041E036CD8B4042A022A57
:1021100004011E51800FF36E0450800FF35C02E146
:1021200003501D5DD8B0DED604012251020DF450DB
:10213000086EF3CF07F0000E0726030E082207C033
:10214000E9FF08C0EAFF05C0EEFF06C0EFFF04018B
:102150001FA55AD004012251020DF450086EF3CF8E
:1021600007F0600E0724096E030E08200A6E09C0EE
:10217000E9FF0AC0EAFFEECF0BF0EFCF0CF00B50F7
:102180000C10D8B441D05C0E0726040E082207C0FC
:10219000E9FF08C0EAFFEECF07F0EFCF08F00750E5
:1021A000055C036E08500658046E03101CE00450D2
:1021B000800F800F02E1010E035C076A07360C50A6
:1021C000800F800F02E1010E0B5C0B6A0B3607508B
:1021D0000B1809E109C0E9FF0AC0EAFF03C0EEFFDE
:1021E00004C0EFFF7FD604012251020DF450046EAB
:1021F000F3CF03F0600E0326030E042203C0E9FFB1
:1022000004C0EAFFEE6AEF6A04011FA343D0005046
:102210000EE100C003F0002A046A230E0326040E18
:10222000042203C0E9FF04C0EAFF420EEF6E00C0C3
:1022300003F0002A046A230E0326040E0422640E0F
:1022400004012225076E03C0E9FF04C0EAFF07C0AE
:10225000EFFF00C003F0002A046A230E0326040ED9
:1022600004220650076E03C0E9FF04C0EAFF07C05E
:10227000EFFF00C003F0002A046A230E0326040EB9
:1022800004220550076E03C0E9FF04C0EAFF07C03F
:10229000EFFF28D622C403F00650E56E0550E56E28
:1022A000E56A0350E56E000EE56E4F0EE56E460ED4
:1022B000E56EDAEC30F0070EE12614D602C001F02C
:1022C00000501DE004011FA31AD000C002F0002A34
:1022D000036A230E0226040E032202C0E9FF03C094
:1022E000EAFF0A0EEF6E0050E56E800EE56E040EFA
:1022F000E56E230EE56E2BEC28F0040EE12601506E
:10230000E4CF0CF0E4CF0BF0E4CF0AF0E4CF09F017
:10231000E4CF08F0E4CF07F0E4CF06F0E4CF05F017
:10232000E4CF04F0E4CF03F0E4CF02F0E4CF01F017
:10233000E4CF00F01200D9CFE5FFE1CFD9FF00C014
:10234000E5FF01C0E5FF02C0E5FF03C0E5FF04C0F3
:10235000E5FF05C0E5FF06C0E5FF07C0E5FF08C0D3
:10236000E5FF09C0E5FF0AC0E5FF0BC0E5FF020E6F
:10237000DBCF00F0030EDBCF01F0040EDBCF02F069
:10238000050EDBCF03F0060EDBCF04F002500A6E21
:102390000150096E0050086EE56A110EE56E0A5094
:1023A000E56E0950E56E0850E56E800EE56E0F0E85
:1023B000E56E230EE56EA9EC27F0080EE12632CF7C
:1023C00005F033CF06F0E86A0F0133BFFF0E076E4A
:1023D0000301F26F0650F16F0550F06FEF6B03C011
:1023E00005F004C006F0E86A04BEFF0E076E086E32
:1023F00023CF09F0E56AE56AE56A0950E56E085001
:10240000E56E0750E56E0650E56E0550E56E14EC7E
:102410001DF00301EB6FF3CFECF3F4CFEDF3E9CF55
:10242000EEF3080EE1260F012451D8B4AFD00450CA
:10243000800F800F02E1010E035C25E30F0129519B
:10244000800F7C0F08E1000E285D05E1000E275D7E
:1024500002E1000E265D17E20F013151800FF36E8D
:102460000301F251800FF35C0DE1F1510F01305D7A
:1024700009E10301F0510F012F5D04E10301EF5168
:102480000F012E5D33E3D88004AED890D8A043D09E
:102490000F012951800F840F08E1000E285D05E12E
:1024A000000E275D02E1010E265D35E30301F21DFA
:1024B0000A6EF11D096EF01D046EEF1D036E032AF6
:1024C00004E1042A02E1094A0A2A0A50800FF36E45
:1024D0000F013151800FF35C08E13051095C05E1D7
:1024E0002F51045C02E12E51035C15E205500F01EF
:1024F0002625036E06502721046E07502821096EF9
:10250000085029210A6E0350266F0450276F095086
:10251000286F0A50296F0F0126390F0B036E2739D8
:10252000046EF00B041A03262851E838F00B04124D
:1025300028390F0B096E29390A6EF00B0A1A092681
:10254000F00E0AB60A2624CF0BF0E56AE56AE56AC2
:102550000B50E56E0A50E56E0950E56E0450E56ECD
:102560000350E56E14EC1DF0036EF3CF04F0F4CFCE
:1025700009F0E9CF0AF0080EE12603500301EB272A
:102580000450EC230950ED230A50EE230F0125518E
:10259000D8B465D02A51055C0301F36F0F012B51AC
:1025A00006580301F46F0F012C5107580301F56F12
:1025B0000F012D5108580301F66F800F800F08E1BD
:1025C000010EF55D05E1000EF45D02E1000EF35D24
:1025D00006E30301F369F469F56BF66B13D00301AD
:1025E000F651800F810F08E1FF0EF55D05E1000E49
:1025F000F45D02E1000EF35D05E20301F36BF46BA1
:10260000F569F6690301F351F325036EF435046EA1
:10261000F535096EF6350A6E25CF0BF0E56AE56AE9
:10262000E56A0B50E56E0A50E56E0950E56E045000
:10263000E56E0350E56E14EC1DF0036EF3CF04F06D
:10264000F4CF09F0E9CF0AF0080EE12603500301A8
:10265000EB270450EC230950ED230A50EE230550DC
:102660000F012A6F06502B6F07502C6F08502D6FEB
:102670000301F251800FF36E0301EE51800FF35C02
:102680000DE1ED510301F15D09E10301EC5103019D
:10269000F05D04E10301EB510301EF5D11E2030181
:1026A000EF510F012E6F0301F0510F012F6F030146
:1026B000F1510F01306F0301F2510F01316F3AD028
:1026C0000301F21D066EF11D056EF01D046EEF1D77
:1026D000036E032A04E1042A02E1054A062A0301E3
:1026E000EE51800FF36E0650800FF35C08E1055049
:1026F000ED5D05E10450EC5D02E10350EB5D0AE2A3
:1027000003500F012E6F04502F6F0550306F06508D
:10271000316F10D00301EB510F012E6F0301EC510B
:102720000F012F6F0301ED510F01306F0301EE51C7
:102730000F01316FE56A110EE56E800EE56E0F0E2A
:10274000E56E230EE56E0250E56E0150E56E005019
:10275000E56EA9EC27F0080EE126E4CF0BF0E4CFFC
:102760000AF0E4CF09F0E4CF08F0E4CF07F0E4CFBB
:1027700006F0E4CF05F0E4CF04F0E4CF03F0E4CFBB
:1027800002F0E4CF01F0E4CF00F0E4CFD9FF120073
:1027900000C0E5FF01C0E5FF02C0E5FF03C0E5FFA3
:1027A00004C0E5FF05C0E5FF06C0E5FF07C0E5FF83
:1027B00008C0E5FF09C0E5FF0AC0E5FFC2A204D0DA
:1027C00004012051DBEF15F004012151D8B41BD1D5
:1027D00004012051020DF450016EF3CF00F0E00E21
:1027E0000026000E012200C0E9FF01C0EAFFEECF83
:1027F00000F0EFCF01F0E80E2025026E036A040E10
:10280000032202C0E9FF03C0EAFFEFCF02F002504B
:10281000FF0A01E152D002380F0B036E920E03241F
:10282000046E056A0F0E0522066A920E03260F0E2D
:10283000062203C0E9FF06C0EAFFEFCF03F0070E50
:102840000214066E010E076E065005E0E86CD89083
:102850000736010FFDE3071C066E031604C0E9FFEF
:1028600005C0EAFF03C0EFFF02380F0B036E890EAD
:102870000324046E056A0F0E0522066A890E0326DC
:102880000F0E062203C0E9FF06C0EAFFEFCF03F0F8
:10289000070E0214066E010E076E065005E0E86C86
:1028A000D8900736010FFDE3071C066E031604C01F
:1028B000E9FF05C0EAFF03C0EFFF04012051020D4C
:1028C000F450046EF3CF03F0E00E0326000E042252
:1028D00001340130066E0030056E063406320532D2
:1028E0000634063205320550005C056E065001586C
:1028F000066EC3CF07F0086A075005260850062267
:10290000C4CF07F0086A07500A6E096A0950052605
:102910000A50062203C0E9FF04C0EAFF05C0EEFF2B
:1029200006C0EFFF04011C51010A01E06AD0040156
:102930002051020DF450046EF3CF03F0E00E032497
:10294000056E000E0420066E05C0E9FF06C0EAFF12
:10295000EECF00F0EFCF01F0200E0326030E04228D
:1029600003C0E9FF04C0EAFFEECF05F0EFCF06F0A9
:102970009C0E0526D8A006060150800FF36E065067
:10298000800FF35C02E10550005C0EE20050640F22
:10299000056E000E0120066E03C0E9FF04C0EAFFC9
:1029A00005C0EEFF06C0EFFF04012051020DF450F8
:1029B000046EF3CF03F0400E0326030E042203C07F
:1029C000E9FF04C0EAFFEECF05F0EFCF06F0640E9A
:1029D0000526D8B0062A0650800FF36E0150800FEE
:1029E000F35C02E10050055C0CE29C0E0026D8A0CE
:1029F000010603C0E9FF04C0EAFF00C0EEFF01C00A
:102A0000EFFF0401216B0401202B100E205D01E378
:102A1000206B04012039E8441F0B006E016A1A0E76
:102A20000026050E012200C0E9FF01C0EAFFEFCF3A
:102A300000F0070E2015016E010E036E000E046EED
:102A4000015006E0E86CD89003360436010FFCE331
:102A5000056A005003160550041603500410D88070
:102A6000E866D890036A03360350D8A4A2D0A00E1B
:102A700004012025006E016A030E012200C0E9FF57
:102A800001C0EAFFEFCF00F00044E844FC0B016E08
:102A90000128C26EE80E2025006E016A040E012294
:102AA00000C0E9FF01C0EAFFEFCF02F00250FF0AC9
:102AB00001E17BD002380F0B006E920E0024016EF4
:102AC000036A0F0E0322046A920E00260F0E0422E0
:102AD00000C0E9FF04C0EAFFEFCF00F0070E0214C8
:102AE000046E010E056E045005E0E86CD8900536C2
:102AF000010FFDE30550001201C0E9FF03C0EAFF2A
:102B000000C0EFFF380E006E0F0E016E02380F0B83
:102B1000036E046A0350002604500122380E056E2D
:102B20000F0E066E055003260650042203C0E9FF6F
:102B300004C0EAFFEFCF03F0070E0216010E046E89
:102B4000025005E0E86CD8900436010FFDE3045014
:102B5000031200C0E9FF01C0EAFF03C0EFFF0F014D
:102B600045830000000045930F0144930BC0E5FF2F
:102B7000F2CF0BF0F29E4481000000000000000044
:102B80000000000000000000000000000000000045
:102B90000000000000000000000000000000000035
:102BA00044910BBEF28EE4CF0BF0C282010E040101
:102BB000216F04012051E4CF0AF0E4CF09F0E4CF03
:102BC00008F0E4CF07F0E4CF06F0E4CF05F0E4CF5F
:102BD00004F0E4CF03F0E4CF02F0E4CF01F0E4CF5F
:102BE00000F01200D9CFE5FFE1CFD9FF00C0E5FF2B
:102BF00001C0E5FF02C0E5FF03C0E5FF04C0E5FF3B
:102C000005C0E5FF06C0E5FF07C0E5FF08C0E5FF1A
:102C100009C0E5FF0AC0E5FF0BC0E5FF020EDBCFF0
:102C200000F0030EDBCF01F0040EDBCF02F0036AED
:102C3000046A3CEC33F0056EFE0A01E094D0E0EC4F
:102C40002EF03CEC33F0066E06500EE00650010A02
:102C50001DE00650020A2CE006500A0A3BE006502E
:102C60000B0A01E142D06DD00050060F076E000E36
:102C70000120086E000E022007C0E9FF08C0F3FF24
:102C800077EC35F0036EF3CF04F05BD000500C0FFF
:102C9000076E000E0120086E000E022007C0E9FF3B
:102CA00008C0F3FF77EC35F0036EF3CF04F049D0A2
:102CB00000500E0F076E000E0120086E000E02205D
:102CC00007C0E9FF08C0F3FF77EC35F0036EF3CFE0
:102CD00004F037D000C0E9FF01C0F3FF025077ECE9
:102CE00035F0036EF3CF04F02CD00050020F076EC6
:102CF000000E0120086E000E0220096E07C0E9FFD9
:102D000008C0F3FF095025EC34F0F3CF08F0F4CFFE
:102D100009F0E9CF0AF00850076E0950086ED89004
:102D200008320732D890083207320A50E840E840AB
:102D3000C00B08120A40E8403F0B0750036E0850D2
:102D4000046E0450E56E0350E56EE56A0650E56ECC
:102D5000000EE56E5D0EE56EB80EE56EDAEC30F055
:102D6000070EE126DBD0055014E00550010A3AE0D9
:102D70000550020A01E15FD005500A0A01E184D042
:102D800005500B0A01E199D005500C0A01E1AED0C3
:102D9000C5D00050060F056E000E0120066E000E15
:102DA0000220076E3CEC33F00B6E0A6AE56A0BC03A
:102DB000F4FF05C0E9FF06C0F3FF075046EC36F00C
:102DC0003CEC33F0096A0A2609500B220AC0E5FFE1
:102DD0000BC0F4FF05C0E9FF06C0F3FF075046EC47
:102DE00036F09CD000500C0F056E000E0120066ED0
:102DF000000E0220076E3CEC33F00B6E0A6AE56AA7
:102E00000BC0F4FF05C0E9FF06C0F3FF075046EC16
:102E100036F03CEC33F0096A0A2609500B220AC04E
:102E2000E5FF0BC0F4FF05C0E9FF06C0F3FF075044
:102E300046EC36F073D000500E0F056E000E0120E8
:102E4000066E000E0220076E3CEC33F00B6E0A6A31
:102E5000E56A0BC0F4FF05C0E9FF06C0F3FF0750A9
:102E600046EC36F03CEC33F0096A0A2609500B2296
:102E70000AC0E5FF0BC0F4FF05C0E9FF06C0F3FF81
:102E8000075046EC36F04AD03CEC33F0046E036A4F
:102E90003CEC33F0066A0326065004220450E56E2B
:102EA0000350E56E0250E56E0150E56E0050E56E90
:102EB00047EC32F0050EE12631D03CEC33F0046EE5
:102EC000036A3CEC33F0066A0326065004220450E1
:102ED000E56E0350E56E0250E56E0150E56E005060
:102EE000E56E76EC24F0050EE12618D03CEC33F0CC
:102EF000046E036A3CEC33F0066A03260650042293
:102F00000450E56E0350E56E0250E56E0150E56E2B
:102F10000050E56E67EC2AF0050EE126E4CF0BF0D9
:102F2000E4CF0AF0E4CF09F0E4CF08F0E4CF07F0F3
:102F3000E4CF06F0E4CF05F0E4CF04F0E4CF03F0F3
:102F4000E4CF02F0E4CF01F0E4CF00F0E4CFD9FF0A
:102F5000120000C0E5FF01C0E5FF02C0E5FF03C0AD
:102F6000E5FF05C0E5FFB7EC36F094928B9212ECCA
:102F700033F0F3CF01F0F4CF02F0E9CF03F0880F84
:102F800004017C6F130E01207D6F000E02207E6F06
:102F9000000E03207F6F26EC27F09284800E006ED7
:102FA0000F0E016E0F0E036E380E00260350012225
:102FB000800E026E0F0E036E800E005E0350015AEB
:102FC0000F0E056E380E0226055003220F0E056EF9
:102FD000800E025E0550035A02C0E9FF03C0EAFFFB
:102FE000EFCF02F0028400C0E9FF01C0EAFF02C097
:102FF000EFFF020EE56E000EE56A9FEC2BF0E65245
:10300000E652899A899E898C8982929A929E929C94
:103010009292938A810E006E0F0E016E0F0E036E58
:10302000380E0026035001220F0E036E800E005E44
:103030000350015A810E026E0F0E036E0F0E056EC5
:10304000380E0226055003220F0E056E800E025E1A
:103050000550035A02C0E9FF03C0EAFFEFCF02F0B8
:10306000029A00C0E9FF01C0EAFF02C0EFFF938CA3
:10307000810E006E0F0E016E0F0E036E380E0026CD
:10308000035001220F0E036E800E005E0350015AA2
:10309000810E026E0F0E036E0F0E056E380E0226A5
:1030A000055003220F0E056E800E025E0550035A76
:1030B00002C0E9FF03C0EAFFEFCF02F0029C00C0AC
:1030C000E9FF01C0EAFF02C0EFFF938E810E006EA0
:1030D0000F0E016E0F0E036E380E002603500122F4
:1030E0000F0E036E800E005E0350015A810E026EB9
:1030F0000F0E036E0F0E056E380E022605500322CA
:103100000F0E056E800E025E0550035A02C0E9FFE5
:1031100003C0EAFFEFCF02F0029E00C0E9FF01C04A
:10312000EAFF02C0EFFF0C0E0F01546F0F01549B1A
:1031300054990F01556B92980401936B020E946F92
:10314000956B0A0E966F976B100E986F070E996F1E
:103150009A919A83800EE56E040EE56EB60EE56ECA
:103160008DEC2EF0030EE126800EE56E040EE56E6A
:10317000D70EE56E38EC22F0030EE126800EE56EE8
:10318000040EE56EC60EE56E38EC22F0030EE12665
:103190000401B16BB26BB36BB46BB591B5959C6B1D
:1031A0009D6B9E6B9F6BA46BA56BA66BA76B9388A7
:1031B000810E006E0F0E016E0F0E036E380E00268C
:1031C000035001220F0E036E800E005E0350015A61
:1031D000810E026E0F0E036E0F0E056E380E022664
:1031E000055003220F0E056E800E025E0550035A35
:1031F00002C0E9FF03C0EAFFEFCF02F0029800C06F
:10320000E9FF01C0EAFF02C0EFFF9386810E006E66
:103210000F0E016E0F0E036E380E002603500122B2
:103220000F0E036E800E005E0350015A810E026E77
:103230000F0E036E0F0E056E380E02260550032288
:103240000F0E056E800E025E0550035A02C0E9FFA4
:1032500003C0EAFFEFCF02F0029600C0E9FF01C011
:10326000EAFF02C0EFFF9A83010E946F956B320E56
:10327000966F976B050E996F9EEC36F0330ECD6E00
:103280009D809F80E4CF05F0E4CF03F0E4CF02F00F
:10329000E4CF01F0E4CF00F0120000C0E5FF01C070
:1032A000E5FF02C0E5FF03C0E5FFE9EC23F0C8EC51
:1032B00013F012EC33F0006EF3CF01F0F4CF02F014
:1032C000E9CF03F004017C51005E7D51015A7E512B
:1032D000025A7F51035A039E3F0E035C08E1FF0E22
:1032E000025C05E1FF0E015C02E1FF0E005CD8B05C
:1032F00013D112EC33F0F3CF01F0F4CF02F0E9CFA9
:1033000003F0880F04017C6F130E01207D6F000E07
:1033100002207E6F000E03207F6F55EC0FF004C07B
:10332000E5FFF2CF04F0F29E0401A9510301CD6F35
:103330000401AA510301CE6F0401AB510301CF6F09
:103340000401AC510301D06F0401AD510301D16FF1
:103350000401AE510301D26F0401AF510301D36FD9
:103360000401B0510301D46F0401B1510301D56FC1
:103370000401B2510301D66F0401B3510301D76FA9
:103380000401B4510301D86F0401B5510301D96F91
:103390000401AD6BAE6BAF6BB06B04BEF28EE4CFCD
:1033A00004F0800EE56E040EE56E930EE56E59ECAA
:1033B00009F0030EE1269EC420F59FC421F5050106
:1033C0002151800F7C0F02E1000E205D04E3050116
:1033D0002069030E216F05012151800F840F02E146
:1033E000010E205D05E2010E0501206FFC0E216F2C
:1033F00005012151800F800F02E1010E205D10E3D5
:1034000005012151800FF36E04019751800FF35C89
:1034100003E196510501205D03E20501206B216B5C
:10342000D880050121AFD89015E30401971D016EE6
:10343000961D006E004A012A0150800FF36E0501AF
:103440002151800FF35C02E12051005C03E2050191
:10345000206B216B04019AA309D0B5A507D0D880B1
:10346000050121AFD89002E3206B216BD8800501C4
:1034700021AFD89007E3211D016E201D006E004A88
:10348000012A04D020C500F021C501F000C022F5BA
:1034900001C023F505012251020BE840010BE83879
:1034A000E844F46E0F015451DF0BF410546F050122
:1034B0002251010B010BE838F46E0F015451EF0B50
:1034C000F410546F050123352331016E2231006E53
:1034D00001340132003200500F01556FD8800501D0
:1034E00021AFD89003E3899A898E02D0899E898A78
:1034F00016C500F017C501F00501163F01D0172BC6
:103500000150800F800F02E10B0E005C05E3050106
:10351000166B176B1DEC29F0E4CF03F0E4CF02F03B
:10352000E4CF01F0E4CF00F01200800EE56E030E50
:10353000E56E400EE56E32EC2FF0030EE126800EB4
:10354000E56E030EE56E200EE56E32EC2FF0030EF5
:10355000E126800EE56E030EE56E420EE56E32EC5E
:103560002FF0030EE126800EE56E030EE56E220EAF
:10357000E56E32EC2FF0030EE126800EE56E030EB1
:10358000E56E440EE56E32EC2FF0030EE126800E60
:10359000E56E030EE56E240EE56E32EC2FF0030EA1
:1035A000E126800EE56E030EE56E460EE56E32EC0A
:1035B0002FF0030EE126800EE56E030EE56E260E5B
:1035C000E56E32EC2FF0030EE126800EE56E030E61
:1035D000E56E480EE56E32EC2FF0030EE126800E0C
:1035E000E56E030EE56E280EE56E32EC2FF0030E4D
:1035F000E126800EE56E030EE56E4A0EE56E32ECB6
:103600002FF0030EE126800EE56E030EE56E2A0E06
:10361000E56E32EC2FF0030EE126800EE56E030E10
:10362000E56E4C0EE56E32EC2FF0030EE126800EB7
:10363000E56E030EE56E2C0EE56E32EC2FF0030EF8
:10364000E126800EE56E030EE56E4E0EE56E32EC61
:103650002FF0030EE126800EE56E030EE56E2E0EB2
:10366000E56E32EC2FF0030EE126800EE56E030EC0
:10367000E56E500EE56E32EC2FF0030EE126800E63
:10368000E56E030EE56E300EE56E32EC2FF0030EA4
:10369000E126800EE56E030EE56E520EE56E32EC0D
:1036A0002FF0030EE126800EE56E030EE56E320E5E
:1036B000E56E32EC2FF0030EE126800EE56E030E70
:1036C000E56E540EE56E32EC2FF0030EE126800E0F
:1036D000E56E030EE56E340EE56E32EC2FF0030E50
:1036E000E126800EE56E030EE56E560EE56E32ECB9
:1036F0002FF0030EE126800EE56E030EE56E360E0A
:10370000E56E32EC2FF0030EE126800EE56E030E1F
:10371000E56E580EE56E32EC2FF0030EE126800EBA
:10372000E56E030EE56E380EE56E32EC2FF0030EFB
:10373000E126800EE56E030EE56E5A0EE56E32EC64
:103740002FF0030EE126800EE56E030EE56E3A0EB5
:10375000E56E32EC2FF0030EE126800EE56E030ECF
:10376000E56E5C0EE56E32EC2FF0030EE126800E66
:10377000E56E030EE56E3C0EE56E32EC2FF0030EA7
:10378000E126800EE56E030EE56E5E0EE56E32EC10
:103790002FF0030EE126800EE56E030EE56E3E0E61
:1037A000E56E32EC2FF0030EE1261200D9CFE5FFD3
:1037B000E1CFD9FF00C0E5FF01C0E5FF02C0E5FF92
:1037C00003C0E5FF04C0E5FF05C0E5FF06C0E5FF57
:1037D00007C0E5FF08C0E5FF020EDBCF00F0030ED7
:1037E000DBCF01F0040EDBCF02F0036A046A3CEC8D
:1037F00033F0056EFE0A01E075D0E0EC2EF03CECF3
:1038000033F0066E040E065CD8B05AD0FA6AFB6A32
:103810000634FA36E834FA36FC0B2A0FE56E380E19
:10382000FA22000EFB22E450F96E1DEF1CF029EF86
:103830001CF03CEF1CF04FEF1CF000C0E9FF01C092
:10384000F3FF0250EDEC35F0076E07C003F0046A99
:1038500037D00050010F076E000E0120086E000ED9
:10386000022007C0E9FF08C0F3FFEDEC35F0076E5A
:1038700007C003F0046A24D00050020F076E000E48
:103880000120086E000E022007C0E9FF08C0F3FF08
:10389000EDEC35F0076E07C003F0046A11D000505C
:1038A0000F0F076E000E0120086E000E022007C0E9
:1038B000E9FF08C0F3FF77EC35F0036EF3CF04F0B7
:1038C0000450E56E0350E56EE56A0650E56E000EA5
:1038D000E56E450EE56E900EE56EDAEC30F0070E03
:1038E000E1268DD0040E055CD8B089D0FA6AFB6A57
:1038F0000534FA36E834FA36FC0B0A0FE56E390E59
:10390000FA22000EFB22E450F96E8DEF1CF09AEFC4
:103910001CF0C5EF1CF0DBEF1CF03CEC33F0036E49
:1039200003C0E5FF00C0E9FF01C0F3FF02507FECD8
:1039300036F065D00050010F036E000E0120046EBA
:10394000000E0220056E3CEC33F0066E06C0E5FF6B
:1039500003C0E9FF04C0F3FF05507FEC36F00650CA
:10396000D8A44DD00050030F036E000E0120046E4A
:10397000000E0220E56AF46AF66AF76A03C0E9FFFE
:1039800004C0F3FFDCEC35F03AD00050020F036EB8
:10399000000E0120046E000E0220056E3CEC33F098
:1039A000066E06C0E5FF03C0E9FF04C0F3FF055043
:1039B0007FEC36F024D00F0E0026000E01220222EA
:1039C0003CEC33F0066E056AE56A06C0F4FF00C001
:1039D000E9FF01C0F3FF025046EC36F03CEC33F057
:1039E000046A05260450062205C0E5FF06C0F4FF60
:1039F00000C0E9FF01C0F3FF025046EC36F0E4CF0F
:103A000008F0E4CF07F0E4CF06F0E4CF05F0E4CF10
:103A100004F0E4CF03F0E4CF02F0E4CF01F0E4CF10
:103A200000F0E4CFD9FF1200D9CFE5FFE1CFD9FFF5
:103A300000C0E5FF01C0E5FF02C0E5FF03C0E5FFF0
:103A400004C0E5FF05C0E5FF06C0E5FF07C0E5FFD0
:103A5000020EDBCF00F0030EDBCF01F0040EDBCF54
:103A600002F0050EDBCF03F0060EDBCF04F0070EED
:103A7000DBCF05F0080EDBCF06F0090EDBCF07F039
:103A800000500301F76F0150F86F0250F96F0350B7
:103A9000FA6F04500301FB6F0550FC6F0650FD6F79
:103AA0000750FE6F0301F7510301FD03F4CF01F04E
:103AB000F3CF00F000500501026F0150036F0301C6
:103AC000F7510301FB03F4CF01F0F3CF00F00050F6
:103AD0000501006F0150016F0301FA510301FB035F
:103AE000F3CF00F00501035100260050036F0301DE
:103AF000F9510301FC03F3CF01F0015000260050FF
:103B00000501036F0301F9510301FB03F4CF01F039
:103B1000F3CF00F0050102510026035101220050AD
:103B2000026F0150036F0301F8510301FC03F4CF4E
:103B300003F0F3CF02F002500026035001220050A0
:103B40000501026F0150036F0301F8510301FD03EA
:103B5000F3CF00F000500501076F0301F851030196
:103B6000FB03F4CF01F0F3CF00F000500501056F27
:103B70000150066F0301F7510301FE03F3CF00F07C
:103B8000005005010B6F0301F7510301FC03F4CF53
:103B900001F0F3CF00F000500501096F01500A6FEA
:103BA0000501046B0501086B0501045105010025A1
:103BB000006E0501055105010121016E0501065147
:103BC00005010221026E0501075105010321036E63
:103BD0000050006F0150016F0250026F0350036FDD
:103BE0000501085105010025006E05010951050177
:103BF0000121016E05010A5105010221026E050134
:103C00000B5105010321036E03C0E9FF02C0F4FF5D
:103C100001C0F3FF0050E4CF07F0E4CF06F0E4CF9B
:103C200005F0E4CF04F0E4CF03F0E4CF02F0E4CFFA
:103C300001F0E4CF00F0E4CFD9FF120000C0E5FFAF
:103C400001C0E5FF04011951D8B4F7D09DA81DD0DB
:103C50009EA81BD005012E5105012B1905E12AEC68
:103C600036F005012B6BE9D0000E05012E25006E04
:103C7000016A0F0E012200C0E9FF01C0EAFFEFCF89
:103C800027F52E2B27C5ADFFD8D09DAAD6D09EAA4A
:103C9000D4D0ABA205D005012C812AEC36F0CDD0D2
:103CA000ABA405D005012C832AEC36F0C6D0ABA01E
:103CB0003ED0AECF27F5800E04011A110501271959
:103CC00004E105012C89AB96B8D00501275104E029
:103CD000275104011A1927E105012C99AB9605011A
:103CE000275103E005012C9702D005012C8727C539
:103CF00030F529C531F5050129050501326F600E42
:103D000005013125006E016A000E012200C0E9FFA5
:103D100001C0EAFF27C5EFFF312B3151800A02E1D4
:103D20000501316B8AD005012C99AB8686D0AECFC8
:103D300027F505012CA919D0800E04011A110501DF
:103D4000271911E19D9AAB98949005012B5104E13C
:103D5000AD6A2AEC36F007D000CFADFF010E0501A9
:103D60002E6F9D886AD0AB8668D00501275105016A
:103D7000302705013151050132191BE10501305190
:103D80000CE131C529F505012CB712D09D9AAB98ED
:103D90009490AD6A2AEC36F00BD005012C852CB737
:103DA00007D09D9AAB989490010EAD6E2AEC36F038
:103DB00044D00501315105012A1908E105012A51B4
:103DC0000501291903E02AEC36F037D029C500F0A7
:103DD000016A004A012AE56A800EE56E0150E56E2F
:103DE0000050E56E8CEC29F0006E040EE1260050C8
:103DF0000501286F050131190CE11F0E050127157A
:103E00000501326F322B322B050129510501322772
:103E1000329F31C500F00501312B016A600E00268A
:103E2000000E012200C0E9FF01C0EAFF27C5EFFF35
:103E30003151800A02E10501316BE4CF01F0E4CF9A
:103E400000F01200D9CFE5FFE1CFD9FF00C0E5FFB8
:103E500001C0E5FF02C0E5FF03C0E5FF04C0E5FFC8
:103E600005C0E5FF06C0E5FF07C0E5FF08C0E5FFA8
:103E700009C0E5FF0AC0E5FF0BC0E5FF0CC0E5FF88
:103E80000DC0E5FF0EC0E5FF0FC0E5FF020EDBCF62
:103E900000F0030EDBCF01F0040EDBCF02F0050EC5
:103EA000DBCF03F0060EDBCF04F0070EDBCF05F00F
:103EB000080EDBCF06F0200E076E086A06C009F078
:103EC0000A6A0B6A0C6AE56AE56AE56A0950E56EFA
:103ED0000350E56E0250E56E0150E56E0050E56E50
:103EE0009BEC21F00D6E080EE126300E0D263A0EE9
:103EF0000D5C05E30D500E6E270E0E240D6EFF0EA9
:103F000007260822800E07240E6E030E08200F6E6F
:103F10000EC0E9FF0FC0EAFF0DC0EFFF0C50E56EC9
:103F20000B50E56E0A50E56E0950E56E0350E56EE4
:103F30000250E56E0150E56E0050E56ECCEC22F0CB
:103F4000006EF3CF01F0F4CF02F0E9CF03F0080EDA
:103F5000E1260050011002100310D8A4AFD707C00B
:103F600000F008C001F004C002F005C003F000C07A
:103F700004F001C005F0004A012A800E0426030E59
:103F8000052204C0E9FF05C0EAFFEFCF04F002C03C
:103F9000E9FF03C0EAFF04C0EFFF024A032A000E54
:103FA000015C02E1200E005CE2E302C0E9FF03C015
:103FB000EAFF000EEF6AE4CF0FF0E4CF0EF0E4CF9B
:103FC0000DF0E4CF0CF0E4CF0BF0E4CF0AF0E4CF37
:103FD00009F0E4CF08F0E4CF07F0E4CF06F0E4CF37
:103FE00005F0E4CF04F0E4CF03F0E4CF02F0E4CF37
:103FF00001F0E4CF00F0E4CFD9FF1200D9CFE5FF04
:10400000E1CFD9FF00C0E5FF01C0E5FF02C0E5FF39
:1040100003C0E5FF04C0E5FF05C0E5FF06C0E5FFFE
:1040200007C0E5FF08C0E5FF09C0E5FF0AC0E5FFDE
:104030000BC0E5FF0CC0E5FF0DC0E5FF020EDBCFB6
:1040400000F0030EDBCF01F0040EDBCF02F0050E13
:10405000DBCF03F0060EDBCF04F0070EDBCF05F05D
:10406000080EDBCF06F0090EDBCF07F0D88003AED9
:10407000D890086A083608500FE0031C0C6E021C2A
:104080000B6E011C0A6E001C096E092A0DE10A2A3A
:104090000BE10B4A0C2A08D000C009F001C00AF05D
:1040A00002C00BF003C00CF0D88007AED890006AB5
:1040B000003600500FE0071C0D6E061C036E051C39
:1040C000026E041C016E012A0DE1022A0BE1034A73
:1040D0000D2A08D004C001F005C002F006C003F0AC
:1040E00007C00DF00D50E56E0350E56E0250E56E11
:1040F0000150E56E0C50E56E0B50E56E0A50E56E12
:104100000950E56ECCEC22F0016EF3CF02F0F4CF53
:1041100003F0E9CF04F0080EE1260050081A085019
:1041200016E0041C076E031C066E021C056E011CC3
:10413000006E002A04E1052A02E1064A072A07C0A8
:10414000E9FF06C0F4FF05C0F3FF005007D004C02C
:10415000E9FF03C0F4FF02C0F3FF0150E4CF0DF00C
:10416000E4CF0CF0E4CF0BF0E4CF0AF0E4CF09F099
:10417000E4CF08F0E4CF07F0E4CF06F0E4CF05F099
:10418000E4CF04F0E4CF03F0E4CF02F0E4CF01F099
:10419000E4CF00F0E4CFD9FF120000C0E5FF01C07A
:1041A000E5FF02C0E5FF03C0E5FF9EA0B8D0006AAE
:1041B00081BC002A0050010BF46E04019B51FE0BE0
:1041C000F4109B6F006A81BA002A0050010A08E1CE
:1041D0000401B16BB26BB36BB46BB581B58502D022
:1041E0000401B595006A04019BB1002A016A9BB5E0
:1041F000012A0050011801E18ED0006A04019BB130
:10420000002A0050010BE844E844F46E9B51FB0B7C
:10421000F4109B6FA951AD5D006EAA51AE59016EAD
:10422000AB51AF59026EAC51B059036E0050AD6F37
:104230000150AE6F0250AF6F0350B06F0F01345199
:104240000401A96F0F0135510401AA6F0F01365106
:104250000401AB6F0F0137510401AC6F0F013451F2
:1042600000263551012236510222375103220050D7
:104270000401AD6F0150AE6F0250AF6F0350B06FCD
:10428000006A81BE002A0050010BE844F46E9B5185
:10429000FD0BF4109B6F006A9BB1002A016A9BB36F
:1042A000012A0150D880E866D890016A0136015091
:1042B000001A005019E0B1C400F0B2C401F0B3C458
:1042C00002F0B4C403F0002A04E3012A02E3024A24
:1042D000032A00500401B16F0150B26F0250B36F56
:1042E0000350B46FB58317D0B1C400F0B2C401F06D
:1042F000B3C402F0B4C403F0FF0E00260122022270
:10430000032200500401B16F0150B26F0250B36F2D
:104310000350B46FB593CF689B0ECE6E9E90E4CFE2
:1043200003F0E4CF02F0E4CF01F0E4CF00F012009C
:10433000430025630000D9CFE5FFE1CFD9FF00C0DE
:10434000E5FF01C0E5FF02C0E5FF03C0E5FF04C0D3
:10435000E5FF05C0E5FF06C0E5FF07C0E5FF08C0B3
:10436000E5FF09C0E5FF0AC0E5FF020EDBCF00F064
:10437000030EDBCF01F0040EDBCF02F0050EDBCF26
:1043800003F0060EDBCF04F0070EDBCF05F0080EBE
:10439000DBCF06F0090EDBCF07F0086A04500510EA
:1043A0000610071005E1E968F468F368E86847D08B
:1043B000096A0750800BE8440A6E0A501BE104505A
:1043C00004260536063607360750035C08E106501A
:1043D000025C05E10550015C02E10450005C06E26C
:1043E000D890073206320532043204D0092A09C0B7
:1043F00008F0DFD70750035C08E10650025C05E1D6
:104400000550015C02E10450005C08E30450005ECA
:104410000550015A0650025A0750035AD8900732E5
:1044200006320532043208C009F008060950E2E1FC
:1044300003C0E9FF02C0F4FF01C0F3FF0050E4CF66
:104440000AF0E4CF09F0E4CF08F0E4CF07F0E4CFBE
:1044500006F0E4CF05F0E4CF04F0E4CF03F0E4CFBE
:1044600002F0E4CF01F0E4CF00F0E4CFD9FF120076
:10447000D9CFE5FFE1CFD9FF00C0E5FF01C0E5FFDF
:1044800002C0E5FF03C0E5FF04C0E5FF05C0E5FF8E
:1044900006C0E5FF07C0E5FF020EDBCF00F0030E0C
:1044A000DBCF01F0040EDBCF02F000500B0F036EE8
:1044B000000E0120046E000E0220E56AF46AF66A1E
:1044C000F76A03C0E9FF04C0F3FFDCEC35F00050ED
:1044D000070F036E000E0120046E000E0220056E11
:1044E0000050030F066E000E0120076E000E022022
:1044F000E56AF46AF66AF76A06C0E9FF07C0F3FFE7
:10450000DCEC35F0E56AF46AF66AF76A03C0E9FFA5
:1045100004C0F3FF0550DCEC35F00050010F036ED2
:10452000000E0120046E000E0220056E0050020FE6
:10453000066E000E0120076E000E0220E56A06C01E
:10454000E9FF07C0F3FF7FEC36F0E56A03C0E9FF3F
:1045500004C0F3FF05507FEC36F0E56A00C0E9FFC8
:1045600001C0F3FF02507FEC36F0E4CF07F0E4CF58
:1045700006F0E4CF05F0E4CF04F0E4CF03F0E4CF9D
:1045800002F0E4CF01F0E4CF00F0E4CFD9FF120055
:1045900025642025640A0000D9CFE5FFE1CFD9FFCB
:1045A00000C0E5FF01C0E5FF02C0E5FF03C0E5FF75
:1045B00004C0E5FF05C0E5FF06C0E5FF07C0E5FF55
:1045C00008C0E5FF09C0E5FF0AC0E5FF0BC0E5FF35
:1045D0000CC0E5FF0DC0E5FF020EDBCF00F0030EBF
:1045E000DBCF01F0040EDBCF02F0050EDBCF03F0D2
:1045F000060EDBCF04F0070EDBCF05F0080EDBCF95
:1046000006F0090EDBCF07F0086A096A0A6A0B6A2E
:10461000200E0C6E0350800BE8440D6E00500026F7
:104620000136023603360850082609360A360B369C
:104630000D50D8A4088007500B5C08E106500A5CB6
:1046400005E10550095C02E10450085C09E30450EF
:10465000085E0550095A06500A5A07500B5A008046
:104660000C040D6E0DC00CF00D50D4E103C0E9FF39
:1046700002C0F4FF01C0F3FF0050E4CF0DF0E4CF1F
:104680000CF0E4CF0BF0E4CF0AF0E4CF09F0E4CF74
:1046900008F0E4CF07F0E4CF06F0E4CF05F0E4CF74
:1046A00004F0E4CF03F0E4CF02F0E4CF01F0E4CF74
:1046B00000F0E4CFD9FF120000C0E5FF01C0E5FF24
:1046C00003C0E5FF04C0E5FF05C0E5FF06C0E5FF48
:1046D00007C0E5FF08C0E5FF09C0E5FF0AC0E5FF28
:1046E0000BC0E5FF18C500F019C501F00501183F22
:1046F00001D0192B0050E56E1CEC36F0E652076E27
:10470000046A056A066A18C500F019C501F00501BA
:10471000183F01D0192B0050E56E1CEC36F0E65224
:104720000B6A0A6E086A0850041205120A50061233
:104730000B50071218C500F019C501F00501183F0C
:1047400001D0192B0050E56E1CEC36F0E652036EDA
:10475000006A03C001F0E86A03BEFF0E086E096E2E
:104760000050041201500512085006120950071299
:1047700018C500F019C501F00501183F01D0192B2B
:104780000050E56E1CEC36F0E652016A041201504E
:1047900005120612071207C0E9FF06C0F4FF05C0A4
:1047A000F3FF0450E4CF0BF0E4CF0AF0E4CF09F0BC
:1047B000E4CF08F0E4CF07F0E4CF06F0E4CF05F053
:1047C000E4CF04F0E4CF03F0E4CF01F0E4CF00F055
:1047D000120000C0E5FF01C0E5FF02C0E5FF03C015
:1047E000E5FF04C0E5FF05012A510501291901E192
:1047F0005FD02AC500F0002A009E600E0024016EE2
:10480000026A000E022201C0E9FF02C0EAFFEFCFF8
:1048100034F51F0E050134172AC533F5345105014F
:104820003327332B332B339F3CEC33F0016E015095
:1048300003E1016A012A01D0016A3CEC33F0050171
:10484000346F800E3415026E1F0E3415036E03C0D4
:1048500004F003C034F5045003E129C52AF53BD028
:1048600001501BE0025022E03CEC33F0006E0501E9
:1048700034070050420A1AE000504E0A03E117ECD8
:1048800030F014D00050460A03E169EC36F00ED047
:104890000050490A0BE1FF0009D02AC535F5025046
:1048A00003E0DFEC2DF002D0FEEC35F033C52AF545
:1048B000040116510401171906E005012B5103E10B
:1048C00019EC26F008D094B006D005012B5103E175
:1048D000ACB22AEC36F0E4CF04F0E4CF03F0E4CF3E
:1048E00002F0E4CF01F0E4CF00F01200D9CFE5FFF1
:1048F000E1CFD9FF00C0E5FF01C0E5FF02C0E5FF41
:1049000003C0E5FF04C0E5FF05C0E5FF06C0E5FF05
:1049100007C0E5FF08C0E5FF0BC0E5FF0CC0E5FFE1
:104920000DC0E5FF020EDBCF00F0030EDBCF01F080
:10493000040EDBCF02F0050EDBCF03F0060EDBCF5B
:1049400004F003C0E5FF04C0F4FF00C0E9FF01C0AC
:10495000F3FF025046EC36F00050020F056E000ED9
:104960000120066E000E0220076EE86A04BEFF0EEC
:10497000086E04500C6E0C2608340D6ED8900C3660
:104980000D360344E844FC0B0B6E0350E844E84446
:10499000030B0C12E56A0BC0F4FF0CC0F6FF0DC050
:1049A000F7FF05C0E9FF06C0F3FF0750DCEC35F068
:1049B000080E0026000E01220222E56AF46AF66A59
:1049C000F76A00C0E9FF01C0F3FF0250DCEC35F0EC
:1049D000E4CF0DF0E4CF0CF0E4CF0BF0E4CF08F01F
:1049E000E4CF07F0E4CF06F0E4CF05F0E4CF04F025
:1049F000E4CF03F0E4CF02F0E4CF01F0E4CF00F025
:104A0000E4CFD9FF1200D9CFE5FFE1CFD9FF00C035
:104A1000E5FF01C0E5FF02C0E5FF03C0E5FF04C0FC
:104A2000E5FF05C0E5FF06C0E5FF07C0E5FF020E94
:104A3000DBCF00F0030EDBCF01F0040EDBCF02F082
:104A4000050EDBCF03F002C006F00650046E800AAC
:104A500033E100C0E9FF01C0F3FF02509FEC34F0E6
:104A6000056EF3CF06F0F4CF07F003C0E5FF05C0F5
:104A7000E9FF06C0F3FF07507FEC36F000C0E9FF06
:104A800001C0F3FF02509FEC34F0056EF3CF06F047
:104A9000F4CF07F0052A02E3064A072A05C0E5FF1E
:104AA00006C0F4FF07C0F6FF00C0E9FF01C0F3FF36
:104AB00002500DEC36F020D004C000F000AA1CD04B
:104AC000007A0050046E04E10350BCEC36F014D0C0
:104AD0000450010A04E1035002EC00F00DD0045030
:104AE0000F0A04E10350B0EC32F006D004500E0A75
:104AF00003E10350CCEC36F0E4CF07F0E4CF06F04E
:104B0000E4CF05F0E4CF04F0E4CF03F0E4CF02F00B
:104B1000E4CF01F0E4CF00F0E4CFD9FF1200D9CF09
:104B2000E5FFE1CFD9FF00C0E5FF01C0E5FF02C00E
:104B3000E5FF03C0E5FF04C0E5FF05C0E5FF06C0D3
:104B4000E5FF07C0E5FF08C0E5FF09C0E5FF0AC0B3
:104B5000E5FF020EDBCF00F0030EDBCF01F0040E09
:104B6000DBCF02F0050EDBCF03F0060EDBCF04F047
:104B7000070EDBCF05F00038E8441F0B066E076A0E
:104B80001A0E0626050E072206C0E9FF07C0EAFF37
:104B9000EFCF08F0070E0014096E010E0A6E0950DF
:104BA00005E0E86CD8900A36010FFDE30A500812C0
:104BB00006C0E9FF07C0EAFF08C0EFFFA00E00240F
:104BC000066E076A030E072206C0E9FF07C0EAFF68
:104BD00001C0EFFF016AE80E0026040E0122800EDC
:104BE000025E070E02160238F00B036E070E051662
:104BF0000550032600C0E9FF01C0EAFF03C0EFFF34
:104C0000E4CF0AF0E4CF09F0E4CF08F0E4CF07F0F6
:104C1000E4CF06F0E4CF05F0E4CF04F0E4CF03F0F6
:104C2000E4CF02F0E4CF01F0E4CF00F0E4CFD9FF0D
:104C3000120000C0E5FF01C0E5FF02C0E5FF03C0B0
:104C4000E5FFACA276D045EC34F0006E005005E1F3
:104C50000401176B0401166B6CD017C401F00050EF
:104C6000012645EC34F0026E00060250230A1FE1D3
:104C7000010E005CD8A05BD045EC34F0026E690AEE
:104C800003E1E1EC32F053D00250720A03E12AEC66
:104C900036F04DD00250730A01E049D09480AB86C3
:104CA0009D8A9D98AE50AE50AB98AB8840D00250D4
:104CB000430A05E00250420A01E039D001D0008EDB
:104CC00000C02DF500500F01006F010E05012E6F81
:104CD00004011751011814E045EC34F0026E05018F
:104CE0002D27000E05012E25006E036A0F0E0322EC
:104CF00000C0E9FF03C0EAFF02C0EFFF2E2BE8D798
:104D0000000E05012E25006E026A0F0E022205011B
:104D10002D1D036E032A00C0E9FF02C0EAFF03C095
:104D2000EFFF05012E2B2EC52BF50501256B01C0CC
:104D300017F4E4CF03F0E4CF02F0E4CF01F0E4CFC6
:104D400000F01200D9CFE5FFE1CFD9FF00C0E5FFA9
:104D500001C0E5FF02C0E5FF03C0E5FF04C0E5FFB9
:104D600005C0E5FF06C0E5FF020EDBCF00F0030E35
:104D7000DBCF01F0040EDBCF02F0050EDBCF03F03A
:104D800003C004F0056A0350D8B44FD000C0E9FF57
:104D900001C0F3FF0250EDEC35F0066E430A03E16B
:104DA000010E056E038E0406002A02E3014A022A60
:104DB0009D9AAB9894909D989EA8FED7AC80AD6AC2
:104DC00000009EA8FED7AC9003C0ADFF00009EA8D7
:104DD000FED7055004E0420EAD6E032604D0620EED
:104DE000AD6E620E0326045015E000009EA8FED7AB
:104DF00000C0E9FF01C0F3FF0250EDEC35F0056E95
:104E000005C0ADFF055003260406002A02E3014A4F
:104E1000022AE9D700009EA8FED7031CAD6EAD2A7A
:104E200000009EA8FED72AEC36F0E4CF06F0E4CFCF
:104E300005F0E4CF04F0E4CF03F0E4CF02F0E4CFD8
:104E400001F0E4CF00F0E4CFD9FF120000C0E5FF8D
:104E500001C0E5FF02C0E5FF03C0E5FF04C0E5FFB8
:104E6000006A1A0E0024016E026A050E022201C0B9
:104E7000E9FF02C0EAFFEF6A002A020E005CF1E3DC
:104E8000006A0050020DF450026EF3CF01F0E00E04
:104E90000124036E000E0220046E03C0E9FF04C06B
:104EA000EAFFEE6AEF6A5C0E0124036E040E022034
:104EB000046E03C0E9FF04C0EAFFEE6AEF6A000E69
:104EC0000124036E030E0220046E03C0E9FF04C038
:104ED000EAFFEE6AEF6A200E0124036E030E022041
:104EE000046E03C0E9FF04C0EAFFEE6AEF6A400EF9
:104EF0000126030E022201C0E9FF02C0EAFFEE68AC
:104F00007F0EEF6EE80E0024016E026A040E02228C
:104F100001C0E9FF02C0EAFFEF68002A100E005C42
:104F2000D8A0AFD7AF0EC06EC16A010EC26EC282EA
:104F3000E4CF04F0E4CF03F0E4CF02F0E4CF01F0DB
:104F4000E4CF00F012004320412025642025640AAC
:104F50000000D9CFE5FFE1CFD9FF00C0E5FF01C0D8
:104F6000E5FF02C0E5FF03C0E5FF04C0E5FF05C0A3
:104F7000E5FF06C0E5FF07C0E5FF08C0E5FF09C083
:104F8000E5FF0AC0E5FF0BC0E5FF0CC0E5FF020E20
:104F9000DBCF00F0030EDBCF01F0040EDBCF02F01D
:104FA000050EDBCF03F0060EDBCF04F0070EDBCFE0
:104FB00005F0080EDBCF06F0090EDBCF07F002503C
:104FC0000A6E0150096E0050086E06C00BF007C053
:104FD0000CF0FF0E062607220B500C101AE003C03F
:104FE000E9FF04C0F3FF0550EDEC35F00B6E032A2A
:104FF00002E3044A052A0BC0E5FF08C0E9FF09C027
:10500000F3FF0A507FEC36F0082ADFE3094A0A2A48
:10501000DCD702C0F4FF01C0F3FF0050E4CF0CF076
:10502000E4CF0BF0E4CF0AF0E4CF09F0E4CF08F0CE
:10503000E4CF07F0E4CF06F0E4CF05F0E4CF04F0CE
:10504000E4CF03F0E4CF02F0E4CF01F0E4CF00F0CE
:10505000E4CFD9FF1200D9CFE5FFE1CFD9FF00C0DF
:10506000E5FF01C0E5FF02C0E5FF03C0E5FF04C0A6
:10507000E5FF05C0E5FF06C0E5FF07C0E5FF020E3E
:10508000DBCF00F0030EDBCF01F0040EDBCF02F02C
:10509000050EDBCF03F017C418F404011651040108
:1050A000185F180703C004F0056A030E0426D8B081
:1050B000052A18C406F0076A0750800FF36E0550E2
:1050C000800FF35C02E10450065C02E2E8682BD03A
:1050D000020E035C02E2E86A26D003060350E56E86
:1050E00096EC31F0E652046A0350045C14E204507A
:1050F0000024056EE86A0120066EE86A022005C0F9
:10510000E9FF06C0F3FFEDEC35F0042AE56E96ECFE
:1051100031F0E652E9D717C418F40401165104011E
:10512000185F1807E86AE4CF07F0E4CF06F0E4CF91
:1051300005F0E4CF04F0E4CF03F0E4CF02F0E4CFD5
:1051400001F0E4CF00F0E4CFD9FF1200D9CFE5FFA2
:10515000E1CFD9FF00C0E5FF01C0E5FF02C0E5FFD8
:1051600003C0E5FF04C0E5FF05C0E5FF020EDBCF8D
:1051700000F0030EDBCF01F0040EDBCF02F0005095
:10518000020DF450036EF3CF00F05C0E0024046EA9
:10519000040E0320056E04C0E9FF05C0EAFF01C04C
:1051A000EEFF02C0EFFF000E0024046E030E03208A
:1051B000056E04C0E9FF05C0EAFFEECF04F0EFCFB3
:1051C00005F00150045C016E02500558026E600E3D
:1051D0000026030E032200C0E9FF03C0EAFF01C05E
:1051E000EEFF02C0EFFFD88002AED89004E3021EAB
:1051F000016CD8B4022A0250800F800F02E1030E26
:10520000015C02E2016A026A0150021007E100C07B
:10521000E9FF03C0EAFF000EEE6AEF6AE4CF05F093
:10522000E4CF04F0E4CF03F0E4CF02F0E4CF01F0E8
:10523000E4CF00F0E4CFD9FF120000C0E5FF01C0C9
:10524000E5FF0401B251006E0401026F0401B15187
:105250000401036F006A81BA002A0050010A03E1C9
:10526000006A002A01D0006A00500401046F006A3D
:1052700081B8002A0050020DF3CF00F0016A81B618
:10528000012A015000260050056F04019F51006E55
:10529000016A00500401066F04019E510401076F6A
:1052A000D8900401BA31016EB931006ED890013244
:1052B0000032BB51E840E840C00B0112BB41E8405E
:1052C0003F0B00500501126F0150136F0401086F6E
:1052D000050112510401096F006A0401B5B1002AE9
:1052E00004EE0AF000C0EFFF0C0E0501146F156B01
:1052F0000A0E04010B6F0C0EE56E800EE56E040EB7
:10530000E56E000EE56E2BEC28F0040EE126E4CFEE
:1053100001F0E4CF00F01200D9CFE5FFE1CFD9FFD3
:1053200000C0E5FF01C0E5FF02C0E5FF03C0E5FFE7
:1053300004C0E5FF05C0E5FF06C0E5FF020EDBCFB8
:1053400000F0030EDBCF01F0040EDBCF02F0050E00
:10535000DBCF03F0D88001AED890046A0436045045
:1053600007E0011C066E001C056E054A062A04D0E3
:1053700000C005F001C006F0D88003AED89007E366
:10538000031C016E021C006E004A012A04D002C0F8
:1053900000F003C001F00150E56E0050E56E0650CC
:1053A000E56E0550E56E82EC2DF0006EF3CF01F056
:1053B000040EE12604500AE0011C036E001C026E7C
:1053C000024A032A03C0F3FF025003D001C0F3FFD7
:1053D0000050E4CF06F0E4CF05F0E4CF04F0E4CFD2
:1053E00003F0E4CF02F0E4CF01F0E4CF00F0E4CF2B
:1053F000D9FF1200D9CFE5FFE1CFD9FF00C0E5FF0B
:1054000001C0E5FF02C0E5FF03C0E5FF04C0E5FF02
:1054100005C0E5FF020EDBCF00F0030EDBCF01F08D
:10542000040EDBCF02F0050EDBCF03F018C504F04D
:1054300019C505F00501183F01D0192B0350E56E81
:105440000450E56E01EC34F0E652E65218C504F063
:1054500019C505F00501183F01D0192B0250056E42
:10546000E56E0450E56E01EC34F0E652E65218C5E4
:1054700004F019C505F00501183F01D0192B0150A2
:10548000056EE56E0450E56E01EC34F0E652E6522E
:1054900018C504F019C505F00501183F01D0192BF6
:1054A0000050E56E0450E56E01EC34F0E652E65231
:1054B000E4CF05F0E4CF04F0E4CF03F0E4CF02F052
:1054C000E4CF01F0E4CF00F0E4CFD9FF1200D9CF50
:1054D000E5FFE1CFD9FF00C0E5FF01C0E5FF02C055
:1054E000E5FF03C0E5FF04C0E5FF05C0E5FF08C018
:1054F000E5FF09C0E5FF0AC0E5FF020EDBCF00F0C3
:10550000030EDBCF01F0040EDBCF02F0050EDBCF84
:1055100003F0060EDBCF04F003C0E5FF04C0F4FF88
:1055200000C0E9FF01C0F3FF025046EC36F0020E66
:105530000026000E0122022204BEFF0E056E04505A
:10554000096E092605340A6ED89009360A360344D6
:10555000E844FC0B086E0350E844E844030B0912CE
:10556000E56A08C0F4FF09C0F6FF0AC0F7FF00C0F3
:10557000E9FF01C0F3FF0250DCEC35F0E4CF0AF0A4
:10558000E4CF09F0E4CF08F0E4CF05F0E4CF04F075
:10559000E4CF03F0E4CF02F0E4CF01F0E4CF00F079
:1055A000E4CFD9FF1200D9CFE5FFE1CFD9FF00C08A
:1055B000E5FF01C0E5FF02C0E5FF03C0E5FF04C051
:1055C000E5FF05C0E5FF06C0E5FF020EDBCF00F0FA
:1055D000030EDBCF01F0040EDBCF02F005012451F6
:1055E00019E15CEC23F0036EF3CF04F0F4CF05F087
:1055F000E9CF06F003C0E5FF04C0F4FF05C0F6FFE5
:1056000006C0F7FF00C0E9FF01C0F3FF0250DCEC69
:1056100035F01ED005012451010A1AE100C0E9FF4E
:1056200001C0F3FF025025EC34F0006EF3CF01F01F
:10563000F4CF02F0E9CF03F00350E56E0250E56EBF
:105640000150E56E0050E56EFAEC29F0040EE126FB
:10565000E4CF06F0E4CF05F0E4CF04F0E4CF03F0AC
:10566000E4CF02F0E4CF01F0E4CF00F0E4CFD9FFC3
:105670001200D9CFE5FFE1CFD9FF00C0E5FF01C09F
:10568000E5FF02C0E5FF03C0E5FF04C0E5FF020E31
:10569000DBCF00F0030EDBCF01F0040EDBCF02F016
:1056A0000050070F036E000E0120046E000E022052
:1056B000E56E0450E56E0350E56E1AEC31F0030E12
:1056C000E1260050230F036E000E0120046E000E31
:1056D0000220E56E0450E56E0350E56E38EC2EF0C6
:1056E000030EE1260050330F036E000E0120046EFE
:1056F000000E0220E56E0450E56E0350E56EC5EC29
:105700002CF0030EE126440E0026000E0122022298
:105710000250E56E0150E56E0050E56EC5EC2CF0D0
:10572000030EE126E4CF04F0E4CF03F0E4CF02F06F
:10573000E4CF01F0E4CF00F0E4CFD9FF1200D9CFDD
:10574000E5FFE1CFD9FF00C0E5FF01C0E5FF02C0E2
:10575000E5FF03C0E5FF04C0E5FF05C0E5FF06C0A7
:10576000E5FF020EDBCF00F0030EDBCF01F00038C7
:10577000E8441F0B026E036A1A0E0226050E03226E
:1057800002C0E9FF03C0EAFFEFCF04F0070E0014E8
:10579000056E010E066E055005E0E86CD8900636E1
:1057A000010FFDE30650041202C0E9FF03C0EAFF47
:1057B00004C0EFFFA00E0024026E036A030E032252
:1057C00002C0E9FF03C0EAFF01C0EFFF016AE80E73
:1057D0000026040E012200C0E9FF01C0EAFFFF0E0F
:1057E000EF68E4CF06F0E4CF05F0E4CF04F0E4CFB7
:1057F00003F0E4CF02F0E4CF01F0E4CF00F0E4CF17
:10580000D9FF1200D9CFE5FFE1CFD9FF00C0E5FFF6
:1058100001C0E5FF02C0E5FF03C0E5FF04C0E5FFEE
:1058200005C0E5FF06C0E5FF020EDBCF00F0030E6A
:10583000DBCF01F0040EDBCF02F0050EDBCF03F06F
:10584000060EDBCF04F0070EDBCF05F0080EDBCF32
:1058500006F0D88003AED89015E306500A0A12E18C
:1058600004C0E9FF05C0EAFF2D0EEF6E044A052AC9
:10587000031E021E011E006C05E1012A03E1022A3B
:10588000D8B4032A0650E56E0550E56E0450E56E67
:105890000350E56E0250E56E0150E56E0050E56E76
:1058A00022EC1FF0070EE126E4CF06F0E4CF05F06E
:1058B000E4CF04F0E4CF03F0E4CF02F0E4CF01F052
:1058C000E4CF00F0E4CFD9FF1200D8CFE5FFE0CF5E
:1058D000E5FFE56EF3CFE5FFF4CFE5FFE9CFE5FFA8
:1058E000EACFE5FFFACFE5FFFBCFE5FFF6CFE5FF17
:1058F000F6CFE5FFF7CFE5FFF8CFE5FFF5CFE5FF02
:10590000E1CFE5FFE2CFE5FF040114510F01366F4F
:10591000040115510F01376FD650346FD750356FD2
:10592000F2A411D00401143F01D0152BF29404010C
:1059300014510F01366F040115510F01376FD65006
:10594000346FD750356FCDEC20F0E4CFE2FFE4CFD9
:10595000E1FFE4CFF5FFE4CFF8FFE4CFF7FFE4CFBA
:10596000F6FFE4CFF6FFE4CFFBFFE4CFFAFFE4CF8E
:10597000EAFFE4CFE9FFE4CFF4FFE4CFF3FFE45024
:10598000E4CFE0FFE4CFD8FF1000D9CFE5FFE1CFAF
:10599000D9FF00C0E5FF01C0E5FF02C0E5FF03C07D
:1059A000E5FF04C0E5FF020EDBCF00F0030EDBCF06
:1059B00001F0040EDBCF02F00250E56E0150E56EFF
:1059C0000050E56E1AEC31F0030EE1260050010F95
:1059D000036E000E0120046E000E0220E56E0450DE
:1059E000E56E0350E56E1AEC31F0030EE12600502F
:1059F000020F036E000E0120046E000E0220E56E01
:105A00000450E56E0350E56E1AEC31F0030EE1260A
:105A10000F0E0026000E012202220250E56E0150F8
:105A2000E56E0050E56E32EC2FF0030EE126E4CF78
:105A300004F0E4CF03F0E4CF02F0E4CF01F0E4CFD0
:105A400000F0E4CFD9FF1200D9CFE5FFE1CFD9FFB5
:105A500000C0E5FF01C0E5FF02C0E5FF03C0E5FFB0
:105A600004C0E5FF05C0E5FF020EDBCF00F0030E2A
:105A7000DBCF01F0040EDBCF02F000500B0F036E02
:105A8000000E0120046E000E0220E56AF46AF66A38
:105A9000F76A03C0E9FF04C0F3FFDCEC35F0005007
:105AA000070F036E000E0120046E000E0220056E2B
:105AB000030E0026000E01220222E56AF46AF66A4D
:105AC000F76A00C0E9FF01C0F3FF0250DCEC35F0DB
:105AD000E56AF46AF66AF76A03C0E9FF04C0F3FFF7
